:100000005DC1000091C100008FC100008DC10000E2
:100010008BC1000089C1000087C1000085C10000BC
:1000200083C1000081C100000C949D1D7DC10000B2
:100030007BC1000079C1000077C1000075C10000DC
:1000400073C1000071C100006FC100006DC10000EC
:1000500030C6000069C1000067C100000C94E60AC8
:1000600063C1000061C100005FC100005DC100000C
:100070005BC1000059C1000057C1000055C100001C
:1000800053C1000051C100004FC100004DC100002C
:100090004BC1000049C1000047C1000045C100003C
:1000A00043C1000041C100003FC10000DD02E20287
:1000B000E702EC02B9028B0262026802620262028B
:1000C00062027802130418041D0422042704150494
:1000D0001A041F04240429048C1EAE1E9C1FAE1E8D
:1000E0009C1FF31E151F9C1F681F7A1F05A84CCD6F
:1000F000B2D44EB93836A9020C50B9918688083C62
:10010000A6AAAA2ABE000000803F00100100001528
:10011000050000140900001812000111020002126B
:100120000300031304010423000605160600061944
:100130000700071A0803082A000809240A000A15FC
:100140000B000B250C000B1606000C160D000D26DF
:100150000E000E160F000F261000101711041127A5
:100160000009122813001318140014281500151084
:10017000160016201700171018001820190019145F
:100180001A001A241B001A1606001B151C001C2539
:100190001D001D141E001E241F001F1520001F1609
:1001A0000D00202521002117220021150B002227F8
:1001B0002300231624052426000A00040506070848
:1001C000090A0B0C0D0E101112131415161718191D
:1001D0001A1B1C1D1E20212223242627292A2B120C
:1001E0000336003600360036003600360036004151
:1001F00000000020034D00690064006900200046F3
:100200000069006700680074006500720020003615
:10021000003400000028037700770077002E006488
:10022000006A00740065006300680074006F006F6E
:10023000006C0073002E0063006F006D00AE0000C4
:1002400000040309040902650002010080F00904AA
:100250000000000101000009240100010900010162
:10026000090401000201030000072401000141000C
:1002700006240201010006240202020009240301EF
:100280000301020100092403020401010100090520
:10029000010240000000000525010101090582025C
:1002A00040000000000525010103120110010000BB
:1002B00000408025080002000102000111241FBE39
:1002C000CFEFDAE0DEBFCDBF04B603FE17C08091EA
:1002D000900890919108A0919208B09193088A3C5F
:1002E0009C4AA244BC4D51F410929008109291087F
:1002F00010929208109293080C94003811E0A0E03C
:10030000B1E0EEE6F5E402C005900D92A437B10726
:10031000D9F728E0A4E7B1E001C01D92A039B207E7
:10032000E1F7C9D20C94B5226BCE51C508958091E6
:100330007504909176040E94CF1F882359F047D509
:100340009FE088E10FB6F894A895809360000FBEF7
:10035000909360000895E5EFF3E0A1EFB2E084E050
:10036000E537F80741F08081843110F01C9210824B
:1003700031961196F4CF08958C3171F484E0E1EF59
:10038000F3E0DF011D928A95E9F781E090E0909318
:10039000F2038093F10308958F3369F484E0E1EF71
:1003A000F3E0DF011D928A95E9F781E090E09093F8
:1003B000F4038093F30308958C3129F41092F2032F
:1003C0001092F10308958F3321F41092F4031092E8
:1003D000F3030895982F811102C08CE101C08FE3CF
:1003E00060914302643008F060E0909318020E942C
:1003F0006E1384E0E1EFF3E0DF011D928A95E9F7E7
:100400000895482F63E0809105010C94E70CCF9389
:10041000809151028823E9F0823018F48BE992E050
:1004200002C081E090E02091F1033091F20328179F
:10043000390748F42091F3033091F4032817390762
:1004400040F0C1E001C0C0E08C2FC4DF8C2FCF9101
:10045000D8CFCF9108958F929F92AF92BF92CF92B3
:10046000DF92EF92FF920F931F93CF93DF9300D011
:1004700000D0CDB7DEB780918708843009F00AC27A
:1004800010E001E0BE016F5F7F4F80917504909195
:1004900076040E94332081110BC0113009F4A1C0F1
:1004A0008FE193E00197F1F700C0000011E0EACF7F
:1004B0008981E82FEF708E2F90E0FC013497EC30AB
:1004C000F10510F010E0DECFEA5AFF4F0C948322C2
:1004D0008A818F70909105018913F4CF8B818330CD
:1004E00089F781E09C81911101C080E073DFEACF40
:1004F0008A818A3F51F08C3F51F0883F19F781E0A3
:100500000E94B30D0E94930DDDCF81E001C080E019
:100510000E94B30DD7CF4A814F70209105018B8186
:10052000421305C0ECEDE80FE03460F610C050E077
:1005300030E0215031092F7033274217530791F4CF
:100540009CED980F903408F0BDCFECE1E80F8E2FB2
:1005500090E0FC01EF50FD4F2C812083FC01EB501B
:10056000FC4F29C0E82FF0E0EF58FC4F8C818083CE
:10057000A9CF2A812F7080910501EB81281305C036
:10058000E452E03408F09ECF0EC030E090E00197D6
:100590008F7099272817390759F48CED8E0F803406
:1005A00008F090CFE45EF0E0EB50FC4F00838ACF80
:1005B000F0E0EF58FC4F108285CFCE0101960E94EB
:1005C000301780CFCE0101960E9429187BCFCE0133
:1005D00001960E94F21776CFCE0101960E949E17D7
:1005E00071CF0E94B80B0E94F80BB12CCC24C3949D
:1005F000D12CE12CF12C00E010E0912CA12C2091C9
:10060000F2012C213091F3013D214091F4014E2162
:100610005091F5015F216091F60160237091F7011F
:1006200071238091F8019091F90189219A21A0E02C
:100630000E94A22209F472C08B2D0E94910D882E77
:1006400080914802823020F461E0882D0E94060DDE
:1006500080914802882331F04FE7682D8091050191
:100660000E94E70CE09118027091EA016091EB01A1
:100670005091EC014091ED013091EE012091EF019C
:100680009091F0018091F101E11127C0EC2DE095EE
:100690007E237093EA017D2D709567236093EB01B3
:1006A0006E2D609556235093EC015F2D5095452398
:1006B0004093ED01402F409534233093EE01312FCC
:1006C000309523232093EF01292D20959223909399
:1006D000F0019A2D9095892316C07C297093EA0128
:1006E0006D296093EB015E295093EC014F294093F3
:1006F000ED01302B3093EE01212B2093EF0199294E
:100700009093F0018A298093F10160914302643053
:1007100018F48B2D0E946E138B2D2EDE2091FA0182
:100720002C213091FB013D214091FC014E21509143
:10073000FD015F216091FE0160237091FF01712333
:10074000809100029091010289219A21A0E00E94EB
:10075000A222D9F18B2D0E94910D882E2091EA01C1
:100760002C213091EB013D214091EC014E21509123
:10077000ED015F216091EE0160237091EF01712323
:100780008091F0019091F10189219A21A0E0E091FE
:1007900005010E94A22221F0E1508E2F8F7001C02E
:1007A0008E2F90914802923020F440E0682D0E94F4
:1007B000BF0C80914802882331F040E0682D809181
:1007C00005010E94E70C8B2DF7DD9601A701B8010A
:1007D000892D9A2D01E00E94892269017A018B01FD
:1007E000982EA92EB39490E4B91209CF80914402B7
:1007F000882399F10E94D20DE82F809118029091E0
:100800000501882321F08FEF890F8F7001C0892F98
:100810004E2F50E0FA013197EA30F105F0F4EE592D
:10082000FF4F0C94832241E001C040E068E013C018
:1008300041E001C040E069E00EC041E001C040E09D
:100840006AE009C041E001C040E06BE004C041E063
:1008500001C040E06CE00E94BF0C80917504909153
:1008600076040E94082080ECE1E0F6E0DF011D92B2
:100870008A95E9F70E94C31480910201882339F018
:100880006ADDC5DD81E096E0C3D31092020181E00C
:10089000809374010F900F900F900F90DF91CF9184
:1008A0001F910F91FF90EF90DF90CF90BF90AF908E
:1008B0009F908F90089584B7877F84BF0FB6F89478
:1008C000A89580916000886180936000109260001C
:1008D0000FBE80E890E00FB6F8948093610090938B
:1008E00061000FBE85BF85BF27D13ED26AD20FD629
:1008F0000E94A00C0E94990C0E94FD1A0E94CF0D2C
:100900002FEF89EF90E0215080409040E1F700C048
:1009100000002ED76DD720910A02217030E040E010
:1009200050E060E070E080E090E0A0E00E94A22251
:1009300021F038D30E94B716FFCF0E94801D789413
:1009400080914D028093530286DD809175049091D1
:1009500076040E9423200E94B51F80917401882391
:1009600099F3A895F1CFF999FECF9F7092BD81BD03
:1009700060BDF894FA9AF99A78940895F999FECF9F
:1009800092BD81BDF89A80B50895EF92FF920F93C2
:100990001F93CF93DF936091050182E090E0E3DF46
:1009A0006091040183E090E0DEDF609144028AE020
:1009B00090E0D9DF6091480289E090E0D4DF609157
:1009C0004E0285E090E0CFDF609145028CE090E040
:1009D000CADF609142028DE090E0C5DF6091430282
:1009E0008EE090E0C0DF60914F028FE090E0BBDFCF
:1009F0006091520280E190E0B6DF60914C0281E1AB
:100A000090E0B1DF6091460282E190E0ACDF60915E
:100A10004B0283E190E0A7DF60914A0284E190E01D
:100A2000A2DF6091500285E190E09DDF609141027C
:100A300086E190E098DF60914D0287E190E093DFDE
:100A40006091510288E190E08EDFC1E8D4E00FE6CA
:100A500010E06991C80187DF0F5F1F4F0F3281E0FF
:100A60001807B9F793ECE92E96E0F92ECFEED1E016
:100A7000F70161917F01CE0176DF2196CF3AF2E056
:100A8000DF07B1F781E4E82E85E0F82EF7016191E8
:100A90007F01C80168DF0F5F1F4F0F3EF1E01F07A6
:100AA000A9F703E817E0F80161918F01CE015BDF40
:100AB0002196CF36F3E0DF07B1F7DF91CF911F9199
:100AC0000F91FF90EF90089561E080E090E04BDFA0
:100AD0008FEF80931C0192E0909305018FE7809344
:100AE000040121E0209344021092480210924E0229
:100AF0009093450291EF9093420294E090934302C9
:100B00009EE190934F028093520296E490934C02A0
:100B10009CE3909346022CE020934B0280934A0280
:100B20001092500280E480934102109251029093FF
:100B30004D020E94900E29CFEF92FF920F931F93C8
:100B4000CF93DF9380E090E019DF813009F0BCDFC4
:100B500081E090E013DF80931C0182E090E00EDFE3
:100B60008093050183E090E009DF809304018AE02F
:100B700090E004DF8093440289E090E0FFDE809300
:100B8000480285E090E0FADE80934E028CE090E02F
:100B9000F5DE809345028DE090E0F0DE8093420226
:100BA0008EE090E0EBDE809343028FE090E0E6DEA3
:100BB00080934F0280E190E0E1DE8093520281E178
:100BC00090E0DCDE80934C0282E190E0D7DE8093FF
:100BD000460283E190E0D2DE80934B0284E190E014
:100BE000CDDE80934A0285E190E0C8DE809350021A
:100BF00088E190E0C3DE8093510286E190E0BEDEA2
:100C00008093410287E190E0B9DE80934D028FE846
:100C100093E0B4DE8F3FC9F1C1E8D4E00FE610E005
:100C2000C801ACDE89930F5F1F4F0F3281E01807B8
:100C3000B9F793ECE92E96E0F92ECFEED1E0CE0194
:100C40009DDEF70181937F012196CF3AF2E0DF0725
:100C5000B1F781E4E82E85E0F82EC8018FDEF701B8
:100C600081937F010F5F1F4F0F3EF1E01F07A9F730
:100C700003E817E0CE0182DEF80181938F0121960F
:100C8000CF36F3E0DF07B1F70DC00E94900E7DDE96
:100C900060E08FE893E0DF91CF911F910F91FF907B
:100CA000EF9061CEDF91CF911F910F91FF90EF9068
:100CB00008951F920F920FB60F9211248F939F9356
:100CC000EF93FF9380EE9FEF9093850080938400D5
:100CD000E4E5F2E080819181009719F0019791831A
:100CE0008083329682E0EC35F807A1F780911A02F2
:100CF00081111CC080917501909176018B34910512
:100D000081F481E090E09093760180937501809169
:100D10005D0290915E02019690935E0280935D0267
:100D200005C00196909376018093750180915F02D2
:100D30009091600201969093600280935F0280918F
:100D40005A0290915B02892B31F480E190E09093FC
:100D50005B0280935A02FF91EF919F918F910F90C8
:100D60000FBE0F901F90189587E884B980EC87B963
:100D7000E4E6F0E08081877F808310928000E1E8E4
:100D8000F0E080818460808380818D7F808380819A
:100D90008E7F8083F89480E49EEF9093850080930B
:100DA0008400EFE6F0E0808181608083E4E5F2E09A
:100DB0001182108213821282158214821782168287
:100DC0000895EFE6F0E080818E7F80830895EFE65E
:100DD000F0E0808181608083089508950F931F93D0
:100DE000FC0190E0408151816281738140938401D4
:100DF00050938501609386017093870190FD33962F
:100E000088E140E050E060E870E0009184011091DA
:100E10008501209186013091870104231523262323
:100E200037232E9A012B022B032B21F00000000008
:100E3000000000002E98769567955795479581504C
:100E400021F79F5F903271F61F910F9108950F93D4
:100E50001F93FC0190E04081518162817381409336
:100E6000800150938101609382017093830190FD12
:100E7000339688E140E050E060E870E00091800146
:100E80001091810120918201309183010423152367
:100E900026233723469A012B022B032B21F0000037
:100EA0000000000000004698769567955795479595
:100EB000815021F79F5F903271F61F910F91089535
:100EC0000F931F93FC0190E04081518162817381F7
:100ED00040937C0150937D0160937E0170937F016C
:100EE00090FD339688E140E050E060E870E00091CA
:100EF0007C0110917D0120917E0130917F010423BE
:100F00001523262337232D9A012B022B032B21F0A7
:100F100000000000000000002D9876956795579519
:100F20004795815021F79F5F903271F61F910F9185
:100F300008950F931F93FC0190E0408151816281DD
:100F40007381409378015093790160937A01709393
:100F50007B0190FD339688E140E050E060E870E06E
:100F6000009178011091790120917A0130917B01F3
:100F700004231523262337232C9A012B022B032B22
:100F800021F000000000000000002C987695679585
:100F900057954795815021F79F5F903271F61F91C9
:100FA0000F9108950F931F93CF93DF93CDB7DEB7C3
:100FB000E0970FB6F894DEBF0FBECDBF80E38E0181
:100FC0000F5F1F4FF801982F11929A95E9F78983C7
:100FD0008F83888B8E8B898F8F8F88A78EA73E9A61
:100FE00084B1806784B9F894C801F8DEC8012FDFA6
:100FF000C80166DFC8019DDF7894E0960FB6F894CB
:10100000DEBF0FBECDBFDF91CF911F910F9108952D
:10101000CF93DF93EC013E9A84B1806784B9F89452
:10102000CE01DCDECE01C09612DFCE01805A9F4F8A
:1010300047DFCE0180579F4F7CDF7894DF91CF91BF
:10104000089540E450E062E070E088E891E00C949C
:10105000AE220F931F93CF93DF93809101018F5F97
:10106000883120F48093010180E057C01092010183
:101070009091000181E08927809300012AD68F7129
:10108000823110F401E001C00FEE080F80910001E1
:10109000E091D601F0E0EC52FE4F8083811102C056
:1010A000C0E001C0C7E015D6877012E0180F1830F5
:1010B00008F017E088E0189FF0011124E857FE4F70
:1010C000EC0FF11D8081823078F2C091D601C0838F
:1010D000D0E0FE01E853FE4F0083FBD5CE52DE4F39
:1010E0008F71885F88832091D60130E0F901E65343
:1010F000FE4F1083F901E253FE4F1082F901E053D5
:10110000FE4F1082F901E453FE4F10822F5F3F4FD4
:10111000217033272093D60181E0DF91CF911F9179
:101120000F910895CF93DF93E82F862FF0E0EF0122
:10113000C453DE4F98819F5FDF01A653BE4F3C91A1
:10114000A32FA61BA770B0E0A15EBE4F2C919217F3
:10115000B8F01882E253FE4F4081442311F09FEF14
:1011600001C091E0980F391768F497FF03C091E030
:10117000942703C031E0942F93279083288303C0E2
:10118000988301C0892FDF91CF910895282F862F52
:1011900030E0D901A053BE4F9C919F5FF901EE5200
:1011A000FE4F4081941790F0F901EC52FE4F2081E0
:1011B0001C92222311F09FEF01C091E0980F98300C
:1011C00038F091E0922790834C9308959C93089572
:1011D000892F0895CF93C62F7CD525E096958795C6
:1011E0002A95E1F78F7199278231910510F40196C4
:1011F00001C04197EC2FF0E0E853FE4F8083CF9180
:1012000008958F3F51F46F3F41F4809177018F5FD4
:101210008F3F39F08093770102C01092770180E010
:1012200008951092770181E008952F923F924F9296
:101230005F926F927F928F929F92AF92BF92CF9266
:10124000DF92EF92FF920F931F93CF93DF93CDB76F
:10125000DEB7C754D1090FB6F894DEBF0FBECDBFBD
:101260004C018091580290915902892B09F0ECC0F1
:1012700080E390E090935902809358029E012F5F83
:101280003F4F23963FAF2EAF239780E4F901119291
:101290008A95E9F748E8A42E41E0B42E412C212C90
:1012A0006501612CF6017080F1E0F71508F4BBC010
:1012B000662D872D6BDF382E642D872D33DF249626
:1012C0008FAF249728E0829FC001112488579E4F3A
:1012D000FC01E30DF11D2696FFAFEEAF269750807F
:1012E00011E0120DF1E0F51548F422E0F60120833B
:1012F0002696EEADFFAD2697708202C0751002C033
:10130000212E91C0662D842DABD628968FAF2897BD
:1013100027961FAF2797072D10E0E1E0F0E0EC0FD4
:10132000FD1FE00FF11F8081E52CF12C81114CC0D5
:10133000652D872D66DF8823E9F0CBD4682F637095
:1013400028968FAD28970E946E1322E0F601208325
:101350002696EEADFFAD269720832496FFAD249709
:10136000F41518F0361408F0CEC02A9427962FAE44
:1013700027972AC024962FAD2497421678F4F801B7
:10138000E253FE4F1082F701E253FE4F31E030830B
:10139000F801E453FE4F80EF808313C024969FAD85
:1013A0002497941588F4F801E253FE4F21E020833E
:1013B000F701E253FE4F1082F801E453FE4F30EF85
:1013C0003083652D872D06DF631478F4F801EC5225
:1013D000FE4F1082F701EC52FE4F81E08083F8014E
:1013E000E053FE4F90EF908310C0361488F4F8015C
:1013F000EC52FE4F21E02083F701EC52FE4F1082A9
:10140000F801E053FE4F30EF3083652D872DE2DE8B
:10141000E1E0F0E0EC0FFD1FEE0DFF1D81E08083A9
:1014200027962FAC279763949FEFC91AD90AE8E053
:101430006E1238CF4394F8E0AF0EB11C4E1230CF8D
:1014400021E0221508F005DE38E8E32E31E0F32E26
:10145000D12CC0902901B0902701A090280100E074
:1014600010E0602F8D2DFCD5F701E00FF11FE0811A
:1014700033E0839FC0011124E23038F0F401E80F1B
:10148000F91FC082B182A28218C0F0E0E853FE4F7B
:10149000E081F0E0D401A80FB91FCF01880F991F98
:1014A000E80FF91FE95DFE4F82818C9380811196D0
:1014B0008C931197818112968C930F5F1F4F083088
:1014C000110579F6D39488E0E80EF11C98E0D91262
:1014D000C6CFC95BDF4F0FB6F894DEBF0FBECDBFDE
:1014E000DF91CF911F910F91FF90EF90DF90CF9000
:1014F000BF90AF909F908F907F906F905F904F9034
:101500003F902F900895631408F082CF5FCF579AD1
:10151000569A3F98479A5F9A5E9A88E2E1E6F2E02F
:10152000DF011D928A95E9F785B5846085BD85B593
:101530008D7F85BD85B58E7F85BD8BED86BDEEE645
:10154000F0E0808181608083789410920A0210928A
:101550000B0210920C0210920D0210920E021092C9
:101560000F021092100210921102109202021092B9
:1015700003021092040210920502109206021092C9
:10158000070210920802109209021092FA011092BA
:10159000FB011092FC011092FD011092FE011092CD
:1015A000FF0110920002109201021092F2011092BB
:1015B000F3011092F4011092F5011092F6011092CD
:1015C000F7011092F8011092F90108951F920F92FD
:1015D0000FB60F9211247F928F929F92AF92BF927B
:1015E000CF92DF92EF92FF920F931F932F933F932F
:1015F0004F935F936F937F938F939F93AF93BF931B
:10160000CF93DF93EF93FF938BED86BD5E9A5E9849
:10161000E0E421E030E040E050E060E070E080E0B5
:1016200090E0D12CE12CF12C10E0D0E0C0E0B0E053
:10163000A0E05F98379909C0722E832E942EA52EB4
:10164000B62EC72E082FF92F08C0712C812C912C93
:10165000A12CB12CC12C00E0F0E0D728E828F92813
:101660001A29DB29CC29B02BAF2B01E00E9489225B
:101670005F9AE150F1F68091120290E0FC0123E0C4
:10168000EE0FFF1F2A95E1F7EF59FD4FD094E0943C
:10169000F0941095D095C095B095A095D082E18238
:1016A000F2821383D483C583B683A78301966AE04D
:1016B00070E00E94702280931202809102018111D9
:1016C0000CC08091E9018F5F8093E901893128F096
:1016D00081E0809302011092E901E5EFF3E044E03C
:1016E000E537F40749F080819FEF980F9E3F10F493
:1016F0008F5F80833196F3CF8091F1039091F20355
:101700009C01215031092E3F3F4F28F401969093C0
:10171000F2038093F1038091F3039091F4039C0111
:10172000215031092E3F3F4F28F401969093F40346
:101730008093F303FF91EF91DF91CF91BF91AF9130
:101740009F918F917F916F915F914F913F912F91D9
:101750001F910F91FF90EF90DF90CF90BF90AF90CF
:101760009F908F907F900F900FBE0F901F901895B5
:10177000EF92FF920F931F93CF93DF93E1E6F2E096
:101780005FEF4FEF3FEF2FEF7FEF6FEF9FEF8FEFA9
:10179000E080F18002811381D481C581B681A78167
:1017A00038965E214F21302321237D236C239B23F8
:1017B0008A23A2E0E13BFA0759F750930A024093CB
:1017C0000B0230930C0220930D0270930E02609373
:1017D0000F029093100280931102652F742F832FB4
:1017E000922FDF91CF911F910F91FF90EF9008956D
:1017F0007F928F929F92AF92BF92CF92DF92EF92A1
:10180000FF920F931F93CF93DF937090020200918A
:10181000030210910402D0910502C0910602B0911A
:101820000702F0910802E091090280900A0290906C
:101830000B02A0900C02B0900D02C0900E02D0904E
:101840000F02E0901002F0901102272D2095302F0A
:101850003095412F40955D2F50956C2F60957B2FD3
:1018600070958F2F80959E2F9095282139214A21A0
:101870005B216C217D218E219F212093F2013093E9
:10188000F3014093F4015093F5016093F6017093D6
:10189000F7018093F8019093F901A0E00E94A22241
:1018A00011F010925302782D7095692D60955A2D84
:1018B00050954B2D40953C2D30952D2D20959E2DEE
:1018C00090958F2D809577227092FA0106230093D0
:1018D000FB0115231093FC01D423D093FD01C323F6
:1018E000C093FE01B223B093FF01F923F0930002ED
:1018F000E823E09301028092020290920302A092F8
:101900000402B0920502C0920602D0920702E09251
:101910000802F0920902DF91CF911F910F91FF9081
:10192000EF90DF90CF90BF90AF909F908F907F907F
:10193000089580B38F7080BB8AB1806F8AB9089593
:1019400086E091E0909376048093750480E091E0C6
:10195000E1EFF2E0DF019C011D9221503040E1F700
:1019600080E8E5EFF3E0DF011D928A95E9F784E076
:10197000E1EFF3E0DF011D928A95E9F70895CF9337
:10198000DF9300D000D0CDB7DEB7411102C090E8A0
:1019900001C090E9292F22952F7029838F70982BF1
:1019A0009A836F776B83809104018F778C83BE015C
:1019B0006F5F7F4F80917504909176040E94E61FBF
:1019C0000F900F900F900F90DF91CF910895CF93CC
:1019D000DF9300D000D0CDB7DEB79BE099838F7046
:1019E000806B8A836F776B834F774C83BE016F5F09
:1019F0007F4F80917504909176040E94E61F0F90AE
:101A00000F900F900F90DF91CF910895CF93DF93B8
:101A100000D000D0CDB7DEB7611102C090E801C0A0
:101A200090E92091050130911802231B392F32953E
:101A30003F7039832F70922B9A838F778B8380919D
:101A400004018F778C83BE016F5F7F4F8091750497
:101A5000909176040E94E61F0F900F900F900F90C8
:101A6000DF91CF910895EF92FF920F931F93CF9341
:101A7000DF9300D000D0CDB7DEB78B01F82E81E028
:101A800094E0E92E93E09F15C0F4E982F80180818B
:101A90008A8381818B83319681810D5F1F4F8C8377
:101AA000BE016F5F7F4F80917504909176040E9414
:101AB000E61FFDEFFF0E80E0E5CFFF2039F195E056
:101AC0009983F80190819A831B821C82F2E0FF12B5
:101AD00006C086E08983F80181818B830EC0F3E024
:101AE000FF120BC0882311F0F98202C087E08983BE
:101AF000F80181818B8382818C83BE016F5F7F4F70
:101B000080917504909176040E94E61F0F900F90CB
:101B10000F900F90DF91CF911F910F91FF90EF9059
:101B200008958C5D089580911A02811107C010926A
:101B30005E0210925D0281E080931A028091190288
:101B4000833069F481E08093190280915D02909165
:101B50005E02019690935E0280935D0208958F5F0E
:101B6000809319020895882321F081E080931A025E
:101B7000089510921A020895BC0120E130E081E03E
:101B800090E0AB0148235923452B41F4880F991F5E
:101B900021503109B1F780E090E008950895109246
:101BA0001E020895EF92FF921F93CF93DF938091CF
:101BB000F2019091F3016091FA017091FB01409163
:101BC0000A0250910B02009729F46115710511F476
:101BD000C0E078C0C0911D02403F510591F4C23071
:101BE00081F022E020931D02C7DF009719F41092C4
:101BF0001D0204C090931C0280931B02C0911D0221
:101C000061C0AC2F2FEF2C0F253070F480911B0298
:101C100090911C0248235923452BD1F610921E02A5
:101C2000CB5FC0931D024EC010911E02E12FF0E069
:101C3000E654FE4F2491E4E02E9F90011124265F8C
:101C40003E4FC1E0D0E0F901B4911B1325C0F9016A
:101C50003196E491FE2FF07FEF70F03121F0F032F9
:101C600021F0DA0103C0DC0101C0DB017E0102C00A
:101C7000EE0CFF1CEA95E2F7AE21BF21AB2B41F041
:101C8000F901329644913196249120931D0207C0A8
:101C90002C5F3F4FA0E0D7CFA0931D0240E04093C0
:101CA0001E02C0911D02CC2309F492CF65DF00977C
:101CB00029F410921C0210921B0204C090931C0283
:101CC00080931B028C2FDF91CF911F91FF90EF909B
:101CD000089580911601909117019C01322F2227BF
:101CE0003295330F307E822793279C01232F332791
:101CF0002695822793279C013695322F22273795E8
:101D000027958227932790931701809316010895B2
:101D1000861724F048171CF4842F0895862F089501
:101D2000CF93DF93A1E8B4E0C3ECD6E0E1E4F5E0C3
:101D300080E31C9211961C92119712961C92129796
:101D4000188219828A831396239625E0A134B2075C
:101D500081F7A3E8B7E088E190E380838183828301
:101D60001C9211969C93119712961C92129733967F
:101D7000139626E0E130F20781F7DF91CF910895C5
:101D80002F923F924F925F926F927F928F929F928B
:101D9000AF92BF92CF92DF92EF92FF920F931F9379
:101DA000CF93DF9300D000D000D0CDB7DEB7E09165
:101DB000180280ECE89FF0011124B0910A02BB8365
:101DC00090900B0280900C0270900D0260900E02B9
:101DD00050900F024090100230901102CF018D53AD
:101DE000994F7C01EF57FB4FA1E0B6E0BD83AC8378
:101DF00080549F4F9A838983BB24B394C12CD12CE8
:101E000000E010E01E82212CA12C2B812B21392DEA
:101E10003C21482D4D21572D5023662D61237E8175
:101E20007521842D8221932D9A21A0E00E94A22267
:101E300091F0D70112968C91AC81BD818C93D70122
:101E40008C91AC81BD8111968C93D70111968C91A8
:101E5000AC81BD8109C08281AC81BD818C938081C0
:101E600011968C931197818112968C932B2D3C2D7A
:101E70004D2D502F612F7E81822D9A2D01E00E94E1
:101E80008922B22EC32ED42E052F162F7E83282E04
:101E9000A92EB3E0EB0EF11C33968C819D81039645
:101EA0009D838C83A981BA81EA16FB0609F0ADCF28
:101EB00026960FB6F894DEBF0FBECDBFDF91CF914F
:101EC0001F910F91FF90EF90DF90CF90BF90AF9058
:101ED0009F908F907F906F905F904F903F902F904A
:101EE0000895AF92BF92CF92DF92EF92FF920F933D
:101EF0001F93CF93DF936B01B0901802B294BB0C89
:101F0000BB0C30ECB3220B2D10E0015C1F4F40ECFA
:101F1000A42E56E0E52EF12C8B2D90E00817190722
:101F2000BCF1FC01EF50FD4F8081882379F1CB2D6E
:101F3000CF7393E0C99FE00111248937B0F490E09A
:101F40000197B7010E947022862F43E160E0815023
:101F5000DFDECC0DDD1D90E0FC01EE0FFF1F8E0FCC
:101F60009F1FFC01E95DFE4F0BC080911802FE012E
:101F7000A89EE00DF11D1124ED53F94FCC0DDD1D90
:101F8000828188838081898381818A83B394C4CF4D
:101F9000DF91CF911F910F91FF90EF90DF90CF9045
:101FA000BF90AF9008954091180250E0FA0176E09A
:101FB000EE0FFF1F7A95E1F7EF50FD4FE80FF11D8F
:101FC00090812FEF290F2837B8F0E0911F02F0E041
:101FD000EE0FFF1FE758FB4F90EC949F9001959FE9
:101FE000300D11242D53394FA90163E0869F400D18
:101FF000511D1124CA011BC0892F90E0019766E092
:1020000070E00E947022862F43E160E0815080DE04
:10201000E0911F02F0E0EE0FFF1FE758FB4F90E04A
:102020009C01220F331F820F931F895D9E4F918366
:1020300080830895E0912002F0E0E75DFD4F80810C
:102040008695869587700895E0912002F0E0E75D1F
:10205000FD4F9081892F8370903208F08C5F089536
:10206000883050F4683040F4880F880F643010F0E6
:102070006370605E860F08958FEF089520911F02B0
:1020800030E0F901E75DFD4F8083F901E85EFE4F26
:102090001082F901EB5DFD4F108285DF80E790E053
:1020A00090935B0280935A0208956F927F928F9271
:1020B0009F92AF92BF92CF92DF92EF92FF920F93D7
:1020C0001F93CF93DF936C01C0912002611108C070
:1020D000D0E0FE01E85EFE4F108111110BC056C02A
:1020E000EC2FF0E0E85EFE4F90819F5F9083983088
:1020F00078F34CC09FDF082FA7DFE02EE11A010F15
:10210000982E911AF12EF80E87E0891510F0892C7F
:1021100001C0812C7F2CA7E0AF1510F427E0722EB0
:10212000B7E0BE1510F01E2D01C010E0602E083083
:1021300010F097E0692ECC0FDD1FC758DB4FA88049
:10214000B980611618F1C82D7C1650F01E1551F09B
:10215000101741F0C91531F0CF1521F0CF5FF4CF42
:102160001F5FEFCF6C2F812F7BDF982F990F890F87
:10217000F601E80FF11DD50112968C91129780831C
:102180008C91818311968C918283E8CFDF91CF91DE
:102190001F910F91FF90EF90DF90CF90BF90AF9085
:1021A0009F908F907F906F90089520911F0230E054
:1021B000F901E75DFD4F8083F901E85EFE4F108273
:1021C000F901EB5DFD4F91E09083EDDE80E790E05B
:1021D00090935B0280935A020895481710F4841B71
:1021E00002C0481B842F261718F4621B262F01C03B
:1021F000261B820F08953F924F925F926F927F92BB
:102200008F929F92AF92BF92CF92DF92EF92FF9206
:102210000F931F93CF93DF936C0100912002611104
:1022200008C010E0F801E85EFE4FC081C1110BC08C
:1022300070C0E02FF0E0E85EFE4F90819F5F9083DA
:102240009E3078F366C0F6DEB82EFEDEA82E9B2CFC
:102250009C1A8C2E8B0C782E7C1A6C2E680E87E0C4
:10226000871510F0572C01C0512C462CA7E0A6155D
:1022700010F427E0422EB7E0B91510F0D92D01C0B7
:10228000D0E0382C87E0881510F497E0392E000F45
:10229000111FF801E758FB4FE080F180C13039F0A1
:1022A0000C2F0695043008F003E00C0F0DC001E080
:1022B0000BC0212F4D2F6A2D8B2D8FDF8C1740F4F3
:1022C0001F5F4116B0F7DF5F3D1618F1152DF9CFEE
:1022D000C81309C0D91549F0D81539F0171529F0D8
:1022E0001611EECF02C0081758F3612F8D2FB8DEFC
:1022F000982F990F890FF601E80FF11DD70112965B
:102300008C91129780838C91818311968C9182831A
:10231000D7CFDF91CF911F910F91FF90EF90DF907A
:10232000CF90BF90AF909F908F907F906F905F9075
:102330004F903F90089520911F0230E0F901E75D32
:10234000FD4F8083F901E85EFE4F1082F901EB5DDD
:10235000FD4F92E0908327DE80E790E090935B0250
:1023600080935A0208954F925F926F927F928F925C
:102370009F92AF92BF92CF92DF92EF92FF920F9314
:102380001F93CF93DF938C01C091200261111DC078
:10239000D0E0FE01E85EFE4FE080EE2009F4B7C019
:1023A00049DED82E51DEC82EBD2CBE18AE2CAD0C89
:1023B000982E9E188E2C880ECC0FDD1FC758DB4F31
:1023C0000990D881C02DF12C8DC0EC2FF0E0E85E93
:1023D000FE4F90819F5F90839B30D0F298C05B2C22
:1023E0005F0C6C2D852D3CDE803460F4982F990FA6
:1023F000890FF801E80FF11D8A818083888181832C
:1024000089818283692C6F0C662D842D29DE8034AE
:1024100060F4982F990F890FF801E80FF11D8A8158
:1024200080838881818389818283782C7F18672DBE
:10243000842D16DE803460F4982F990F890FF801EF
:10244000E80FF11D8A81808388818183898182835D
:10245000662D852D05DE803460F4982F990F890F45
:10246000F801E80FF11D8A81808388818183898149
:102470008283672D852DF4DD803460F4982F990FC9
:10248000890FF801E80FF11D8A818083888181839B
:1024900089818283662D8D2DE3DD803460F4982F51
:1024A000990F890FF801E80FF11D8A8180838881D7
:1024B000818389818283672D8D2DD2DD803460F404
:1024C000982F990F890FF801E80FF11D8A818083F9
:1024D0008881818389818283F394EF14C1F083E042
:1024E000F816A9F04A2C4F186C2D842DB9DD8034D4
:1024F00008F075CF982F990F890FF801E80FF11D9B
:102500008A818083888181838981828368CFDF91FA
:10251000CF911F910F91FF90EF90DF90CF90BF90E0
:10252000AF909F908F907F906F905F904F900895A5
:1025300020911F0230E0F901E75DFD4F8083F90132
:10254000E85EFE4F1082F901EB5DFD4F93E0908352
:102550002ADD80E790E090935B0280935A02089511
:102560008F929F92AF92BF92CF92DF92EF92FF92A3
:102570000F931F93CF93DF938C01E09020026111A2
:1025800008C0F12CF701E85EFE4FC081C1110BC0FD
:1025900098C0EE2DF0E0E85EFE4F90819F5F908343
:1025A0009F3078F38EC046DDB82E4EDDA82ECB2CA2
:1025B000CC1AC394BC0ECC0FC250DC2ED094D80ED3
:1025C000CF5FC80F87E08D1510F08D2C01C0812CD6
:1025D000A7E0AC1510F0DC2D01C0D0E09B2CB7E0DB
:1025E000BB1510F497E0992EF701EE0FFF1FE75887
:1025F000FB4FE080F180DC1561F1B9102FC06A2D2E
:10260000892D2EDD982F990F890FF801E80FF11D04
:10261000D70112968C91129780838C9181831196A9
:102620008C9182831BC0881540F3682D8D2F18DD97
:10263000982F990F890FF801E80FF11DD701129615
:102640008C91129780838C91818311968C918283D7
:1026500083948C2FC83038F387E0E5CFCC0DCD1BA9
:10266000DC189D1670F16D2D6D0F683090F48D2F74
:10267000F7DC982F990F890FF801E80FF11DD701AA
:1026800012968C91129780838C91818311968C91F4
:102690008283C83098F46C2F8D2FE2DC982F990F2D
:1026A000890FF801E80FF11DD70112968C9112974E
:1026B00080838C91818311968C918283DF5FC150DE
:1026C000D0CFDF91CF911F910F91FF90EF90DF90CE
:1026D000CF90BF90AF909F908F9008952091560219
:1026E00030915702232B31F420E730E0309357022A
:1026F00020935602613039F040F0623041F063308F
:1027000039F416DF05C051DD03C0B8DC01C013DEAB
:1027100080911F0290E001968370992780931F0299
:102720000895CF92DF92EF92FF920F931F93CF9372
:10273000DF937B018091560290915702892B41F4DF
:1027400080E790E0909357028093560211E001C019
:1027500010E085E2C82E82E0D82EC8E1D1E000E08A
:1027600000932002F60181916F01811107C08881D9
:102770008830F0F4612FC70198DC1AC0823038F439
:1027800088818E30A8F4612FC70135DD11C08230F9
:1027900039F488818B3060F4612FC701E4DD08C013
:1027A000833031F488818F3018F4612FC701D8DE6F
:1027B0000F5F21960430A1F6DF91CF911F910F9109
:1027C000FF90EF90DF90CF90089528E030E0A901CE
:1027D000481B510921E030E002C0220F331F4A9507
:1027E000E2F780915D0290915E022823392381E017
:1027F000232B09F480E0089520911A0260915D0274
:1028000070915E0290E0211106C034E0660F771FE0
:102810003A95E1F705C025E0660F771F2A95E1F7A5
:1028200028E030E0A901481B590B02C07695679556
:102830004A95E2F770E080E090E00E94EA2029E308
:1028400034EB48E45DE30E9476210E94D92120E028
:1028500030E04EEF52E40E94762120E030E04EEF6F
:1028600052E40E9458200E94BC20862F0895AF9207
:10287000BF92CF92DF92EF92FF920F931F93CF936D
:10288000DF938B01811180E4F82EC82FD0E05E0128
:102890002FE3A20EB11C8F2D90E0A816B9060CF400
:1028A00067C0FC01EF58FC4F6F018081823108F452
:1028B0005DC0FF2DFF73EF2E823230F5F80123E06B
:1028C000E29EE00DF11D112482514081218162813F
:1028D000489FA001112494E0559547959A95E1F7FA
:1028E0004083829F9001112444E0359527954A95B5
:1028F000E1F72183869FC001112454E095958795C7
:102900005A95E1F7828332C08A3270F481525DDFDA
:1029100081112CC0F80133E0E39EE00DF11D11247C
:1029200010821182128222C08233C0F4E80193E047
:10293000F99FC00DD11D112489525EDF4881298184
:102940009A81489FA00111245883829F90011124ED
:102950003983899FC00111249A8308C0863330F4DB
:102960006EEC680F8F2FBADEF6011082F39493CFCE
:10297000DF91CF911F910F91FF90EF90DF90CF905B
:10298000BF90AF900895FCD961E076E08091180285
:10299000A8DA61E076E08091180269DF80915F0239
:1029A00090916002803D974090F0109260021092EA
:1029B0005F0280915C028F5F80935C028C3338F001
:1029C000809153028F5F8093530210925C0280913A
:1029D0004D02882369F190915302891307C00E9428
:1029E0002108809153028F5F80935302909153028C
:1029F00080914D02891720F481E096E00E9415092C
:102A00002091F2013091F3014091F4015091F501D0
:102A10006091F6017091F7018091F8019091F901B0
:102A2000A0E00E94A22221F010925C0210925302B8
:102A300061E076E08091180274CEEF92FF920F93DE
:102A40001F93CF93DF9350E0460F511D20EC829FE0
:102A5000C0011124DC01AF57BB4FC62FD0E0C41713
:102A6000D5070CF095C0FD01EC0FFD1F90817E0194
:102A70008FEFE81AF80AFD01EE0DFF1D20818E018F
:102A80000E5F1F4FFD01E00FF11F808191111EC0ED
:102A900021110BC0882309F44EC0803309F476C09D
:102AA000813808F04AC0EEE05BC0811108C02033D5
:102AB00009F46CC0213808F042C0EAE051C02E3160
:102AC00009F464C02138E8F5ECE04AC0211110C0D7
:102AD000811107C0903309F459C09138A0F5E2E0A4
:102AE0003FC0943209F452C0913878F5E2E138C021
:102AF000811119C0921738F4203209F447C02138E7
:102B000030F5E8E02DC0892F8695821730F0983295
:102B1000E9F19138F0F4E4E023C09032B9F1913852
:102B2000D0F4E6E01DC02532C0F4803279F191384E
:102B3000B0F4E0E115C0E0E013C0EDE011C0E9E061
:102B40000FC0EBE00DC0E1E00BC0E1E109C0E7E040
:102B500007C0E3E005C0E5E003C0E3E101C0EFE04A
:102B6000F0E0CA0FDB1FCF01880F991FE80FF91F94
:102B7000E95DFE4F80818883ED01CE0DDF1D8181EF
:102B80008883ED01C00FD11F828188836D5F65CF7F
:102B9000DF91CF911F910F91FF90EF900895EF92E9
:102BA000FF920F931F93CF93DF9350E0460F511D79
:102BB00020EC829FC0011124DC01AD53B94FC62F18
:102BC000D0E0C417D5070CF095C0FD01EC0FFD1F38
:102BD00090817E018FEFE81AF80AFD01EE0DFF1DCE
:102BE00020818E010E5F1F4FFD01E00FF11F8081DC
:102BF00091111EC021110BC0882309F44EC08033EF
:102C000009F476C0813808F04AC0EEE05BC081115B
:102C100008C0203309F46CC0213808F042C0EAE053
:102C200051C02E3109F464C02138E8F5ECE04AC007
:102C3000211110C0811107C0903309F459C0913897
:102C4000A0F5E2E03FC0943209F452C0913878F523
:102C5000E2E138C0811119C0921738F4203209F42A
:102C600047C0213830F5E8E02DC0892F86958217BE
:102C700030F09832E9F19138F0F4E4E023C090327A
:102C8000B9F19138D0F4E6E01DC02532C0F48032AD
:102C900079F19138B0F4E0E115C0E0E013C0EDE067
:102CA00011C0E9E00FC0EBE00DC0E1E00BC0E1E1D5
:102CB00009C0E7E007C0E3E005C0E5E003C0E3E1E9
:102CC00001C0EFE0F0E0CA0FDB1FCF01880F991FB2
:102CD000E80FF91FE95DFE4F80818883ED01CE0D7D
:102CE000DF1D81818883ED01C00FD11F8281888320
:102CF0006D5F65CFDF91CF911F910F91FF90EF90A6
:102D00000895292F33272230310559F0233031051A
:102D100069F02130310519F582E190E02AEA32E0CC
:102D200022C085E690E025E432E01DC0992781307D
:102D3000910561F040F08230910559F0039779F4E4
:102D4000EFEDF1E008C0E1E4F2E005C0E5E1F2E01A
:102D500002C0E3EFF1E0849190E09F0104C080E0C5
:102D600090E020E030E0FA0131832083089570D6AE
:102D7000F89480E0EFEFF9EF3197F1F700C0000031
:102D80008F5F8038B9F78AEC9CEAA2E4BCED8093AF
:102D9000900890939108A0939208B09393089CE0B8
:102DA00088E10FB6F894A895809360000FBE9093C9
:102DB0006000FFCFCF93DF93CDB7DEB761970FB63B
:102DC000F894DEBF0FBECDBF909140029430B9F4AD
:102DD000882381F1E09143089FEF9E0F983050F5D2
:102DE000F0E0EE0FFF1FE25DFD4F0190F081E02D5E
:102DF000309701F164E478E0815009951BC093306D
:102E0000C9F48230B8F080914308863099F48091FB
:102E10004408813079F481E1E3E6F1E0DE011196C6
:102E200001900D928A95E1F7BE016F5F7F4F81E1BE
:102E30000E94330D61960FB6F894DEBF0FBECDBF72
:102E4000DF91CF9108959FEF980F983040F4E82FCD
:102E5000F0E0EE0FFF1FE25DFD4F71836083089588
:102E6000FC0180912F0281111EC081E080932F020E
:102E700083E498E090932E0280932D028181803F1D
:102E8000C9F482818E3749F48381909103018917B7
:102E900011F08F3779F483E00EC081110BC083816C
:102EA000813041F408C0809140028130C1F48181B9
:102EB000893721F082E0809340020895A0912D028D
:102EC000B0912E02CD01029620911D0130911E017C
:102ED0008217930778F784E0809340021AC082300B
:102EE00061F1A0912D02B0912E02CD0103962091A7
:102EF0001D0130911E0182179307E0F6029790930F
:102F00002E0280932D0281818C93A0912D02B0918D
:102F10002E02CD01019690932E0280932D02828184
:102F20008C93A0912D02B0912E02CD010196909329
:102F30002E0280932D0283818C930895FC011092C0
:102F40002F02809140028130A9F48181893709F0F4
:102F500046C0A0912D02B0912E02CD010296209183
:102F60001D0130911E0182179307C8F584E08093FC
:102F700040021AC0823099F1A0912D02B0912E0228
:102F8000CD01039620911D0130911E0182179307F8
:102F900030F5029790932E0280932D0281818C93BD
:102FA000A0912D02B0912E02CD01019690932E0298
:102FB00080932D0282818C93A0912D02B0912E02DC
:102FC000CD01019690932E0280932D0283818C93E4
:102FD00080912D0290912E0283549840EBDE109246
:102FE0004002089520912F02222391F110922F0286
:102FF00020914002223051F1A0912D02B0912E0279
:103000009D012E5F3F4F40911D0150911E012417DD
:103010003507E0F4FC01CD01019690932E028093D8
:103020002D0281818C93A0912D02B0912E02CD01B1
:10303000019690932E0280932D0282818C93809131
:103040002D0290912E0283549840B4DE10924002DB
:10305000089520912F02222321F110922F02209116
:1030600040022230E1F0A0912D02B0912E029D018C
:103070002F5F3F4F40911D0150911E0124173507CE
:1030800070F4FC0130932E0220932D0281818C93E9
:1030900080912D0290912E02835498408BDE1092E5
:1030A000400208952F923F924F925F926F927F92CB
:1030B0008F929F92AF92BF92CF92DF92EF92FF9248
:1030C0000F931F93CF93DF93CDB7DEB7A3970FB6C0
:1030D000F894DEBF0FBECDBF833008F4EAC0FB0119
:1030E00090810181911160C0863008F4E2C0002314
:1030F00009F4DFC06281662309F4DBC0448190E0FB
:103100000497242F30E0281739070CF0D2C0613122
:1031100008F0CFC0359670E061507109CB01A3E093
:1031200095958795AA95E1F7677028E1629F602DD4
:1031300011240130D9F420EC289FD001299FB00D33
:1031400011247D01E60EF11C20E030E0241760F42C
:10315000519189010E0D1F1D0F571B4F550FD8019F
:103160005C932F5F3F4FF2CF68DCA3C0023009F0C1
:10317000A0C020EC289FD001299FB00D11247D0113
:10318000E60EF11C20E030E0241760F45191890133
:103190000E0D1F1D0D53194F550FD8015C932F5F56
:1031A0003F4FF2CFFCDC85C0913009F082C0013086
:1031B00041F0023009F07DC0E3ECCE2EE6E0DE2ED9
:1031C00004C071E8C72E74E0D72E99249394A12CE3
:1031D000B12C20E8E22EFF24F3942224239439E733
:1031E000332E44E0542E50E1852E17EF60E3662E17
:1031F000712C9701B9E1EB16F10410F028E130E0F1
:1032000058E1E51AF10880EF89831A822B823C820B
:103210005D821E820F8398868986422E2A871B87AD
:103220001C871D871E871F87188B198B1A8B1B8B7A
:103230001C8B1D8B1E8B1F8B188F198F1A8F1B8F4A
:103240001C8F1D8F1E8F1F8F18A319A31AA31BA3DA
:10325000F601EA0DFB1D4AE0265F3F4F5F01AC1807
:10326000BD08642F70E06217730798F48191AA2457
:10327000A394B12CAC0EBD1EA60EB71EAFE78A9F5D
:10328000C0011124B3010E945C22D5016C934F5FF1
:10329000E5CFBE016F5F7F4F8BE0840D0E94330D41
:1032A0008091750490917604B3D69394B1E19B120A
:1032B000A0CFA3960FB6F894DEBF0FBECDBFDF91AF
:1032C000CF911F910F91FF90EF90DF90CF90BF9023
:1032D000AF909F908F907F906F905F904F903F90B6
:1032E0002F900895FC0190E050E041505109292FA2
:1032F00030E02417350794F4DB01A20FB31F2C91A3
:10330000283150F481E0890FDB01A80FB11D8C91A9
:10331000DF01A20FB11D8C939E5FE9CF0895CF937B
:10332000DF93CDB7DEB7AD970FB6F894DEBF0FBE13
:10333000CDBF80EF89831A8281E08B8399E79C83DC
:1033400092E09D838E831F82909105019F5F9887F5
:103350008987809104018A8783E08B8780914E0260
:103360008C8787E08D87809148028E8788E08F87E1
:1033700080914402888B8AE0898B809143028A8BFA
:103380008BE08B8B80914202982F93709C8B9CE0FA
:103390009D8B82958F708E8B8DE08F8B80914502F7
:1033A0008150888F8EE0898F80914F028A8F8FE0C5
:1033B0008B8F809152028C8F80E18D8F80914C0297
:1033C0008E8F81E18F8F8091460288A382E189A34D
:1033D00080914B028AA383E18BA380914A028CA344
:1033E00084E18DA3809150028EA385E18FA380910B
:1033F000410288A786E189A780914D028AA787E1CB
:103400008BA7809151028CA787EF8DA7BE016F5FBC
:103410007F4F8DE20E94330DAD960FB6F894DEBF5C
:103420000FBECDBFDF91CF9108951F93CF93DF9350
:10343000CDB7DEB768970FB6F894DEBF0FBECDBF2D
:10344000109151020FB6F894A89590916000986180
:1034500090936000109260000FBEFE01319698E1DB
:10346000DF011D929A95E9F7482FCF013BDF898153
:103470008150809305018A81809304018C8180931F
:103480004E028885809348028985809344028B850B
:10349000809343028D85B0E18B9FC00111249C85F0
:1034A000892B809342028E858F5F809345028F85A2
:1034B00080934F02898980934C028A8980934602C7
:1034C0008B8980934B028D89809350028E898093E3
:1034D00041028F8980934D02888D80935102181785
:1034E00021F0811102C00E94EA0163E080E0F6D879
:1034F0000E94C50414DF0E949C059FE088E10FB67E
:10350000F894A895809360000FBE90936000689631
:103510000FB6F894DEBF0FBECDBFDF91CF911F91E4
:103520000895882329F0FB018081811101C0F7CE25
:103530000895882309F460C0FB018081813019F06F
:10354000823079F008950FB6F894A89580916000C4
:10355000886180936000109260000FBE0E94D207C5
:1035600006CC0FB6F894A89580916000886180938E
:103570006000109260000FBE0E9464054FEF5FEF85
:103580006FEF70E08FEF9FEF0E94ED062FEF81EE5F
:1035900094E0215080409040E1F700C000004FEFE0
:1035A0005FEF6FEF70E080E090E00E94ED062FEF9C
:1035B00081EE94E0215080409040E1F700C000008F
:1035C0004FEF5FEF6FEF70E08FEF9FEF0E94ED0620
:1035D0002FEF81EE94E0215080409040E1F700C051
:1035E00000009DDE9FE088E10FB6F894A8958093D7
:1035F00060000FBE90936000089565E17AE181E07C
:1036000022DC61E97AE182E01EDC69E97AE183E0AB
:103610001ADC62E578E184E016CCCF92DF92EF927B
:10362000FF920F931F93CF93DF93EC018B017A01ED
:10363000DCD1811133C0E114F10439F0F70180814C
:103640009181081B190BC80FD91FC12CD12C011552
:10365000110519F18091E80085FD16C08091E80000
:103660008E778093E80081D4E114F10449F0F701EA
:1036700080819181C80ED91ED182C08285E00EC0A2
:10368000B4D1882321F30AC089918093F1000150BD
:103690001109FFEFCF1ADF0ADACF80E0DF91CF9177
:1036A0001F910F91FF90EF90DF90CF900895CF92F0
:1036B000DF92EF92FF920F931F93CF93DF93EC0172
:1036C0008B017A0192D1811133C0E114F10439F0F8
:1036D000F70180819181081B190BC80FD91FC12CDC
:1036E000D12C0115110519F18091E80085FD16C056
:1036F0008091E8008B778093E80037D4E114F104DF
:1037000049F0F70180819181C80ED91ED182C08213
:1037100085E00EC06AD1882321F30AC08091F100B0
:10372000899301501109FFEFCF1ADF0ADACF80E049
:10373000DF91CF911F910F91FF90EF90DF90CF908D
:10374000089520918E0830918F082617370748F08A
:103750006115710539F42091E8002E772093E80077
:1037600001C0B901FC0120E06115710591F1809162
:103770008708882309F440C0853009F43FC0809150
:10378000E80083FD3DC08091E80082FD2FC080915C
:10379000E80080FFE9CF2091F3008091F20090E0F3
:1037A000922B6115710551F08034910538F4219107
:1037B0002093F100615071090196F3CF21E080342C
:1037C000910509F020E08091E8008E778093E80071
:1037D000CBCF2111CCCF0AC080918708882361F01C
:1037E000853061F08091E80083FD0AC08091E80097
:1037F00082FFF2CF80E0089582E0089583E008958B
:1038000081E0089520918E0830918F0826173707A0
:1038100048F06115710539F42091E8002E77209366
:10382000E80001C0B901FC0120E06115710599F1C2
:1038300080918708882309F441C0853009F440C08D
:103840008091E80083FD3EC08091E80082FD30C099
:103850008091E80080FFE9CF2091F3008091F20091
:1038600090E0922B6115710559F08034910540F478
:1038700024912093F1003196615071090196F2CFA5
:1038800021E08034910509F020E08091E8008E77F6
:103890008093E800CACF2111CBCF0AC0809187085E
:1038A000882361F0853061F08091E80083FD0AC0D3
:1038B0008091E80082FFF2CF80E0089582E00895D1
:1038C00083E0089581E00895982F973068F59093EC
:1038D000E900981739F07091EC002091ED005091BB
:1038E000F00003C0242F762F50E021FD02C09F5F1F
:1038F000ECCF3091EB003E7F3093EB003091ED0048
:103900003D7F3093ED003091EB0031603093EB0060
:103910007093EC002093ED005093F0002091EE00A6
:1039200027FDE5CF80E008958F708093E90081E066
:1039300008950F931F93CF93DF93062FEC0110E0B0
:10394000101771F16881611103C01F5F2596F8CFD0
:103950002C81A981BA819B81862F8F70873010F0CE
:1039600080E01FC0223010F442E001C046E0E8E0F1
:10397000F0E020E0EA17FB0720F42F5FEE0FFF1FB7
:10398000F9CF2295207F422B50E4959F900111247E
:10399000661F6627661F622B97DF8111D6CFE0CFA7
:1039A00081E0DF91CF911F910F9108958091880858
:1039B00087FF11C08091E80082FD05C080918708D3
:1039C0008111F8CF11C08091E8008B770BC08091F6
:1039D0008708882349F08091E80080FFF8CF809124
:1039E000E8008E778093E80008952091E4003091FC
:1039F000E50095E64091EC00842F817040FF23C0E4
:103A00008091E80080FD1DC080918708882399F08F
:103A1000853099F08091EB0085FD11C04091E40064
:103A20005091E5002417350729F3915011F09A01C0
:103A3000E1CF84E0089582E0089583E0089581E075
:103A4000089580E008954091E80042FFDDCF089599
:103A500067D06ED0E0EEF0E0808181608083E8ED99
:103A6000F0E080818F77808319BCA7EDB0E08C9166
:103A70008E7F8C9380818F7E80831092860808953C
:103A80000F931F93CF93DF934BD052D0C8EDD0E06C
:103A900088818F77888388818068888388818F7DFB
:103AA000888319BC109287081092830810928508A9
:103AB0001092840800EE10E0F80180818B7F8083F3
:103AC00088818160888342E360E080E0FDDEE1EE92
:103AD000F0E080818E7F8083E2EEF0E08081816083
:103AE0008083808188608083F80180818E7F8083DD
:103AF000888180618883DF91CF911F910F91089514
:103B0000E8EDF0E080818F7E8083E7EDF0E080815A
:103B10008160808384E082BF81E080938608B0CF9B
:103B2000E8EDF0E080818E7F80831092E2000895BE
:103B30001092DA001092E10008951F920F920FB6D2
:103B40000F9211242F933F934F935F936F937F9323
:103B50008F939F93AF93BF93EF93FF938091E10077
:103B600082FF0AC08091E20082FF06C08091E100DE
:103B70008B7F8093E100F8D18091DA0080FF1FC035
:103B80008091D80080FF1BC08091DA008E7F8093E7
:103B9000DA008091D90080FF0DC080E189BD82E10B
:103BA00089BD09B400FEFDCF81E0809387080E94A3
:103BB000950105C019BC109287080E94960180915A
:103BC000E10080FF18C08091E20080FF14C0809166
:103BD000E2008E7F8093E2008091E200806180931A
:103BE000E2008091D80080628093D80019BC85E003
:103BF00080938708B9D18091E10084FF2FC0809124
:103C0000E20084FF2BC080E189BD82E189BD09B457
:103C100000FEFDCF8091D8008F7D8093D8008091E9
:103C2000E1008F7E8093E1008091E2008F7E80939F
:103C3000E2008091E20081608093E200809183083D
:103C4000882311F084E007C08091E30087FD02C063
:103C500081E001C083E08093870886D18091E100F4
:103C600083FF22C08091E20083FF1EC08091E100AB
:103C7000877F8093E10082E0809387081092830819
:103C80008091E1008E7F8093E1008091E2008E7F41
:103C90008093E2008091E20080618093E20042E341
:103CA00060E080E011DE60D1FF91EF91BF91AF91B4
:103CB0009F918F917F916F915F914F913F912F9144
:103CC0000F900FBE0F901F9018951F93CF93DF9307
:103CD000CDB7DEB7AA970FB6F894DEBF0FBECDBF43
:103CE000E8E8F8E08091F100819328E0E039F207FC
:103CF000C9F73AD18091E80083FF1EC180918808FE
:103D000090918908492F50E04A30510508F014C1BC
:103D1000FA01E459FF4FF7C3803881F0823809F087
:103D20000BC180918C088F708093E9008091EB002B
:103D300085FB882780F91092E90006C080918408ED
:103D400090918508911182609091E800977F9093FF
:103D5000E8008093F1001092F100C5C0282F2D7F5C
:103D600009F0EAC0882319F0823061F0E5C0809143
:103D70008A08813009F0E0C0933009F080E0809338
:103D800085082BC080918A08811127C080918C08FA
:103D90008F7009F4D1C08093E9002091EB0020FFDF
:103DA0001CC0933021F48091EB00806214C090918C
:103DB000EB0090619093EB0021E030E0A90102C09C
:103DC000440F551F8A95E2F74093EA001092EA00EB
:103DD0008091EB0088608093EB001092E900809165
:103DE000E800877F83C08111A7C010918A081F77E0
:103DF0008091E3008078812B8093E3008091E8003C
:103E0000877F8093E800D2DD8091E80080FFFCCFBF
:103E10008091E30080688093E300111102C082E08A
:103E200001C083E08093870887C08058823008F003
:103E300083C080918A0890918B088C3D53E0950750
:103E400071F583E08A838AE289834FB7F894DE01B3
:103E5000139620E03EE051E2E32FF0E0509357004C
:103E6000E49120FF03C0E295EF703F5FEF708E2F6B
:103E700090E0EA3010F0C79601C0C0968D939D93F4
:103E80002F5F243149F74FBF8091E800877F8093EF
:103E9000E8006AE270E0CE01019653DC13C0AE0187
:103EA0004F5F5F4F60918C080E948116BC01892B87
:103EB00009F442C09091E800977F9093E8008981CF
:103EC0009A81A0DC8091E8008B778093E80034C071
:103ED000803891F58091E800877F8093E800809199
:103EE00083088093F1008091E8008E778093E8004A
:103EF0005DDD22C0811120C080918A0890918B08DD
:103F000099270297CCF48091E800877F8093E8009E
:103F100080918A088093830849DD8091830881110C
:103F200006C08091E30087FD02C081E001C084E00B
:103F3000809387080E9497018091E80083FF0AC060
:103F40008091E800877F8093E8008091EB00806299
:103F50008093EB00AA960FB6F894DEBF0FBECDBFDC
:103F6000DF91CF911F9108950895CF938091870895
:103F7000882399F0C091E900CF709091EC00892FCF
:103F8000817090FD80E8C82B1092E9008091E800D4
:103F900083FD9BDECF70C093E900CF910895CF934E
:103FA000DF93EC011B8682E08C83898761E0CE0180
:103FB0000196BFDC882331F061E0CE010696DF91E7
:103FC000CF91B7CC80E0DF91CF9108952091870801
:103FD0002430D1F49B01FC0181818F708093E90032
:103FE00040E050E064E070E0C90117DB81110FC0D0
:103FF0009091E800892F807295FD08C09091E800AB
:104000009E779093E800089582E0089580E00895F7
:1040100020918708243099F4FC0181818F7080936E
:10402000E9002091F3008091F20090E0922B892B1F
:1040300041F08091E8008E778093E800D6CC82E052
:10404000089580E00895FC0180918708843051F440
:1040500091819F709093E9008091E80080FF02C0F9
:10406000CF01D6CF089520918708243011F080E049
:104070000895FC0186818F708093E9008091E800AB
:1040800082FFF5CF8091E80085FFF1CFCB0140E0C2
:1040900050E064E070E00BDB8091E80085FD05C036
:1040A0008091E8008B778093E80081E00895505874
:1040B000BB27AA270ED0E0C0D1D030F0D6D020F058
:1040C00031F49F3F11F41EF4C6C00EF4E095E7FBF7
:1040D000BCC0E92FE2D080F3BA17620773078407E8
:1040E000950718F071F49EF5FAC00EF4E0950B2ECA
:1040F000BA2FA02D0B01B90190010C01CA01A0013A
:104100001124FF27591B99F0593F50F4503E68F194
:104110001A16F040A22F232F342F4427585FF3CFD5
:10412000469537952795A795F0405395C9F77EF4A6
:104130001F16BA0B620B730B840BBAF09150A1F0EF
:10414000FF0FBB1F661F771F881FC2F70EC0BA0F75
:10415000621F731F841F48F4879577956795B795FD
:10416000F7959E3F08F0B3CF9395880F08F09927F5
:10417000EE0F97958795089598D088F09F5790F007
:10418000B92F9927B751A0F0D1F0660F771F881F7C
:10419000991F1AF0BA95C9F712C0B13081F09FD0BB
:1041A000B1E008959CC0672F782F8827B85F39F059
:1041B000B93FCCF3869577956795B395D9F73EF4DB
:1041C00090958095709561957F4F8F4F9F4F089583
:1041D000E89409C097FB3EF49095809570956195A1
:1041E0007F4F8F4F9F4F9923A9F0F92F96E9BB2757
:1041F0009395F695879577956795B795F111F8CFD3
:10420000FAF4BB0F11F460FF1BC06F5F7F4F8F4F3D
:104210009F4F16C0882311F096E911C0772321F033
:104220009EE8872F762F05C0662371F096E8862FCB
:1042300070E060E02AF09A95660F771F881FDAF722
:10424000880F9695879597F9089597F99F6780E865
:1042500070E060E008959FEF80EC089500240A94D8
:104260001616170618060906089500240A94121651
:104270001306140605060895092E0394000C11F484
:10428000882352F0BB0F40F4BF2B11F460FF04C031
:104290006F5F7F4F8F4F9F4F089557FD9058440F8A
:1042A000551F59F05F3F71F04795880F97FB991F95
:1042B00061F09F3F79F08795089512161306140652
:1042C000551FF2CF4695F1DF08C0161617061806DF
:1042D000991FF1CF86957105610508940895E894BA
:1042E000BB2766277727CB0197F908950BD0C4CF5A
:1042F000B5DF28F0BADF18F0952309F0A6CFABCFD1
:104300001124EECFCADFA0F3959FD1F3950F50E0B3
:10431000551F629FF001729FBB27F00DB11D639F77
:10432000AA27F00DB11DAA1F649F6627B00DA11D1D
:10433000661F829F2227B00DA11D621F739FB00DC3
:10434000A11D621F839FA00D611D221F749F332733
:10435000A00D611D231F849F600D211D822F762FCC
:104360006A2F11249F5750408AF0E1F088234AF0C9
:10437000EE0FFF1FBB1F661F771F881F9150504015
:10438000A9F79E3F510570F060CFAACF5F3FECF3D5
:10439000983EDCF3869577956795B795F795E79501
:1043A0009F5FC1F7FE2B880F911D9695879597F912
:1043B00008959F9305D00F9007FCEE5F28C04BCF68
:1043C00074DFE8F3E894E0E0BB279F57F0F02AEDB4
:1043D0003FE049EC06C0EE0FBB0F661F771F881F3A
:1043E00028F0B23A62077307840728F0B25A620BCA
:1043F000730B840BE3959A9572F7803830F49A9595
:10440000BB0F661F771F881FD2F7904813C0EF932A
:10441000E0FF06C0A2EA2AED3FE049EC5FEB59DE7F
:104420002BDF0F90039401FC9058ECEEF0E00EC0EF
:104430009F3F31F0915020F4879577956795B79518
:10444000880F911D9695879597F908959F938F935F
:104450007F936F93FF93EF939B01AC0147DFEF9145
:10446000FF9105D02F913F914F915F913FCFDF9307
:10447000CF931F930F93FF92EF92DF927B018C01FA
:10448000689405C0DA2EEF013DDFFE01E894A591A6
:104490002591359145915591AEF3EF011ADEFE015C
:1044A0009701A801DA9479F7DF90EF90FF900F91D0
:1044B0001F91CF91DF910895AA1BBB1B51E107C04B
:1044C000AA1FBB1FA617B70710F0A61BB70B881FA4
:1044D000991F5A95A9F780959095BC01CD01089533
:1044E00097FB072E16F4009406D077FD08D0E4DF82
:1044F00007FC05D03EF4909581959F4F08957095E7
:1045000061957F4F0895EE0FFF1F0590F491E02D08
:1045100009940F93083090F0982F872F762F652FEE
:10452000542F432F322F22270850F4CF220F331F4E
:10453000441F551F661F771F881F991F0A95B2F7E2
:104540000F9108950024A7FD00942A173005400517
:10455000500560057005800590050895DC0101C0D7
:0E4560006D9341505040E0F70895F894FFCF5E
:10456E00011801054A0E01824000000101400000C1
:10457E000100A28CD692938D08080808FF83080CC0
:10458E000A080706050403000000300000180000AA
:10459E00280C00140600201900100C001920000C25
:1045AE001000003000001800001E1E000F0F00004B
:1045BE00300000181907200D0311240012120009F3
:1045CE00181818F07E7F06020001790600010020FF
:0445DE00170616F7AF
:00000001FF
