:100000000C947A090C94B0090C94B0090C94B009C2
:100010000C94B0090C94B0090C94B0090C94B0097C
:100020000C94B0090C94B0090C9432290C94B009CA
:100030000C94B0090C94B0090C94B0090C94B0095C
:100040000C94B0090C94B0090C94B0090C94B0094C
:100050000C941A0D0C94B0090C94B0090C941B115B
:100060000C94B0090C94B0090C94B0090C94B0092C
:100070000C94B0090C94B0090C94B0090C94B0091C
:100080000C94B0090C94B0090C94B0090C94B0090C
:100090000C94B0090C94B0090C94B0090C94B009FC
:1000A0000C94B0090C94B0090C94B00912033600FA
:1000B00036003600360036003600360041000000BB
:1000C0002C034D00690064006900200046006900AF
:1000D000670068007400650072002000360034007C
:1000E00020002800430046005700290000001203AA
:1000F0004D00460036003400200043004600570003
:100100000000040309040902850002010080F009CF
:1001100004000000010100000924010001090001A0
:10012000010904010002010300000724010001612C
:100130000006240201010006240201020006240236
:10014000020300062402020400092403010501033E
:100150000100092403010601040100092403020728
:10016000010101000924030208010201000905013F
:10017000024000000000062501020102090582027A
:1001800040000000000625010205061201100100D2
:10019000000040FECA464D030001020001000000BD
:1001A000000000000000000000000000000000004F
:1001B000000000000000000000000000000000003F
:1001C000000000000000000000000000000000002F
:1001D000000000000000000000000000000000001F
:1001E000000000000000000000000000000000000F
:1001F00000000000000000000000000000000000FF
:1002000000000000000000000000000000000000EE
:1002100000000000000000000000000000000000DE
:1002200000000000000000000000000000555555CF
:1002300055555555555555555555555555AAAAAA6F
:10024000AAAAAAAAAAAAAAAAAAAAAAAAAAFFFFFF0F
:10025000FFFFFFFFFFFFFFFFFFFFFFFFFF000000AB
:10026000000000000000000000000000005555558F
:1002700055555555555555555555555555AAAAAA2F
:10028000AAAAAAAAAAAAAAAAAAAAAAAAAAFFFFFFCF
:10029000FFFFFFFFFFFFFFFFFFFFFFFFFF0055AA6C
:1002A000FF0055AAFF0055AAFF0055AAFF0055AA56
:1002B000FF0055AAFF0055AAFF0055AAFF0055AA46
:1002C000FF0055AAFF0055AAFF0055AAFF0055AA36
:1002D000FF0055AAFF0055AAFF0055AAFF0055AA26
:1002E000FF0055AAFF0055AAFF0055AAFF0055AA16
:1002F000FF0055AAFF0055AAFF0055AAFF0055AA06
:10030000FF0055AAFF0055AAFF0055AAFF0055AAF5
:10031000FF0055AAFF0055AAFF0055AAFF000000E4
:10032000007D000000007D000000007D0000000056
:100330007D000000007D000000007D000000007DC9
:10034000000000007D000000007D000C1C2D9E3D83
:100350001C3D5DBE7D2D5D8EDFBE3D7DBEFFFF3D44
:100360007DBEFFFF3D7DBEFFFF3D7DBEFFFF3D7DAE
:10037000BEFFFF3D7DBEFFFF3D7DBEFFFF3D7DBE5D
:10038000FFFF3D7DBEFFFF2D5D8EDFBE1C3D5DBED0
:100390007D0C1C2D9E3D24496D92B6DBFF000000B4
:1003A000007D000C1C2D9E3D1C3D5DBE7D2D5D8E97
:1003B000DFBE3D7DBEFFFF3D7DBEFFFF3D7DBEFF3D
:1003C000FF3D7DBEFFFF3D7DBEFFFF3D7DBEFFFFCC
:1003D0003D7DBEFFFF3D7DBEFFFF3D7DBEFFFF2D8E
:1003E0005D8EDFBE1C3D5DBE7D0C1C2D9E3D000064
:1003F000007D000000007D000000007D0000000086
:100400007D000000007D000000007D000000007DF8
:10041000000000007D0024496D92B6DBFF003D7DA9
:10042000BEFFFF3D7DBEFFFF3D7DBEFFFF3D7DBEAC
:10043000FFFF3D7DBEFFFF2D5D8EDFBE1C3D5DBE1F
:100440007D0C1C2D9E3D0000007D000000007D0005
:100450000000007D000000007D000000007D000025
:1004600000007D000000007D000000007D00000015
:10047000007D000C1C2D9E3D1C3D5DBE7D2D5D8EC6
:10048000DFBE3D7DBEFFFF3D7DBEFFFF3D7DBEFF6C
:10049000FF3D7DBEFFFF24496D92B6DBFF001C7D52
:1004A000FF49000000690000004900000049000009
:1004B00000490000005D180C0086551C10B69635EA
:1004C00010FFFF5118FFFF5518FFFF5518FFFF6180
:1004D0002DFFFF551886511C100000000000357DCF
:1004E000FF4DCA7D1C002D04080086FFFFFFFF7929
:1004F0000000041400246DCAFFC2E7FF5900000089
:1005000004000C35285918083D18242D0C2D69BA03
:10051000FFFF3D71FF0000000000000000001C7D97
:10052000FF49000000BA511C18FFFF5518FFFF5586
:1005300028FFFF5518FFFF5518FFFF551CFFFF55FB
:1005400018C2A6410C86551C044900000049000051
:10055000004900000049000000143551613955512F
:100560000045007D1C00FFEBFF8AFFA62800001855
:100570002049DFFFFFFFFFFF8A517D1C007DAEFF9A
:100580005928494D141C39005169DFDFB21CFFFFA7
:1005900096653D71FF0000CE41AE315D14001C7DBB
:1005A000FFFFFF5518FFFF5524FFFF551886511C0C
:1005B0001049000000490000004900000049000007
:1005C0000049000000490000004900000086511861
:1005D0000CFFFF5518FFFF5520FF967541000000E6
:1005E0000000247D1CFFBAAE610C0000003D79AE16
:1005F0003DFF867100395535593186D2FFFFB68EE1
:100600008239100C141465A6DBD7FF9E651CDB7DB8
:100610009A8E3D71DF9E351804B63DB24900010245
:10062000030405060708090A0B0C0D0E0F10111222
:10063000131415161718191A1B1C1D1E1F20212212
:10064000232425262728292A2B2C2D2E2F30313202
:10065000333435363738393A3B3C3D3E3F1C18146D
:10066000101D1915111E1A16121F1B17133C3834B2
:10067000303D3935313E3A36323F3B37330C080492
:10068000000D0905010E0A06020F0B07032C282492
:10069000202D2925212E2A26222F2B27233F3E3DA0
:1006A0003C3B3A393837363534333231302F2E2D02
:1006B0002C2B2A292827262524232221201F1E1DF2
:1006C0001C1B1A191817161514131211100F0E0DE2
:1006D0000C0B0A0908070605040302010023272B57
:1006E0002F22262A2E2125292D2024282C03070BF2
:1006F0000F02060A0E0105090D0004080C33373BF2
:100700003F32363A3E3135393D3034383C13171BD1
:100710001F12161A1E1115191D1014181C04050697
:1007200007242526271D1915110D0905013B3A3906
:10073000381B1A191822262A2E32363A3E283C50E7
:1007400064788CA0B400000123051F000322052358
:100750004827051F000621052248235F2605274854
:100760002B0520000A20052148225F233525052678
:1007700048275F2A052B482F051F000E2048215FC0
:100780002235235E24052548265F273529052A487A
:100790002B5F2E052F4833051F0012205F213522C5
:1007A0005E23512448255F2635275E280529482ADF
:1007B0005F2B352D052E482F5F3205334837052036
:1007C00000162035215E22512331245F2535265E17
:1007D00027512848295F2A352B5E2C052D482E5F8E
:1007E0002F3531053248335F360537483B051F004A
:1007F0001A205E2151223123502435255E265127AF
:1008000031285F29352A5E2B512C482D5F2E352F3C
:100810005E30053148325F333535053648375F3A4B
:10082000053B483F051F001D205121312250233236
:10083000245E2551263127502835295E2A512B3137
:100840002C5F2D352E5E2F513048315F3235335EAF
:1008500034053548365F373539053A483B5F3E0544
:100860003F481F001F2031215022322333245125BD
:100870003126502732285E29512A312B502C352D14
:100880005E2E512F31305F3135325E335134483571
:100890005F3635375E380539483A5F3B353D053EB2
:1008A000483F5F1F00202050213222332300243193
:1008B000255026322733285129312A502B322C5EDD
:1008C0002D512E312F503035315E32513331345F5E
:1008D0003535365E37513848395F3A353B5E3C0531
:1008E0003D483E5F3F3520001F2032213322002447
:1008F00050253226332700283129502A322B332C19
:10090000512D312E502F32305E315132313350342F
:1009100035355E36513731385F39353A5E3B513CBB
:10092000483D5F3E353F5E1F001D203321002432CD
:1009300025332600285029322A332B002C312D5004
:100940002E322F333051313132503332345E355103
:10095000363137503835395E3A513B313C5F3D35A1
:100960003E5E3F511F001A20002433250028322903
:10097000332A002C502D322E332F0030313150329B
:100980003233333451353136503732385E39513A9B
:10099000313B503C353D5E3E513F31200016240036
:1009A000283329002C322D332E003050313232338F
:1009B00033003431355036323733385139313A50CB
:1009C0003B323C5E3D513E313F501F001228002C0F
:1009D000332D003032313332003450353236333734
:1009E00000383139503A323B333C513D313E503F73
:1009F000321F000E2C0030333100343235333600D4
:100A0000385039323A333B003C313D503E323F336F
:100A10001F000A300034333500383239333A003C95
:100A2000503D323E333F001F00063400383339005A
:100A30003C323D333E0020000338003C333D001F74
:100A400000021F053C001F00031B051E051F482058
:100A5000000617051A051B481D051E481F5F1F00CD
:100A60000A13051605174819051A481B5F1C051DB2
:100A7000481E5F1F351F000E0F0512051348150590
:100A80001648175F180519481A5F1B351C481D5F6B
:100A90001E351F5E1F00120B050E050F48110512B3
:100AA00048135F14051548165F17351848195F1A63
:100AB000351B5E1C5F1D351E5E1F511F001607058E
:100AC0000A050B480D050E480F5F10051148125F0F
:100AD00013351448155F1635175E185F19351A5E01
:100AE0001B511C351D5E1E511F3120001A030506C7
:100AF00005074809050A480B5F0C050D480E5F0FF6
:100B0000351048115F1235135E145F1535165E17E8
:100B1000511835195E1A511B311C5E1D511E311FB3
:100B2000501F001D0205034805050648075F08051C
:100B300009480A5F0B350C480D5F0E350F5E105FDC
:100B40001135125E13511435155E16511731185EAA
:100B500019511A311B501C511D311E501F321F00DC
:100B60001F01050248035F04050548065F073508B5
:100B700048095F0A350B5E0C5F0D350E5E0F511094
:100B800035115E12511331145E155116311750187C
:100B90005119311A501B321C311D501E321F332087
:100BA000002000050148025F03350448055F063553
:100BB000075E085F09350A5E0B510C350D5E0E515C
:100BC0000F31105E1151123113501451153116505E
:100BD0001732183119501A321B331C501D321E3374
:100BE0001F001F001F0048015F0235035E045F0500
:100BF00035065E07510835095E0A510B310C5E0D52
:100C0000510E310F50105111311250133214311551
:100C10005016321733185019321A331B001C321D6C
:100C2000331E001F001D005F0135025E03510435B5
:100C3000055E06510731085E09510A310B500C510F
:100C40000D310E500F321031115012321333145037
:100C5000153216331700183219331A001C331D00D1
:100C60001F001A0035015E02510331045E05510672
:100C7000310750085109310A500B320C310D500E1A
:100C8000320F331050113212331300143215331651
:100C900000183319001C001F0016005E01510231BC
:100CA00003500451053106500732083109500A3209
:100CB0000B330C500D320E330F0010321133120073
:100CC00014331500180020001200510131025003A6
:100CD000320431055006320733085009320A330B0B
:100CE000000C320D330E001033110014001F000EE3
:100CF000003101500232033304500532063307003D
:100D0000083209330A000C330D0010001F000A00DE
:100D10005001320233030004320533060008330960
:100D2000000C0020000600320133020004330500ED
:100D300008001F00030033010004001F0001000031
:100D40007D00040F0513052C0530051F000C0B0555
:100D50000E050F4812051348170528052C482D05C8
:100D600030483105340520001807050A050B480DE9
:100D7000050E480F5F11051248135F160517481B33
:100D8000052405284829052C5F2D482E05305F31A4
:100D90004832053448350538051F00280305060587
:100DA000074809050A480B5F0C050D480E5F0F3513
:100DB00010051148125F133515051648175F1A05FF
:100DC0001B481F05200524482505285F29482A05BA
:100DD0002C352D5F2E482F053035315F32483305D5
:100DE000345F35483605384839053C051F00340264
:100DF00005034805050648075F080509480A5F0B13
:100E0000350C480D5F0E350F5E1048115F1235131B
:100E10005E14051548165F173519051A481B5F1E25
:100E2000051F4820482105245F2548260528352927
:100E30005F2A482B052C5E2D352E5F2F48305E3102
:100E400035325F33483435355F36483705385F39DA
:100E5000483A053C483D051F003C01050248035F38
:100E600004050548065F07350848095F0A350B5E2B
:100E70000C5F0D350E5E0F51105F1135125E135170
:100E80001448155F1635175E180519481A5F1B358B
:100E90001D051E481F5F205F214822052435255F60
:100EA00026482705285E29352A5F2B482C512D5EC0
:100EB0002E352F5F3051315E3235335F345E35353C
:100EC000365F37483835395F3A483B053C5F3D4827
:100ED0003E051F004000050148025F033504480538
:100EE0005F0635075E085F09350A5E0B510C350D4C
:100EF0005E0E510F311035115E12511331145F1512
:100F000035165E17511848195F1A351B5E1C051DF2
:100F1000481E5F1F352035215F22482305245E25AA
:100F200035265F27482851295E2A352B5F2C312D25
:100F3000512E5E2F3530313151325E3335345135DB
:100F40005E3635375F385E39353A5F3B483C353D74
:100F50005F3E483F052000400048015F0235035EC8
:100F6000045F0535065E07510835095E0A510B31ED
:100F70000C5E0D510E310F50105E11511231135095
:100F80001435155E16511731185F19351A5E1B514D
:100F90001C481D5F1E351F5E205E2135225F2348E1
:100FA0002451255E2635275F283129512A5E2B35AD
:100FB0002C502D312E512F5E305031313251335E55
:100FC00034313551365E37353851395E3A353B5F0D
:100FD0003C5E3D353E5F3F481F0040005F013502EB
:100FE0005E03510435055E06510731085E09510A5A
:100FF000310B500C510D310E500F32105111311276
:10100000501332145E1551163117501835195E1AE7
:10101000511B311C5F1D351E5E1F512051215E2268
:1010200035235F24312551265E2735285029312A62
:10103000512B5E2C322D502E312F51303231503207
:10104000313351345035313651375E383139513AB8
:101050005E3B353C513D5E3E353F5F1F00400035F5
:10106000015E02510331045E0551063107500851FB
:1010700009310A500B320C310D500E320F33103142
:101080001150123213331451153116501732185EA5
:1010900019511A311B501C351D5E1E511F31203154
:1010A0002151225E2335245025312651275E2832D6
:1010B00029502A312B512C332D322E502F313033E1
:1010C0003132325033313432355036313751385075
:1010D00039313A513B5E3C313D513E5E3F35200057
:1010E00040005E01510231035004510531065007A2
:1010F00032083109500A320B330C500D320E330FC7
:1011000000105011321233130014311550163217DB
:1011100033185119311A501B321C5E1D511E311FDC
:1011200050205021312251235E2432255026312770
:1011300051283329322A502B312C002D332E322FB7
:101140005030003133323233503433353236503749
:1011500031383239503A313B513C503D313E513FAC
:101160005E1F003C00510131025003320431055032
:1011700006320733085009320A330B000C320D33A4
:101180000E001032113312001450153216331700AE
:10119000183119501A321B331C511D311E501F3289
:1011A0002032215022312351243325322650273139
:1011B000280029332A322B502D002E332F323100B4
:1011C00032333332340035333632375038333932F4
:1011D0003A503B313C323D503E313F511F003400CC
:1011E0003101500232033304500532063307000840
:1011F0003209330A000C330D00103311001432157C
:10120000331600185019321A331B001C311D501EA2
:10121000321F33203321322250233124002533263C
:1012200032275029002A332B322E002F333200333D
:1012300033350036333732380039333A323B503C9D
:10124000333D323E503F311F0028005001320233FF
:101250000300043205330600083309000C001000B7
:1012600014331500183219331A001C501D321E3366
:101270001F0020002133223223502500263327323D
:101280002A002B332F0033003600373339003A332E
:101290003B323C003D333E323F501F0018003201CC
:1012A0003302000433050008001400183319001C31
:1012B000321D331E00210022332332260027332B18
:1012C0000037003A003B333D003E333F3220000CF4
:1012D00000330100040018001C331D0022002333DA
:1012E00027003B003E003F331F000400001C00238A
:1012F000003F000011241FBECFEFDAE0DEBFCDBFFC
:1013000004B603FE17C08091D8099091D909A09125
:10131000DA09B091DB098A3C9C4AA244BC4D51F4E5
:101320001092D8091092D9091092DA091092DB09AB
:101330000C94003813E0A0E0B1E0EEE5F9E502C05E
:1013400005900D92AE32B107D9F729E0AEE2B3E0D5
:1013500001C01D92A83DB207E1F7E4D10C94972C8F
:101360000C94000002C4089580910C0790910D0721
:101370000E94932B811101C00895F7D388E19FE06B
:101380000FB6F894A895809360000FBE909360000C
:1013900008950F931F93CF93DF93809155069091FB
:1013A0005606A0915706B0915806D82FDF770CEC5F
:1013B00016E0C0E003C0CF5FC034B1F0F801819106
:1013C0008F0187FFF8CFFD2FF81B8F2F880F8430F8
:1013D00090F320E040E060E08C2F0E947A1EF8013C
:1013E0001292CF5FC03451F7DF91CF911F910F91CF
:1013F0000895EF92FF920F931F93CF93DF9300D046
:1014000000D0CDB7DEB7E12CF12C8701BE016F5FB4
:101410007F4F80910C0790910D070E94E12B811165
:1014200007C00F5F1F4F08371105B1F0A895EECF29
:101430008FEFE81AF80AE9818E2F82958F70E032DB
:1014400020F4EF70E450EC3090F0E11482E0F80604
:1014500019F000E010E0DACF0F900F900F900F908E
:10146000DF91CF911F910F91FF90EF900895F0E0E1
:10147000E756F34D0C944F2C8A818A3F09F453C0F0
:101480008C3F09F44CC0883F01F781E00E94C113F2
:101490000E94A013DACF6A81862F8C70B1F61B816F
:1014A0001452103490F66F704C81633009F43FC0D1
:1014B000812F0E94A11EE12FF0E0E453F94F10822A
:1014C000C4CF8A818C7009F6EB81E452E03408F0D5
:1014D000BCCF8091550690915606A0915706B091C9
:1014E0005806F0E0E453F94F80688083AECFFDD713
:1014F000CE0101960E943418A8CFF7D7CE010196ED
:101500000E94CC18A2CFF1D7CE0101960E940E19ED
:101510009CCFEBD7CE0101960E94751796CF80E045
:101520000E94C11392CF81E00E94C1138ECF642F1D
:10153000812F0E941D20BFCF6F927F928F929F922A
:10154000AF92BF92CF92DF92EF92FF920F931F93D1
:10155000CF93DF938091CE09843079F0DF91CF91E2
:101560001F910F91FF90EF90DF90CF90BF90AF90C1
:101570009F908F907F906F9008953BDFE4D61CD7AB
:10158000E0915906F0915A06B0915B06B0905C0666
:1015900090905D0680905E0670905F066090600699
:1015A0009F014B2F5B2D692D782D872D962DA0E067
:1015B0000E948B2C09F0B3C0A12CCC24C394D12C55
:1015C000E12CF12C10E0E70100E041C02091610620
:1015D0002C21309162063D21409163064E215091AD
:1015E00064065F21609165066123709166067D2324
:1015F00080916706909168068C239023A0E00E945A
:101600008B2C09F047C0A39480E4A81609F453C0BA
:101610009601A701612F7D2F8C2F902F01E00E9452
:10162000552C69017A01162FD72FC82F092FE09169
:101630005906F0915A06B0915B06B0905C06909006
:101640005D0680905E0670905F06609060062E2FAB
:101650002C213F2F3D214B2F4E215B2D5F21692DEA
:101660006123782D7D23872D8C23962D9023A0E058
:101670000E948B2C09F4AACF8A2D0E949C13B82EAD
:10168000809130038230B8F14FE76B2D80910401D7
:1016900073D79CCF8A2D0E949C13B82E8091040191
:1016A00090913003923080F140E06B2D65D7A39488
:1016B00080E4A812ADCF80910C0790910D070E9495
:1016C000C72B8091550690915606A0915706B09170
:1016D00058068093510690935206A0935306B093F8
:1016E000540657DE0E94581481E197E08ED381E0C2
:1016F00080932E0333CF61E08B2D68D78091300328
:10170000811509F463CFC0CF40E06B2D00D78091E5
:101710003003811509F477CF80910401C5CF109271
:1017200033034ACF84B7877F84BF0FB6F894A89558
:1017300080916000886180936000109260000FBE0D
:1017400080E890E00FB6F894809361009093610078
:101750000FBE85BF85BF53D10E94A31F0E94792071
:101760003DD3CCD1FCD108D5C4D60E942B1D0E94FC
:10177000AB1C2FEF89EF90E0215080409040E1F7C3
:1017800000C00000E0D518D680E00E94A420082FF9
:101790002091710630917206409173065091740643
:1017A0006091750670917606809177069091780623
:1017B0000E94702C217030E040E050E0BA01CA0174
:1017C000A0E00E948B2C21F0BBD20E946C15FFCFB1
:1017D0000E94A621082F0E941629789401111AC090
:1017E0000E94E223109235031092360310923403C4
:1017F00010923303A1DE0E94702B80912E0381157D
:10180000C9F3A89599DE0E94702B80912E03811553
:1018100089F3F7CF0E94D321E3CFF999FECF9F70D0
:1018200092BD81BD60BDF894FA9AF99A78940895B2
:101830009C01F999FECF32BD21BDF89A80B508957B
:10184000CF93DF9300D00F92CDB7DEB789839A8311
:101850006B83EEDF9B81891306C00F900F900F9072
:10186000DF91CF910895692F89819A810F900F9010
:101870000F90DF91CF91D1CFAF92BF92CF92DF92F5
:10188000EF92FF920F931F93CF93DF9361E080E07D
:1018900090E0C3DF82E08093040162E090E0BDDF6E
:1018A0008FE7809303016FE783E090E0B6DF61E0AC
:1018B0008AE090E0B2DF1092300360E089E090E0CF
:1018C000ACDF60E085E090E0A8DF62E08CE090E0D3
:1018D000A4DF61EF8DE090E0A0DF64E08EE090E0B7
:1018E0009CDF6EE18FE090E098DF6FE780E190E0B1
:1018F00094DF66E481E190E090DF6CE382E190E0C8
:101900008CDF6CE083E190E088DF6FE784E190E0BA
:1019100084DF60E085E190E080DF60E486E190E0D4
:101920007CDF60E088E190E078DF60E089E190E0D2
:1019300074DF65EA8AE190E070DF8CE380932F0327
:101940006CE387E190E069DF60E080E793E065DFCA
:1019500060E081E793E061DF64EB82E793E05DDFC5
:1019600068EB83E793E059DFA12CB12C650185E496
:10197000E82E81E0F82E8501C0E0D0E0F70180E498
:10198000C816D104A0F56081C80181599F4F45DF79
:101990002DE030E0C901880F991F820F931F8B5BE8
:1019A0009E4FFC01EC0FFD1F6081C80181519E4FCD
:1019B00034DF21960F5F1F4FFFEFEF1AFF0AC3308E
:1019C000D105E1F68FEFC81AD80AE3E0AE0EB11CDC
:1019D000F0E8CF16D10459F6DF91CF911F910F9106
:1019E000FF90EF90DF90CF90BF90AF90089561ADE2
:1019F000C80181599F4F11DF29E030E0CBCF80E053
:101A000090E016DF813009F037DF82E090E010DFF0
:101A10008093040183E090E00BDF8093030189E071
:101A200090E006DF8093300387E190E001DF809350
:101A30002F0308951F921FB61F9211242F933F93D7
:101A40008F939F93AF93BF93EF93FF931092850073
:101A50001092840080EE9FEF909385008093840025
:101A6000E9E3F3E021E433E081919191009721F0E3
:101A7000DF0101979E938E932E173F07A9F7809160
:101A80000F0781110CC080913103909132038B3488
:101A9000910529F10196809331039093320380914F
:101AA0003503909136030196809335039093360366
:101AB00080913F0390914003892B29F480E180932A
:101AC0003F0310924003FF91EF91BF91AF919F911F
:101AD0008F913F912F911F901FBE1F90189581E00D
:101AE0008093310310923203809137039091380331
:101AF00001968093370390933803D1CF87E884B958
:101B000080EC87B9E4E6F0E08081877F80831092E3
:101B10008000E1E880818460808380818D7F808384
:101B200080818E7F8083F89480E49EEF909385007F
:101B300080938400EFE68081816080831092390376
:101B400010923A0310923B0310923C0310923D0313
:101B500010923E0310923F03109240030895EFE667
:101B6000F0E080818E7F80830895EFE6F0E0808151
:101B70008160808308950895FC0130E08081918127
:101B8000A281B38180934D0390934E03A0934F03A2
:101B9000B093500330FD339628E140E050E060E818
:101BA00070E013C000000000000000002E982150DB
:101BB000C1F0769567955795479580914D03909123
:101BC0004E03A0914F03B091500384239523A62385
:101BD000B7232E9A892B8A2B8B2B21F72E982150F5
:101BE00041F73F5F303251F60895FC0130E08081CB
:101BF0009181A281B3818093490390934A03A0937A
:101C00004B03B0934C0330FD339628E140E050E0A5
:101C100060E870E013C0000000000000000046987B
:101C20002150C1F076956795579547958091490366
:101C300090914A03A0914B03B0914C0384239523C8
:101C4000A623B723469A892B8A2B8B2B21F74698FC
:101C5000215041F73F5F303251F60895FC0130E0EA
:101C600080819181A281B381809345039093460343
:101C7000A0934703B093480330FD339628E140E03A
:101C800050E060E870E013C00000000000000000B9
:101C90002D982150C1F0769567955795479580917D
:101CA000450390914603A0914703B09148038423D4
:101CB0009523A623B7232D9A892B8A2B8B2B21F7CB
:101CC0002D98215041F73F5F303251F60895FC01C5
:101CD00030E080819181A281B38180934103909310
:101CE0004203A0934303B093440330FD339628E1AD
:101CF00040E050E060E870E013C000000000000029
:101D000000002C982150C1F076956795579547951E
:101D10008091410390914203A0914303B091440309
:101D200084239523A623B7232C9A892B8A2B8B2BCC
:101D300021F72C98215041F73F5F303251F608953A
:101D4000CF93DF93CDB7DEB7E0970FB6F894DEBF41
:101D50000FBECDBF80E3E5E1F1E0DE011196019019
:101D60000D928A95E1F73E9A84B1806784B9F89420
:101D7000CE01019601DFCE01019637DFCE0101963B
:101D80006DDFCE010196A3DF7894E0960FB6F8944C
:101D9000DEBF0FBECDBFDF91CF910895853BB8F078
:101DA00084EB80930201282F30E040E050E060E0B7
:101DB00077E083E090E00E942D2C042E052A11F09C
:101DC0002FEF3FEF2093000130930101089581111F
:101DD000E8CF81E0E6CF80910201089583E793E0A8
:101DE00027DD883B51F064EB82E793E029DD68EB67
:101DF00083E793E025DD84EBD1CF82E793E018DD24
:101E00009FEF980F943BB8F7C9CF2F923F924F9214
:101E10005F926F927F928F929F92AF92BF92CF927A
:101E2000DF92EF92FF920F931F93CF93DF93CDB783
:101E3000DEB729970FB6F894DEBF0FBECDBF8983FA
:101E40009A833E9A84B1806784B98FB78E83E5B157
:101E5000EC833E2F3F78F8B1FD837F2EE89476F82F
:101E600090910201E981FA81BF0160547F4F40E007
:101E700050E08191813408F080E4480F511DE6174D
:101E8000F707B9F7E92FF0E04F0180910001909139
:101E900001018417950798F44E5F5F4FBA0176955C
:101EA0006795769567956115710549F080EC91EC21
:101EB0000E94062C6E177F0710F44B01E62F212C91
:101EC000312CA12CBE2E1B82592C132F7F82C82CA3
:101ED0003F01E981FA81E887F9878A2D8695282FC5
:101EE00030E0F901EE0FFF1FE20FF31F20E2280F91
:101EF000B901660F771F620F731F805D90E07C0150
:101F0000EE0CFF1CE80EF91E9101275A3C4FAB2D39
:101F1000BB81888599858E0F9F1F89839A83FC01D9
:101F20004281413408F040E4469DC001479D900D38
:101F3000112480960024880F991F001C880F991F78
:101F4000001C892F902DD82E88859985680F791FC0
:101F5000FB014281413408F040E4469DC001479DA9
:101F6000900D112480960024880F991F001C880F63
:101F7000991F001C892F902D00E042E050E0E88579
:101F8000F985EE0EFF1EF701E40FF51F90819134E5
:101F900008F090E49A9FA0019B9F500D1124405E91
:101FA0005F4F0024440F551F001C440F551F001C99
:101FB000452F502DF901389790E80FC0512F5064EC
:101FC000492E482209F05062442E492209F05061FE
:101FD000519396952E173F0729F0592F5D2171F7E0
:101FE000512FEECF0F5F0330C1F1285F3F4FE1E08B
:101FF000F0E0013009F0E0E0AF01A981BA81AE0F55
:10200000BF1FAC91A13408F0A0E4A89DC001A99D18
:10201000900D112480960024880F991F001C880FB2
:10202000991F001C892F902DD82EE60FF71FE081F5
:10203000E13408F0E0E4E89DC001E99D900D112431
:1020400080960024880F991F001C880F991F001C80
:10205000892F902DAC2DB52D96CFF8E12F0E311C88
:10206000A39480E2A81239CF7F80E885F985E983BF
:10207000FA83F894FD806894F6F8FC81F067EF2EFF
:10208000D12C612F00E010E08D2D8695805F90E0CF
:102090009C01220F331F280F391FA8014F5A5C4F94
:1020A00070E082E0E981FA812E0F3F1FF901E80F0D
:1020B000F91FE081E13408F0E0E4EA9FC001EB9F02
:1020C000900D112480960024880F991F001C880F02
:1020D000991F001C892F902DFA0198E0B190E5B866
:1020E000F8B80000000000000000B5B887FF78B81D
:1020F00000000000000065B978B8880F9A9571F764
:102100007F5F733081F0485F5F4FE1E0713009F02D
:10211000E0E08E2F90E0F901E80FF91FE081E13453
:1021200008F4CBCFC9CF085E1F4FD394F0E2DF1283
:10213000ABCF65B978B88E818FBFEFEEF0E0319705
:10214000F1F700C0000029960FB6F894DEBF0FBE6D
:10215000CDBFDF91CF911F910F91FF90EF90DF9056
:10216000CF90BF90AF909F908F907F906F905F9037
:102170004F903F902F900895579A569A3F98479ABC
:102180005F9A5E9AE9E7F6E080E5DF011D928A95A5
:10219000E9F785B5846085BD85B58D7F85BD85B53D
:1021A0008E7F85BD80ED86BDEEE6F0E080818160AA
:1021B00080837894109271061092720610927306C2
:1021C0001092740610927506109276061092770699
:1021D000109278061092690610926A0610926B06A9
:1021E00010926C0610926D0610926E0610926F0699
:1021F00010927006109261061092620610926306A9
:102200001092640610926506109266061092670698
:10221000109268061092590610925A0610925B06A8
:1022200010925C0610925D0610925E0610925F0698
:102230001092600608950F920FB60F921F9211240C
:10224000EF92FF920F931F932F933F934F935F93C0
:102250006F937F938F939F93AF93BF93CF93DF93AE
:10226000EF93FF9380ED86BD5E9A5E98E0E421E0F7
:1022700030E040E050E0BA01CA017A0110E0E70125
:10228000D701F0E05F98379908C0E22AF32A142BAF
:10229000D52BC62BB72BA82BF92B01E00E94552C70
:1022A0005F9AE15079F72091C90630E0C901880FA3
:1022B000991F880F991F880F991F8758994FE0948D
:1022C000F0941095D095C095B095A0954F2F40955E
:1022D000FC01E082F1821283D383C483B583A68399
:1022E0004783C90101966AE070E00E941A2C80932E
:1022F000C9068091550690915606A0915706B09157
:1023000058060196A11DB11D80935506909356065F
:10231000A0935706B0935806FF91EF91DF91CF91AC
:10232000BF91AF919F918F917F916F915F914F91ED
:102330003F912F911F910F91FF90EF901F900F9061
:102340000FBE0F901895EF92FF920F931F93CF93AC
:10235000DF93E9E7F6E06FEF7FEFCB01AB019A0186
:10236000E080F18002811381D481C581B681A7818B
:1023700038966E217F21802391235D234C233B23BC
:102380002A23A6E0E93CFA0759F760937106709397
:10239000720680937306909374065093750640936B
:1023A00076063093770620937806DF91CF911F91C0
:1023B0000F91FF90EF9008958F929F92AF92BF92EE
:1023C000CF92DF92EF92FF920F931F93CF93DF9301
:1023D0008090690690906A06A0906B06B0906C069B
:1023E000C0906D06D0906E06E0906F06F09070067B
:1023F0007091710660917206509173064091740657
:102400003091750620917606909177068091780636
:10241000082D0095192D1095DA2DD095CB2DC0954E
:10242000BC2DB095AD2DA095FE2DF095EF2DE0952E
:10243000072300935906162310935A06D523D093E9
:102440005B06C423C0935C06B323B0935D06A2234E
:10245000A0935E06F923F0935F06E823E0936006FD
:10246000072F0095162F1095D52FD095C42FC09506
:10247000B32FB095A22FA095F92FF095E82FE095F6
:10248000082100936106192110936206DA21D09386
:102490006306CB21C0936406BC21B0936506AD21D1
:1024A000A0936606FE21F0936706EF21E09368068D
:1024B0007093690660936A0650936B0640936C06AE
:1024C00030936D0620936E0690936F06809370068E
:1024D000DF91CF911F910F91FF90EF90DF90CF9000
:1024E000BF90AF909F908F90089581708093100758
:1024F000089585E091E080930C0790930D07ECEC34
:10250000F6E080E4DF011D928A95E9F708951F93B4
:10251000CF93DF9300D000D0CDB7DEB7411541F1A6
:1025200019E129E090E929838F70892B8A836F77DD
:102530006B83809103018F778C83BE016F5F7F4F28
:1025400080910C0790910D070E94A92B1983BE0161
:102550006F5F7F4F80910C0790910D070E94A92B10
:102560000F900F900F900F90DF91CF911F910895D2
:1025700018E128E090E8D7CFCF93DF9300D000D0C8
:10258000CDB7DEB79BE099838F70806B8A836F77BE
:102590006B834F774C83BE016F5F7F4F80910C0739
:1025A00090910D070E94A92B8BE18983BE016F5F7B
:1025B0007F4F80910C0790910D070E94A92B0F90DF
:1025C0000F900F900F90DF91CF9108951F93CF93AD
:1025D000DF9300D000D0CDB7DEB7611551F119E11E
:1025E00020E939E09091040139839F70922B9A83FE
:1025F0008F778B83809103018F778C83BE016F5F10
:102600007F4F80910C0790910D070E94A92B198391
:10261000BE016F5F7F4F80910C0790910D070E9464
:10262000A92B0F900F900F900F90DF91CF911F91DA
:10263000089518E120E838E0D5CFBF92CF92DF921D
:10264000EF92FF920F931F93CF93DF9300D000D0B0
:102650000F92CDB7DEB77C018B01429540714D835F
:1026600084E0E816F104C0F1B42E6894B2F86E016B
:102670009FEFC91AD90AB982F80180818A838181C2
:102680008B8382810D5F1F4F8C83B60180910C0775
:1026900090910D070E94A92BF3E0EF1AF10884E056
:1026A000E816F10440F780E09D8195609983F80178
:1026B00090819A831B821C82F2E0EF16F104F1F004
:1026C000F3E0EF16F10409F1B60180910C07909147
:1026D0000D070E94A92B03C0E114F10421F50F900E
:1026E0000F900F900F900F90DF91CF911F910F914E
:1026F000FF90EF90DF90CF90BF9008958D8186601E
:102700008983F80181818B83DFCF811551F083E0CC
:102710009D81892B8983F801828191819B838C83A0
:10272000D3CF87E0F5CF81E06E019FEFC91AD90AB8
:10273000BBCF4091100781CF0E94B1208C5D0895DE
:1027400080910F078115A9F080910E07833021F049
:102750008F5F80930E07089581E080930E0780912C
:102760003703909138030196809337039093380391
:102770000895109237031092380381E080930F0779
:10278000E3CF80930F07089520911101309112013A
:10279000922F9295990F907E822F9327292F26951D
:1027A0002827392F30FB922F88279795879597F9FF
:1027B00082279327809311019093120108958091AD
:1027C0003B0390913C03892B29F48CE180933B03DC
:1027D00010923C031092130108954330C0F421E09D
:1027E000240F50E0640F752F711DAB01440F551F6E
:1027F000460F571FFC01E40FF51F80E090E3908324
:10280000118212828F5F39962813F9CF08954830CC
:1028100030F4433069F443E050E024E0E3CF4B3040
:10282000A8F72BE0241B440F440F495050E0DACFA7
:1028300024E0F9CFCF93DF9300D0CDB7DEB7898303
:102840009A83409113014F30F8F480913B039091AB
:102850003C03892B51F48CE180933B0310923C03A1
:102860004F5F409313014F3079F060E089819A8186
:10287000B4DF40911301445060E289819A810F9046
:102880000F90DF91CF91A9CF0F900F90DF91CF9153
:102890000895E3EFF8E0DC0182818D9380818D93D0
:1028A00081818D93339689E0E33BF807A9F708957A
:1028B00081E197E0EEDF8091350390913603803D12
:1028C000974058F0109235031092360380913403EC
:1028D0008F5F809334038C3328F580912F0381150B
:1028E000F1F090913303891751F1891718F1209174
:1028F000590630915A0640915B0650915C066091F2
:102900005D0670915E0680915F0690916006A0E082
:102910000E948B2C21F0109234031092330381E13A
:1029200097E088CF809133038F5F809333031092B9
:102930003403D3CF81E197E00E949124D8CF0E9445
:102940006B24909133039F5F9093330380912F0307
:10295000891768F6EFCFFC01908181812281911166
:102960000EC0811122C0211531F0203339F02138F9
:1029700008F456C020E39083818322830895811157
:1029800008C0211121C09033C9F3913880F190E340
:10299000F2CF211120C0981778F5803279F3813871
:1029A00008F448C080E299E1E6CF211106C08033E7
:1029B00029F3813880F180E3DECF8E31F9F281385E
:1029C00060F12EE18EE1D7CF9432C1F2913800F15F
:1029D00022E194E2D0CF853240F4203279F291386E
:1029E00060F120E287E099E1C6CF28E188E198E133
:1029F0009083818322830895392F3695381790F07C
:102A0000983209F4BBCF9138F8F08CE098E2B3CF5C
:102A100029E092E1B0CF88E1AECF2FE08FE0ABCFDD
:102A200028E1A9CF903209F4A9CF913850F089E17B
:102A300090E2A1CF80E19CE09ECF21E183E09DE088
:102A40009ACF8CE090E197CF86E094E194CF83CF4A
:102A5000292F30E02230310529F12330310559F09A
:102A600021303105C1F482E190E02BE831E0FA0138
:102A7000208331830895282F30E08230D9F023302D
:102A8000310540F4232B11F1EEEEF0E0849190E05B
:102A90009F01EDCFA9F080E090E020E0FA012083D3
:102AA0003183089585E890E026E031E0FA01208343
:102AB00031830895E0ECF0E0849190E09F01D7CF5E
:102AC000ECEAF0E0849190E09F01D1CFE2E0F1E008
:102AD000849190E09F01CBCF0E94C028F89480E8B9
:102AE000EFEFF9EF3197F1F700C000008150C1F727
:102AF0008AEC9CEAA2E4BCED8093D8099093D909B2
:102B0000A093DA09B093DB0988E19CE00FB6F89452
:102B1000A895809360000FBE90936000FFCFCF9385
:102B2000DF93CDB7DEB72A970FB6F894DEBF0FBE9E
:102B3000CDBF90EF99839DE79A839DE49B8396E4B4
:102B40009C8396E39D8394E39E8391E19F836887B2
:102B5000498797EF9A87482FBE016F5F7F4F8AE0C2
:102B600090E06BDD2A960FB6F894DEBF0FBECDBFA6
:102B7000DF91CF910895CF93DF93CDB7DEB72B9739
:102B80000FB6F894DEBF0FBECDBF8B8780EF898371
:102B90008DE78A838DE48B8386E48C8386E38D8343
:102BA00084E38E8384E08F830E94A12088878091B4
:102BB0000301898787EF8A874B85BE016F5F7F4F4F
:102BC0008AE090E03ADD2B960FB6F894DEBF0FBE98
:102BD000CDBFDF91CF9108950F931F93CF93DF93D4
:102BE000CDB7DEB764970FB6F894DEBF0FBECDBF8A
:102BF0008A8B0091EF081091F00877DC8091F10842
:102C00008830B1F0873009F465C0863009F472C0AD
:102C10008430F1F0833009F43EC064960FB6F89426
:102C2000DEBF0FBECDBFDF91CF911F910F910895F1
:102C3000B8016052784F81EE97E064960FB6F89431
:102C4000DEBF0FBECDBFDF91CF911F910F910BC79C
:102C50000115110511F3E091E1078FEF8E0F883018
:102C6000E0F6E150FF0BEE0FFF1FEF52F84F01901F
:102C7000F081E02D309789F262EE77E0C80101978C
:102C800064960FB6F894DEBF0FBECDBFDF91CF9133
:102C90001F910F9109940230110508F4BECF809165
:102CA000E107863009F0B9CF8091E207813009F061
:102CB000B4CF81E1E1E8F1E0DE01119601900D92DF
:102CC0008A95E1F74A89BE016F5F7F4F81E190E00D
:102CD000B4DCA3CFB8016052784F81EE97E06496E0
:102CE0000FB6F894DEBF0FBECDBFDF91CF911F911D
:102CF0000F91B0C70230110508F48FCFF801E052F0
:102D0000F84F9081973F09F088CF8091E10781309B
:102D100009F452C0833009F474C0853009F4A2C0AC
:102D2000863009F4B6C0803109F47BC0823109F0E5
:102D300074CF0330110509F070CFE091E207EB8BFF
:102D4000E33008F06ACF80EF8093E1078DE780934E
:102D5000E2078DE48093E30786E48093E40786E34B
:102D60008093E50784E38093E60783E18093E70798
:102D7000E093E80709EE17E01C8A6C898B890E94B2
:102D8000C41EF80181938F01FC89FF5FFC8BF03832
:102D9000A1F787EF809369084A8961EE77E089E8B7
:102DA00090E064960FB6F894DEBF0FBECDBFDF9102
:102DB000CF911F910F9141CC0330110509F02DCF18
:102DC0002091E2072F7730EF39833DE73A833DE4E6
:102DD0003B8336E43C8336E33D8334E33E8332E099
:102DE0003F83288739878A871B861C8687E18D87E2
:102DF0009E874A89BE016F5F7F4F8EE090E01DDCA9
:102E00000CCF0230110509F008CF8A8964960FB6FD
:102E1000F894DEBF0FBECDBFDF91CF911F910F9110
:102E2000AACE8091E2078B8B0338110569F48330B9
:102E300058F4E3EEF7E005C0319688E0E336F80792
:102E4000B1F180818034C0F341E06B898A89649656
:102E50000FB6F894DEBF0FBECDBFDF91CF911F91AB
:102E60000F915DCE0330110509F0D7CE1091E20726
:102E7000143008F0D2CE812F0E949D20612F89E16D
:102E800090E00E94200C65EA8AE190E00E94200C0C
:102E9000BCCF0330110509F0C0CE6091E2071616D1
:102EA0000CF0BBCE6093030183E090E0EFCF63EEC4
:102EB00077E08B89D7D766E380E793E00E94200C08
:102EC00062E481E793E00E94200C40E0BECF9FEFD8
:102ED000980F983048F48150990BFC01EE0FFF1FBA
:102EE000EF52F84F608371830895FC0190819295B1
:102EF00091708091F208811509F441C0809114010C
:102F000098133CC08091F108853009F454C0813099
:102F100009F45EC0823091F18091EF089091F00841
:102F20008E30B1E09B07B8F52181AC014F5F5F4F58
:102F30004093EF085093F008DC01AF51B84F2C9349
:102F400062814E3021E0520731F19C012E5F3F4FEC
:102F50002093EF083093F0084F51584FDA016C93EB
:102F600043812E30B1E03B07B1F003968093EF0828
:102F70009093F0082F51384FF9014083089581E074
:102F80008093F2081092EF081092F00890931401C9
:102F90008181803F21F082E08093F1080895828151
:102FA0008E3709F446C081113CC08381813099F786
:102FB0008093F10808958181863469F78281863390
:102FC00051F78381843339F786E08093F1080895BF
:102FD0008181893701F784E08093F1088091EF08BF
:102FE0009091F0088E3021E09207A8F642819C0172
:102FF0002F5F3F4F2093EF083093F008DC01AF5173
:10300000B84F4C9343812E3051E0350721F20296A0
:103010008093EF089093F0082F51384FD9014C93CB
:1030200008958D3771F483818D3409F0B4CF85E034
:10303000BFCF83818F3709F0AECF83E08093F10853
:1030400008958F3661F487E08093F108838121E051
:103050002093EF081092F0088093E10708958F35D0
:1030600009F099CF88E0F0CF2091F208211111C02A
:10307000FC012181203F09F456C01092EF08109204
:10308000F0081092F1081092F2088FEF809314016B
:10309000089530911401DC012C9122952170321396
:1030A000F7CF1092F2082091F108213009F441C0C5
:1030B000223019F34091EF085091F0084E30F1E0C2
:1030C0005F07D8F611962C91FA013196E093EF083C
:1030D000F093F008DA01AF51B84F2C93DC0112964F
:1030E0002C91EE30B1E0FB0741F2BA016E5F7F4FE9
:1030F0006093EF087093F008EF51F84F2083FC01C4
:1031000083816E30F1E07F0709F4B7CF4D5F5F4FE9
:103110004093EF085093F0086F51784FDB018C9388
:10312000832F5ADDAACF82818E3609F0A6CF93D4A1
:10313000A4CF11962C91293709F09FCF24E020933A
:10314000F1084091EF085091F0084E30B1E05B0774
:1031500008F093CFFC012281BA016F5F7F4F60932B
:10316000EF087093F008FA01EF51F84F2083DC016B
:1031700013968C916E30B1E07B0709F47ECF4E5FE1
:103180005F4F4093EF085093F0086F51784FFB0169
:103190008083832F21DD71CFFC019091F20891157E
:1031A00089F180911401908192959170891335C0B5
:1031B0001092F2089091F108923021F12091EF08DD
:1031C0003091F0082E3061E03607E0F49181A901DA
:1031D0004F5F5F4F4093EF085093F008D901AF5114
:1031E000B84F9C9392814E30E1E05E0759F02E5F1C
:1031F0003F4F2093EF083093F0084F51584FFA019A
:103200009083EADC1092EF081092F0081092F10817
:103210001092F2088FEF809314010895FC019091B1
:10322000F208911511F1809114019081929591709D
:10323000891326C01092F2089091F1089230A9F0FB
:103240002091EF083091F0082E3091E0390768F4B2
:103250009181A9014F5F5F4F4093EF085093F008B1
:103260002F51384FF9019083B7DC1092EF0810927C
:10327000F0081092F1081092F2088FEF8093140179
:1032800008952F923F924F925F926F927F928F920A
:103290009F92AF92BF92CF92DF92EF92FF920F93E5
:1032A0001F93CF93DF93CDB7DEB7A8970FB6F894EF
:1032B000DEBF0FBECDBF8330910508F492C0FB0185
:1032C000F080E180F110A6C08630910508F489C035
:1032D000E11409F486C02281211509F482C0D4804A
:1032E00005978D15910508F47CC0213108F079C04F
:1032F0000FB6F894A8958091600088618093600073
:10330000109260000FBEF3E0DF1608F460C04FEFCC
:10331000420F477088E1489F402D112432E08FEE24
:1033200091E0E31611F08FE690E0480F592F511D00
:103330002150330BC901959587959595879595955E
:103340008795919581959109807C90E03C01640E70
:10335000751E4B01F5E08F0E911C540100E010E04A
:10336000685F7F4F1B01FEA2FD2C6801C80CD91CB1
:10337000C101800F911FF6012191DF01220F2E93D1
:10338000E817F907C9F732E0C501E31609F4E3C00D
:10339000E2DA060D171D280183E0480E511CF601E4
:1033A00061916F01C8010E940D0C0F5F1F4F401605
:1033B0005106A9F7FEA1FD5FFEA30F2F10E023E049
:1033C000A20EB11CC80102968F15910574F288E116
:1033D0009FE00FB6F894A895809360000FBE90937D
:1033E0006000A8960FB6F894DEBF0FBECDBFDF9188
:1033F000CF911F910F91FF90EF90DF90CF90BF90F2
:10340000AF909F908F907F906F905F904F903F9084
:103410002F90089531E0F312E4CFE31609F49DC034
:1034200082E0E812DECF8FEE91E000E010E0932E14
:1034300020E8822EFE013196ECA3FDA337EF332E58
:103440008E1B9F0B9C012A5031092FA338A740E304
:10345000442E512CEEA22F2C7801540139E1831611
:10346000910418F088E1A82EB12C88E1881A9108FF
:1034700090EF99831A82E1E0EB83F9E7FC8324E083
:103480002D831E823EA13F83288680E18987AA86FC
:103490003B863C863D863E863F86388A398A3A8A14
:1034A0003B8A3C8A3D8A3E8A3F8A388E398E3A8EE4
:1034B0003B8E3C8E3D8E3E8E3F8E38A239A23AA284
:1034C0003BA20FB6F894A895809160008861809324
:1034D0006000109260000FBE98EE89169FEF99066B
:1034E000F9F03E01EBE06E0E711C6501C60CD71CB5
:1034F0000FA118A50E0D1F1DC801860D971D0E9456
:10350000180CFFE78F9FC0011124B2010E941A2CF2
:10351000F30161933F01EC15FD0571F7EA0CFB1C0B
:10352000F8E12FE00FB6F894A895F09360000FBE75
:1035300020936000BE016F5F7F4FC5010B96F9D8E5
:1035400080910C0790910D070E94C72B239431E1C5
:10355000231283CF46CF7BDA1CCF8FE690E065CF76
:10356000CF93DF93EC014130510599F0415051095F
:10357000FB0120E030E09081983128F46181DE0188
:10358000A90FB11D6C932E5F3F4F3296241735075C
:1035900090F3DF91CF9108951F93CF93DF93CDB731
:1035A000DEB7AD970FB6F894DEBF0FBECDBF80EF8C
:1035B00089831A8211E01B8389E78C8382E08D83E3
:1035C0001E831F8290E00E94180C8F5F88871987E6
:1035D00083E090E00E94180C8A8783E08B8785E067
:1035E00090E00E94180C8C8787E08D8789E090E03E
:1035F0000E94180C8E8788E08F878AE090E00E94F6
:10360000180C888B8AE0898B8EE090E00E94180C61
:103610008A8B8BE08B8B8DE090E00E94180C83707E
:103620008C8B8CE08D8B8DE090E00E94180C829545
:103630008F708E8B8DE08F8B8CE090E00E94180C49
:103640008150888F8EE0898F8FE090E00E94180C67
:103650008A8F8FE08B8F80E190E00E94180C8C8F16
:1036600080E18D8F81E190E00E94180C8E8F81E1C6
:103670008F8F82E190E00E94180C88A382E189A3D9
:1036800083E190E00E94180C8AA383E18BA384E17C
:1036900090E00E94180C8CA384E18DA385E190E05A
:1036A0000E94180C8EA385E18FA386E190E00E9412
:1036B000180C88A786E189A787E190E00E94180C82
:1036C0008AA787E18BA788E190E00E94180C8CA75D
:1036D00087EF8DA7BE016F5F7F4F8DE290E029D805
:1036E000AD960FB6F894DEBF0FBECDBFDF91CF9180
:1036F0001F910895EF92FF920F931F93CF93DF9343
:10370000CDB7DEB7A5970FB6F894DEBF0FBECDBF1D
:103710000FB6F894A895209160002861209360006E
:10372000109260000FBE08E1FE013196DF01202FEC
:103730001D922A95E9F7AC01CF0112DF8A81898FAA
:10374000AC81AA8FB885BB8F29852C8F8B858D8FF7
:10375000FC841D85EE84AF85AE8FB989BF8F2A8921
:1037600028A38B8989A3AD89AAA3BE89BBA32F896E
:103770002CA3888D8DA36981615082E090E00E9426
:103780000D0C698D83E090E00E940D0C6A8D85E040
:1037900090E00E940D0C6B8D89E090E00E940D0C72
:1037A0006C8D8AE090E00E940D0C6D8D8EE090E0B3
:1037B0000E940D0C612F6295607F6F298DE090E073
:1037C0000E940D0C61E06E0D8CE090E00E940D0CEB
:1037D0006E8D8FE090E00E940D0C6F8D81E190E086
:1037E0000E940D0C68A182E190E00E940D0C69A17D
:1037F00083E190E00E940D0C6AA185E190E00E94B7
:103800000D0C6BA186E190E00E940D0C6CA187E18C
:1038100090E00E940D0C6DA188E190E00E940D0CDB
:103820000E94DF13B9DE0E94FF0C8FE00FB6F89400
:10383000A895009360000FBE80936000A5960FB618
:10384000F894DEBF0FBECDBFDF91CF911F910F91D6
:10385000FF90EF900895892B19F0FB018081811171
:1038600008950FB6F894A8958091600088618093C0
:103870006000109260000FBE8FDE88E19FE00FB6FF
:10388000F894A895809360000FBE9093600008950F
:10389000892B09F451C0FB018081813009F44DC0AE
:1038A000823009F008950FB6F894A89580916000D1
:1038B000886180936000109260000FBE0E943C0CF3
:1038C0004FEF5FEF6FEF70E0CA010E94BB0DFFEF9B
:1038D00021EE84E0F15020408040E1F700C000007C
:1038E0004FEF5FEF6FEF70E080E090E00E94BB0D64
:1038F0009FEFE1EEF4E09150E040F040E1F700C0CE
:1039000000004FEF5FEF6FEF70E0CA010E94BB0D48
:103910002FEF81EE94E0215080409040E1F700C00D
:1039200000003ADE88E19FE00FB6F894A8958093F6
:1039300060000FBE9093600008950FB6F894A895AC
:1039400080916000886180936000109260000FBEDB
:103950000E94A00EC1C86AE77BE181E0B8DA6BE2A1
:103960007CE182E0B4DA68E47CE183E0B0DA61E42F
:1039700079E184E0ACCACF93DF9300D00F92CDB74A
:10398000DEB769834A832B83DFD390E0FC01EE0F1F
:10399000FF1FE80FF91FED50F74F8981682F70E086
:1039A0006E5F7F4F769567957695679560838A8180
:1039B000482F50E04E5F5F4F569547955695479577
:1039C00041838B81282F30E02E5F3F4F369527951E
:1039D0003695279522830F900F900F90DF91CF910E
:1039E0000895EF920F931F93CF93DF9370E0EB0155
:1039F000CC0FDD1FC60FD71F90E6899FC00DD11DCC
:103A00001124122F1F730F7360E4629F602D112425
:103A10004F73642BCE0181599F4F0E94200C612F60
:103A200066956695802F8295807F682BCE018059A0
:103A30009F4F0E94200C602F62956F70EE0CEE0C71
:103A40006E29CE018F589F4FDF91CF911F910F911B
:103A5000EF900C94200CE3EFF8E080ECDF011D9276
:103A60008A95E9F708953F924F925F926F927F9205
:103A70008F929F92AF92BF92CF92DF92EF92FF927E
:103A80000F931F93CF93DF93FC015B01861797077A
:103A900008F071C0D3E04D2EDCE15D2ED081218194
:103AA0009281D6FB882782F926FB332731F9832BB5
:103AB00096FD81606F01811509F4C4C033E0C30E27
:103AC000D11C682EDF732F739F73D111DE5FC2E0AC
:103AD0009C2E920E211101C0912CB2E08B2E890EEA
:103AE000911101C0812C7601E60CF11C860114C0F5
:103AF000C32DCF738C2F28D390E0FC01EE0FFF1F56
:103B0000E80FF91FED50F74FD0839182828236FC87
:103B10006AC00E151F0531F1F80130800F5F1F4F8D
:103B2000832D8077803621F733FA772473F833FEBC
:103B300034C083E232FE83E0C0E03822832D8C2B38
:103B400003D390E0FC01EE0FFF1FE80FF91FED50CB
:103B5000F74FD08391828282CC5FC03279F70E1505
:103B60001F05D1F66A94F6013196E60DF11DEA15AE
:103B7000FB0508F493CFDF91CF911F910F91FF9038
:103B8000EF90DF90CF90BF90AF909F908F907F90FD
:103B90006F905F904F903F900895C32DCC0FCC0F46
:103BA000CC713C2E3728832DCFD290E0FC01EE0F54
:103BB000FF1FE80FF91FED50F74FD08391828282EB
:103BC000832D8062C1D290E0FC01EE0FFF1FE80F51
:103BD000F91FED50F74FD08391828282739434E0C5
:103BE0007312DFCF96CF832D80958F73ADD290E087
:103BF000FC01EE0FFF1FE80FF91FED50F74FD083C8
:103C00009182828235FE85CF832D8F7184259CD24F
:103C100090E0FC01EE0FFF1FE80FF91FED50F74F8A
:103C2000D083918282828C2F85258ED290E0FC01F8
:103C3000EE0FFF1FE80FF91FED50F74FD083918271
:103C4000828267CF84E0C80ED11C6380F6016110C8
:103C500039CF8DCFDF92EF92FF920F931F93CF93C7
:103C6000DF93EC01039686179707E0F58B0104506C
:103C700011090C1B1D0B0C7F0C5F1F4F0C0F1D1F20
:103C80008B818F73F82E8A818F73E82E89818F73D1
:103C9000D82E88818F7358D2D11411F0D394D39435
:103CA00090E09C01220F331FF901E80FF91FED503E
:103CB000F74FD082E11411F0E394E394F901E80F97
:103CC000F91FED50F74FE182F11411F0F394F394E2
:103CD000280F391FF901ED50F74FF28224960C1787
:103CE0001D0771F6DF91CF911F910F91FF90EF901B
:103CF000DF9008951F93CF93DF93162FD42FC22FF9
:103D000023D211111E5F90E0FC01EE0FFF1FDF01B7
:103D1000A80FB91FAD50B74F1C93D111DE5FDF0163
:103D2000A80FB91FAD50B74F1196DC93C111CE5FEC
:103D3000E80FF91FED50F74FC283DF91CF911F912C
:103D40000895633008F00895942F9F7770E0660F10
:103D5000771FFB01E856FE4F0190F081E02DE90F3F
:103D6000F11D2491FB01E256FE4F0190F081E02D00
:103D7000E90FF11D44916C557E4FDB01ED91FD91F2
:103D8000E90FF11D6491F7CDCF93DF9300D000D000
:103D9000CDB7DEB7833058F5962F9370669566954C
:103DA00070E09B01220F331F260F371F40E6849FD0
:103DB000200D311D11242B833C8321593F4F91301D
:103DC00098F1E9F02B813C812F583F4F29833A83AA
:103DD0009230A9F189819A810E94180C8695869566
:103DE0000F900F900F900F90DF91CF91089580E08A
:103DF0000F900F900F900F90DF91CF910895C90110
:103E00000E94180C89838B819C8180599F4F0E944E
:103E1000180C982F990F990F9C73298184E0829F29
:103E2000812D1124892BDCCFC9010E94180C8F73BE
:103E30000F900F900F900F90DF91CF9108958B818D
:103E40009C8180599F4F0E94180C8B8389819A8195
:103E50000E94180C982F929590738B8182958F7089
:103E6000892BBECFEF920F931F93CF93DF9300D098
:103E70000F92CDB7DEB789838330B8F46115710531
:103E8000A1F06A837B8310E0EA81FB81E3800281F9
:103E900021814081612F8981A4DD1F5F8A819B81FF
:103EA00004968A839B83103279F70F900F900F90BE
:103EB000DF91CF911F910F91EF900895EF92FF92B4
:103EC0000F931F93CF93DF9300D00F92CDB7DEB740
:103ED0007B018A012A833B838F778983672B59F083
:103EE000682F80E051DF982F92959F70880F880F80
:103EF000982BF70190830115110559F0698181E034
:103F000043DF982F92959F70880F880F982BF801A8
:103F100090838A819B81892B61F0698182E034DF03
:103F2000982F92959F70880F880F982BEA81FB81BC
:103F300090830F900F900F90DF91CF911F910F9171
:103F4000FF90EF900895AF92BF92CF92DF92EF92E1
:103F5000FF920F931F93CF93DF9300D000D000D038
:103F6000CDB7DEB780E793E00E94180C863309F4E2
:103F70004CC086E0E2E9F1E0DE01119601900D927D
:103F80008A95E1F7CE0101965C0110E0F501C19040
:103F9000D1905F01F3E0CF0ED11CF12CF601E4903B
:103FA000319704913197249131974491E694E694A6
:103FB0000695069526952695469546956F2D812F53
:103FC00010DDF394F4E0CF0ED11C80E2F812E6CFBE
:103FD0001F5F1330D9F666E380E793E00E94200C60
:103FE00062E481E793E00F900F900F900F900F9095
:103FF0000F90DF91CF911F910F91FF90EF90DF9085
:10400000CF90BF90AF900C94200C81E793E00E947A
:10401000180C823409F0ADCF0F900F900F900F90D5
:104020000F900F90DF91CF911F910F91FF90EF9024
:10403000DF90CF90BF90AF900895CF93DF9300D0E3
:1040400000D0CDB7DEB78C83862F9E012F5F3F4F08
:10405000AE014E5F5F4FBE016D5F7F4F2FDF298145
:104060004A816B818C810F900F900F900F90DF91A0
:10407000CF9181CCCF93DF93CDB7DEB728970FB622
:10408000F894DEBF0FBECDBF892BC9F0FB01608164
:104090006F37F1F480EF89831A8281E08B8389E79F
:1040A0008C8388E08D838091B3098E8387EF8F8323
:1040B000BE016F5F7F4F87E090E00E9499132896C2
:1040C0000FB6F894DEBF0FBECDBFDF91CF9108953C
:1040D000637068876093B30989E190E00E94180CCF
:1040E000F8858F17B9F26F2F89E190E00E940D0CCF
:1040F000D1CF8AE190E00E94180C853A91F060E0FF
:1041000089E190E00E940D0C65EA8AE190E00E944E
:104110000D0C80E08093B3096AE370E288E00C94B0
:10412000671789E190E00E94180C843098F360E0F2
:1041300089E190E00E940D0CECCF83708093B3096D
:1041400008958091B3090895E091B30990E4E99F3F
:10415000F00111248F73E80FF11DE35EF94F849194
:104160000895E091B309E195E37090E4E99FF001CF
:1041700011248F73E80FF11DE35EF94F84910895C8
:10418000E3EFF8E0A1E1B7E09081818122812D93F6
:104190009D938D93339689E0E33BF807A9F7089543
:1041A0001F93CF93DF9300D000D0CDB7DEB78091BF
:1041B000CE09843079F410E402C0115059F0BE01E8
:1041C0006F5F7F4F80910C0790910D070E94E12B4C
:1041D0008111F3CF0E94702BA8950F900F900F9034
:1041E0000F90DF91CF911F910895CF93C82F33DCAB
:1041F00010923809C11182C080E48093390910926D
:104200003A0910928F0980939009109291091092A7
:104210007A0982E180937B0910927C0910928609C9
:10422000809387091092880982E192E11092140923
:10423000909315091092160910926B0990936C09CE
:1042400010926D0910921D0980931E0910921F098A
:104250001092290980932A0910922B090E94EB0ED3
:10426000EDE3F7E050E020E03FEF0BC0482F491BA3
:10427000942F931710F4392F522F2F5F3196283037
:1042800029F09491981790F3981BF3CFC3706C2F7B
:1042900070E0FB01EE0FFF1FEE0FFF1FEE0FFF1F81
:1042A000E35EF84F90E040E4951342E1249130E062
:1042B000D901AA0FBB1FA20FB31FAD50B74F4D932B
:1042C0004D934C939F5F3196983069F7C330D9F185
:1042D000665D7C4FFB01808190E0FC01EE0FFF1FCB
:1042E000E80FF91FED50F74F80E4808311821282AE
:1042F00047DF81E197E0CF910C94050F82E1809335
:10430000390910923A0910928F09809390091092FE
:10431000910910927A09C13011F480E47BCF809327
:104320007B0910927C09109286098093870910926C
:10433000880990E4C23009F479CF80E492E1C33077
:1043400009F474CF71CF8FE390E0C7CF0F9383E26E
:10435000FBDE082F21E030E040E050E0BA01CA0166
:104360000E94552CE09171062E23E09172063E23A7
:10437000E09173064E23E09174065E23E09175068A
:104380006E23E09176067E23A0917706F091780661
:10439000E1E08A239F23A0E00E948B2C09F4E0E057
:1043A0008E2F0F910895CDDE382E0E94B50D832DEE
:1043B0001CDF1092590610925A0610925B0610925A
:1043C0005C0610925D0610925E0610925F061092D7
:1043D00060061092610610926206109263061092B7
:1043E0006406109265061092660610926706109297
:1043F00068068091710680936906809172068093A9
:104400006A068091730680936B0680917406809390
:104410006C068091750680936D0680917606809378
:104420006E068091770680936F0680917806809360
:104430007006832D8370482E0E94A3110E94DC1108
:1044400093E0491609F4DEC0E42DF0E0DF01A65D3B
:10445000BC4F0C9121E030E040E050E0BA01CA01CD
:104460000E94552CE901042FF52EE62E772E682E9A
:10447000592EB0905906C0905A0610915B06A09034
:104480005C0690905D06D0905E06B0915F068090CD
:1044900060062B2D2C233C2D3D23412F40235A2DEC
:1044A0005F21692D6E217D2D77218B2F8621982DFF
:1044B0009521A0E00E948B2C09F0B5C0EE0FFF1FE4
:1044C000EE0FFF1FEE0FFF1FCF01835E984F7C01A1
:1044D000C0E0D0E0F701EC0FFD1F049121E030E0D7
:1044E00040E050E0BA01CA010E94552C2B213C212A
:1044F00041235A2169217D218B239821A0E00E942C
:104500008B2C09F0CAC02196C830D10519F7412F6C
:10451000407820E030E050E0B9018B2F807190E0CE
:104520000E948B2C09F40DC110E0311661F0812F2F
:1045300004DE612F89E190E00E94200C65EA8AE1A7
:1045400090E00E94200C812F50DEC8E7D0E028DEEA
:104550008FE99FE00197F1F700C000002197B9F7BC
:104560001092590610925A0610925B0610925C0641
:1045700010925D0610925E0610925F061092600621
:104580001092610610926206109263061092640601
:1045900010926506109266061092670610926806E1
:1045A00080917106809369068091720680936A06F5
:1045B0008091730680936B068091740680936C06DD
:1045C0008091750680936D068091760680936E06C5
:1045D0008091770680936F068091780680937006AD
:1045E000312E912F9370492EDBDDEFE9FFE03197FB
:1045F000F1F700C000000E94A3110E94DC1193E0BB
:10460000491222CFC0E0D0E000E07E01370190E8FF
:10461000592EE3E0F0E02DCFC3DDEFE9FFE0319765
:10462000F1F700C000000E94A311209171062C2315
:10463000309172063D2340917306402350917406D9
:104640005F21609175066E217091760677218091C9
:1046500077069091780686219521A0E00E948B2C08
:10466000D9F6F9D98DDD81E197E00E94050FCEE101
:10467000D0E096DD8FE99FE00197F1F700C00000E0
:104680002197B9F788E198E00FB6F894A895809340
:1046900060000FBE90936000FFCFC35CD84FFE0157
:1046A000C4918C2F0E94CE0E6C2F82E793E00E9463
:1046B000200C68EB83E793E00E94200C832D95DDAE
:1046C0001092590610925A0610925B0610925C06E0
:1046D00010925D0610925E0610925F0610926006C0
:1046E00010926106109262061092630610926406A0
:1046F0001092650610926606109267061092680680
:1047000080917106809369068091720680936A0693
:104710008091730680936B068091740680936C067B
:104720008091750680936D068091760680936E0663
:104730008091770680936F0680917806809370064B
:1047400053CF7D2D707240E08B2F82700E948B2C96
:1047500011F011E0EACE3C2D38707D2D717080E0B3
:104760000E948B2C11F012E0E0CE3C2D3074412FD2
:10477000447070E013E00E948B2C09F0D6CE34CF49
:104780001F93CF93DF9300D000D0CDB7DEB78091D9
:10479000CE09843079F410E402C0115059F0BE0102
:1047A0006F5F7F4F80910C0790910D070E94E12B66
:1047B0008111F3CF0F900F900F900F90DF91CF9159
:1047C0001F910895EF92FF920F931F93CF93DF9362
:1047D00042D90E94581481E197E00E94050FE12C14
:1047E000F12CC3E0D0E0F701EB5BF84F0491F70147
:1047F000EA5BF84FE4911E2FF701E95BF84FE49074
:104800000115110571F001501109BADF69D7A8959A
:104810008FE99FE00197F1F700C0000001501109F6
:10482000A0F7E11409F455C08E010E0D111D0E0DF7
:10483000111D28C0FE01ED5BF84F9491FE01EC5B69
:10484000F84F44919034D8F4892F86958695382F67
:10485000309521E0903208F420E0220F220F93706F
:10486000290F220F220F3370230F002482FF03949D
:10487000802D8295880F807E60E0820F62DAC017FB
:10488000D10739F17E012296CF3A8BE0D80790F21A
:104890000E94581481E197E00E94050F71DF20D734
:1048A000A895E7012396CF3A9BE0D90708F49BCF60
:1048B000D2D80E94581481E197E00E94050F60DF72
:1048C0000FD7A895DF91CF911F910F91FF90EF9097
:1048D00008957E01DDCF8091B909877F8093B90962
:1048E0008091BF09877F8093BF098091C509877F29
:1048F0008093C50982E08093C60980915506909106
:104900005606A0915706B09158060197A109B10922
:104910008093C7099093C809A093C909B093CA09A5
:1049200008952F923F924F925F926F927F928F9253
:104930009F92AF92BF92CF92DF92EF92FF920F932E
:104940001F93CF93DF931C01C0905506D09056065D
:10495000E0905706F09058068091C7099091C809D9
:10496000A091C909B091CA0967E0B695A795979536
:1049700087956A95D1F7A601B701E7E07695679527
:1049800057954795EA95D1F784179507A607B70776
:1049900009F486C08091C6098F5F282F30E08330EC
:1049A00008F099C18093C609F901EE0FFF1FE20FCD
:1049B000F31FEE0FFF1FDF01AC54B64FA601B70186
:1049C00040784D935D93ED927D93E854F64F81814D
:1049D000886081830E94C4132091C60930E0F901E8
:1049E000EE0FFF1FE20FF31FEE0FFF1FE854F64F0D
:1049F00087709081907F892B80830E94C4132091BF
:104A0000C60930E0F901EE0FFF1FE20FF31FEE0FB2
:104A1000FF1FE854F64F87708295807F90819F70CA
:104A2000892B808304C091FD3BC0811139C00E9455
:104A3000C4132091C60930E0F901EE0FFF1FE20F09
:104A4000F31FEE0FFF1FE854F64F918180FB90F9A2
:104A500091830E94C4132091C60930E0F901EE0F42
:104A6000FF1FE20FF31FEE0FFF1FE854F64F918177
:104A700080FB91F991830E94C4132091C60930E014
:104A80008170F901EE0FFF1FE20FF31FEE0FFF1F02
:104A9000E854F64F918180FB92F9918390FFC3CF48
:104AA000C092C709D092C809E092C909F092CA0918
:104AB00080ECE10119928A95E9F744EB59E020E096
:104AC00030E0D901AA0FBB1FA20FB31FAA0FBB1F53
:104AD000BD016754764FFB01808183FD1AC02F5FB3
:104AE0003F4F4A5F5F4F2330310559F7DF91CF9138
:104AF0001F910F91FF90EF90DF90CF90BF90AF90FC
:104B00009F908F907F906F905F904F903F902F90ED
:104B10000895560180E090E010E0A854B64FEA01F5
:104B2000E881F981E501CE1BDF0BFE01E81BF90BE3
:104B30000AF458C0EB01888080FE5DC0E034F105C6
:104B40000CF4BEC0EF37F1050CF04CC00EE7402E60
:104B50004E1A81FEA3C0942C82FE4BC0892CFC917E
:104B6000EF2FE295EF70FF70512E5F0ED8E05D16CB
:104B7000C8F4E83008F085C0E2FBFF27F5F9E370E0
:104B8000EF2B550C550CE529E10103E0E002C00DC7
:104B9000D11D1124488299828A82FC91EF2FE295DF
:104BA000EF70FF705F2E511AC8E05C16C8F4E83051
:104BB00090F4550C550CFE2FF3705F2AE2FBEE27A4
:104BC000E5F9E529E10103E0E002C00DD11D112462
:104BD000488299828A82FC91EF2FE295EF70FF70F4
:104BE000F830B8F01F5F4896183009F098CF77CFAB
:104BF000912C812CB4CFE034F1050CF456C0EF3782
:104C0000F10584F781FE49C00EE7902E9E1A412CD3
:104C1000A3CF5E2E510EC8E05C16B8F5EF2FEE0F55
:104C2000EE0FF52DF370EF2B52FA552455F8E529C8
:104C3000D3E0ED02F0011124E20DF31D40829182D8
:104C40008282FC915F2E5294DFE05D22511AFF7048
:104C5000F83040F6E8E05E1628F6EF2FEE0FEE0F84
:104C6000F52DF370EF2B52FA552455F8E52903E0A2
:104C7000E002F0011124E20DF31D40829182828254
:104C8000B1CFF11BF83008F4A6CFFC915F2E5294FF
:104C9000CFE05C22511AFF70DDCF412C82FEA8CFFD
:104CA000FEE78F2E8E1A912C5ACFDFE34D2E4E1A2F
:104CB000942C81FC09C082FE51CF0FE3802E4FCF90
:104CC00081FE0DC0DFE34D2E82FE11C0EFE39E2E6C
:104CD0000FE3802E44CF80E020E030E063CEFFE39E
:104CE0009F2E9E1ACFE34C2E82FCE7CF37CFFFE3F7
:104CF0008F2E8E1ACFE39C2E32CFBF92CF92DF92AF
:104D0000EF92FF920F931F93CF93DF938C01EB01F0
:104D10006A0105D2B82E81112EC0C114D10439F018
:104D2000F60180819181C81BD90B080F191F2097AC
:104D300011F1E12CF12C9091E80095FF0FC0F801E2
:104D400090819093F1002197B1F00F5F1F4FFFEF1B
:104D5000EF1AFF0A9091E80095FDF1CF9091E800DD
:104D60009E779093E800BCD4C114D10479F4D7D1D4
:104D7000811509F3B82E8B2DDF91CF911F910F91E3
:104D8000FF90EF90DF90CF90BF900895F601808163
:104D900091818E0D9F1D8083918385E0B82EEBCF8E
:104DA000BF92CF92DF92EF92FF920F931F93CF9318
:104DB000DF938C01EB016A01B2D1B82E81112EC0B4
:104DC000C114D10439F0F60180819181C81BD90B3F
:104DD000080F191F209711F1E12CF12C9091E80098
:104DE00095FF0FC09091F100F80190832197B1F0E9
:104DF0000F5F1F4FFFEFEF1AFF0A9091E80095FD3C
:104E0000F1CF9091E8009B779093E80069D4C114AA
:104E1000D10479F484D1811509F3B82E8B2DDF915B
:104E2000CF911F910F91FF90EF90DF90CF90BF90A7
:104E30000895F601808191818E0D9F1D808391835D
:104E400085E0B82EEBCFFC012091D5093091D60931
:104E50002617370748F06115710529F48091E8009D
:104E60008E778093E8009B0190E00EC0853039F189
:104E70008091E80083FD25C08091E80082FD19C083
:104E80008091E80080FD1FC02115310511F49115B6
:104E900081F08091CE098111E9CF82E0089580915F
:104EA000CE098115D1F3853051F08091E80083FD62
:104EB00008C08091E80082FFF2CF80E0089583E08F
:104EC000089581E008958091F3004091F200582FF9
:104ED00021153105A9F491E04034510509F090E025
:104EE0008091E8008E778093E800CECF8191809307
:104EF000F100215031094F5F5F4F2115310559F302
:104F00004034510598F391E04034510541F7E8CF22
:104F1000FC012091D5093091D6092617370748F0B2
:104F20006115710529F48091E8008E778093E8007F
:104F30009B0190E00EC0853039F18091E80083FD3F
:104F400025C08091E80082FD19C08091E80080FDB5
:104F50001FC02115310511F4911581F08091CE0902
:104F60008111E9CF82E008958091CE098115D1F3B6
:104F7000853051F08091E80083FD08C08091E80001
:104F800082FFF2CF80E0089583E0089581E00895E4
:104F90008091F3004091F200582F21153105B1F4B2
:104FA00091E04034510509F090E08091E8008E775F
:104FB0008093E800CECF84918093F1003196215008
:104FC00031094F5F5F4F2115310551F340345105D1
:104FD00090F391E04034510539F7E7CF873070F511
:104FE000982F24C07091EC003091ED005091F000AA
:104FF00031FF19C02091EB002E7F2093EB00209110
:10500000ED002D7F2093ED002091EB002160209397
:10501000EB007093EC003093ED005093F000209182
:10502000EE0027FF10C09F5F973041F09093E9009A
:105030008913D8CF342F762F50E0DACF8F7080933A
:10504000E90081E0089580E008950F931F93CF93C6
:10505000DF936115E9F1EC0170E08B01000F111F86
:10506000000F111F060F171F080F191F04C02596E8
:105070000C171D0769F158815115C9F3852F8F70E1
:10508000873000F5E981FA816B819C8146E092309E
:1050900008F442E0E930F10560F028E030E090E00B
:1050A0009F5F220F331F2E173F07D0F39295907FFB
:1050B000492B6295660F660F607C57FD61608EDF3D
:1050C0008111D5CF80E0DF91CF911F910F9108958D
:1050D00081E0DF91CF911F910F9108958091CF09C9
:1050E00087FF05C012C08091CE09811549F08091DB
:1050F000E80080FFF8CF8091E8008E778093E80089
:1051000008958091CE098115D9F38091E80082FF3E
:10511000F8CF8091E8008B778093E8000895809124
:10512000E4009091E50025E6AC019091EC00892F18
:10513000817090FD19C09091E80092FD1CC0809193
:10514000CE098115C9F08530C9F08091EB0085FD4D
:1051500011C08091E4009091E5004817590729F3A8
:10516000215011F784E008958091E80080FFE7CF97
:1051700080E0089581E0089582E0089583E0089535
:1051800064D06BD0E0EEF0E0808181608083E8ED58
:1051900080818F77808319BCA7EDB0E08C918E7FE2
:1051A0008C9380818F7E80831092D70908950F930E
:1051B0001F93CF93DF9349D050D0C8EDD0E08881C2
:1051C0008F77888388818068888388818F7D8883B2
:1051D00019BC1092CE091092CD091092CB091092F1
:1051E000CC0900EE10E0F80180818B7F80838881FC
:1051F0008160888342E360E080E0F0DEE1EEF0E091
:1052000080818E7F8083E2EE8081816080838081D7
:1052100088608083E0EE80818E7F808388818061DA
:105220008883DF91CF911F910F910895E8EDF0E011
:1052300080818F7E8083E7ED80818160808384E040
:1052400082BF81E08093D709B2CFE8EDF0E08081A2
:105250008E7F80831092E20008951092DA001092FF
:10526000E10008951F920F920FB60F9211242F9311
:105270003F934F935F936F937F938F939F93AF93DE
:10528000BF93EF93FF938091E10082FF04C0809170
:10529000E20082FD8CC08091DA0080FF04C0809122
:1052A000D80080FD6EC08091E10080FF04C0809135
:1052B000E20080FD83C08091E10084FF2BC08091DB
:1052C000E20084FF27C080E189BD82E189BD09B485
:1052D00000FEFDCF8091D8008F7D8093D800809113
:1052E000E1008F7E8093E1008091E2008F7E8093C9
:1052F000E2008091E20081608093E2008091CD091C
:10530000811171C08091E30087FD77C081E08093B7
:10531000CE09E5D18091E10083FF22C08091E200B7
:1053200083FF1EC08091E100877F8093E10082E0CF
:105330008093CE091092CD098091E1008E7F8093F9
:10534000E1008091E2008E7F8093E2008091E20094
:1053500080618093E20042E360E080E03FDEBFD105
:10536000FF91EF91BF91AF919F918F917F916F913D
:105370005F914F913F912F910F900FBE0F901F9013
:1053800018958091DA008E7F8093DA008091D900A1
:1053900080FF2DC080E189BD82E189BD09B400FE96
:1053A000FDCF81E08093CE090E94B2097CCF80912D
:1053B000E1008B7F8093E10092D16DCF8091E2007C
:1053C0008E7F8093E2008091E20080618093E20012
:1053D0008091D80080628093D80019BC85E08093CA
:1053E000CE097DD168CF84E08093CE0992CF19BCDD
:1053F0001092CE090E94B30956CF83E088CFCF9395
:10540000DF93CDB7DEB7AB970FB6F894DEBF0FBE14
:10541000CDBF8FEC99E0FC0101962091F100208333
:1054200029E0873D9207B9F75AD18091E80083FFC0
:1054300006C09091CF098091D0098A30B8F0809150
:10544000E80083FF0AC08091E800877F8093E8002E
:105450008091EB0080628093EB00AB960FB6F894DE
:10546000DEBF0FBECDBFDF91CF910895E82FF0E0F2
:10547000EB55F34D14C2911509F4C8C09230F9F6FA
:105480009091D109911120C09091D3099F70B9F2E8
:105490009093E9002091EB0020FF16C0833009F4BF
:1054A00018C18091EB0080618093EB0021E001C086
:1054B000220F9A95EAF72093EA001092EA00809171
:1054C000EB0088608093EB001092E9008091E80087
:1054D000877F8093E80002DEB2CF903809F4A1C044
:1054E000923809F0ACCF8091D3098F708093E90096
:1054F0008091EB0085FB882780F91092E90090915C
:10550000E800977F9093E8008093F1001092F100FB
:105510008091E8008E778093E800E0DD90CF9111D4
:105520008ECF8091D109823008F089CF9091E80028
:10553000977F9093E8008093CD09D0DD8091CD09CD
:10554000811509F475C084E08093CE090E94B409E6
:1055500076CF903809F073CF8091E800877F8093F1
:10556000E8008091CD098093F1008091E8008E776A
:105570008093E800B3DD63CF9058923008F05FCF9E
:105580008091D1099091D2098C3D23E0920709F4D2
:1055900057C0AE014F5F5F4F6091D3090E9428153D
:1055A000BC01892B09F44BCF9091E800977F909331
:1055B000E80089819A81ACDC8091E8008B77809348
:1055C000E8003DCF91113BCF8091D1098F778BA718
:1055D0008091E30080789BA5892B8093E3008091E4
:1055E000E800877F8093E80079DD8091E80080FF04
:1055F000FCCF8091E30080688093E3002BA583E0DB
:10560000211101C082E08093CE0919CF9091D10978
:10561000913009F014CF833009F090E09093CB09DA
:1056200053CF8091CB09880F9091CC09892B67CFFC
:105630008091E30087FD4BC081E08093CE0986CF47
:1056400083E08A838AE289835FB7F894DE01139648
:1056500020E03EE0EEE0F0E041E24093570084912C
:1056600020FD0CC08F708A30D0F0895C8D931D9224
:105670002F5F40935700849120FFF4CF982F92958D
:105680009F70803A88F0995C9D931D9212972F5FCE
:10569000243161F03F5F1296E32FF0E0DECF805DB2
:1056A0008D931D922F5FD9CF905DEECF5FBF80911C
:1056B000E800877F8093E8006AE270E0CE010196FF
:1056C000C2DB8091E8008B778093E800B8CE84E05D
:1056D000B4CF8091EB0080628093EB00F5CE08950B
:1056E000CF93DF930F92CDB7DEB78091CE098115AE
:1056F000A1F09091E9008091EC009F7080FB8827D9
:1057000087F9982B99831092E9008091E80083FD36
:1057100008C089818F708093E9000F90DF91CF914D
:1057200008956DDEF6CFCF93DF93EC011B8682E008
:105730008C83898761E0CE01019687DC811103C0EB
:10574000DF91CF91089561E0CE010696DF91CF9170
:105750007CCCFC019B019091CE0982E0943009F051
:10576000089591819F709093E90040E050E064E0DB
:1057700070E0C901C2DA8111F3CF9091E80095FD84
:10578000EFCF9091E8009E779093E8000895FC0198
:105790009091CE09943099F481818F708093E900C3
:1057A0002091F3008091F200922F892B11F480E078
:1057B00008958091E8008E778093E800B0CC82E075
:1057C0000895FC019B019091CE09943061F496817B
:1057D0009F709093E9008091E80082FF04C080915F
:1057E000E80085FD02C080E0089540E050E064E0FC
:1057F00070E0C901D5DA8091E80085FD05C080918F
:10580000E8008B778093E80081E00895AA1BBB1B1A
:1058100051E107C0AA1FBB1FA617B70710F0A61BB0
:10582000B70B881F991F5A95A9F780959095BC01D1
:10583000CD01089597FB072E16F4009406D077FD4E
:1058400008D0E4DF07FC05D03EF4909581959F4F8A
:105850000895709561957F4F0895A1E21A2EAA1BB5
:10586000BB1BFD010DC0AA1FBB1FEE1FFF1FA21710
:10587000B307E407F50720F0A21BB30BE40BF50B0D
:10588000661F771F881F991F1A9469F76095709596
:10589000809590959B01AC01BD01CF010895EE0F5D
:1058A000FF1F0590F491E02D0994002E083090F030
:1058B000982F872F762F652F542F432F322F222793
:1058C0000850F4CF220F331F441F551F661F771F48
:1058D000881F991F0A95B2F7002D089597FD10941F
:1058E000002E083098F00850232F342F452F562FC4
:1058F000672F782F892F912DF4CF15949795879541
:105900007795679557954795379527950A95AAF7FF
:105910001124002D08950024A7FD00942A173005B6
:105920004005500560057005800590050895F894C0
:10593000FFCF890A830A7D0A770A610A4B0A250A82
:10594000250A250A250A250A3C0A6D2A3B2A1F2A10
:0E5950003B2A1F2AE22ABC2A1F2AA92A8F2AD4
:10595E004E04B44A0E0182400000010140000001D5
:10596E0000938D0FFF30000000000030000000009B
:10597E000000000030000000000030000030000089
:10598E0000000030000000000000000030000000A9
:10599E000000300000000000300000180000280C4D
:1059AE0000140600201900100C001920000C100025
:1059BE00003000001800001E1E000F0F0000300007
:1059CE0000181907200D03112400121200091818CF
:1059DE0018F07E7F060200017906000100302403D4
:1059EE0020F79D051D059D049D041D039D011D05AC
:1059FE009D031D029D051D049D0200000010101048
:105A0E002020203F3F3F3F0F0F3F0000200000109F
:105A1E0000003F2E1A3F0F002008001004003F2BFD
:105A2E000B3F3F00202000101000213F0C143F00C0
:105A3E000A2000051000123F12003F000020000057
:105A4E001000123F17003F06002003001001123F06
:105A5E0016003F1500200B001006123F2D003F25AB
:105A6E0000201200100912303F00293F00152000BF
:105A7E000B1012213F00153F000B200006100B09E2
:105A8E003F00003F0000200000101A0D3E0B003FAB
:105A9E000600200300103F0F3F3F003F2000201064
:105AAE0000103F101B3F001420000A1000053F039A
:105ABE0000250D001D1400080D01000E0000120639
:105ACE0000051B00003F0011130400321F1F1F07AB
