:100000000C947A090C94B0090C94B0090C94B009C2
:100010000C94B0090C94B0090C94B0090C94B0097C
:100020000C94B0090C94B0090C9451280C94B009AC
:100030000C94B0090C94B0090C94B0090C94B0095C
:100040000C94B0090C94B0090C94B0090C94B0094C
:100050000C941A0D0C94B0090C94B0090C941B115B
:100060000C94B0090C94B0090C94B0090C94B0092C
:100070000C94B0090C94B0090C94B0090C94B0091C
:100080000C94B0090C94B0090C94B0090C94B0090C
:100090000C94B0090C94B0090C94B0090C94B009FC
:1000A0000C94B0090C94B0090C94B00912033600FA
:1000B00036003600360036003600360041000000BB
:1000C0002C034D00690064006900200046006900AF
:1000D000670068007400650072002000360034007C
:1000E00020002800430046005700290000001203AA
:1000F0004D00460036003400200043004600570003
:100100000000040309040902850002010080F009CF
:1001100004000000010100000924010001090001A0
:10012000010904010002010300000724010001612C
:100130000006240201010006240201020006240236
:10014000020300062402020400092403010501033E
:100150000100092403010601040100092403020728
:10016000010101000924030208010201000905013F
:10017000024000000000062501020102090582027A
:1001800040000000000625010205061201100100D2
:10019000000040FECA464D030001020001000000BD
:1001A000000000000000000000000000000000004F
:1001B000000000000000000000000000000000003F
:1001C000000000000000000000000000000000002F
:1001D000000000000000000000000000000000001F
:1001E000000000000000000000000000000000000F
:1001F00000000000000000000000000000000000FF
:1002000000000000000000000000000000000000EE
:1002100000000000000000000000000000000000DE
:1002200000000000000000000000000000555555CF
:1002300055555555555555555555555555AAAAAA6F
:10024000AAAAAAAAAAAAAAAAAAAAAAAAAAFFFFFF0F
:10025000FFFFFFFFFFFFFFFFFFFFFFFFFF000000AB
:10026000000000000000000000000000005555558F
:1002700055555555555555555555555555AAAAAA2F
:10028000AAAAAAAAAAAAAAAAAAAAAAAAAAFFFFFFCF
:10029000FFFFFFFFFFFFFFFFFFFFFFFFFF0055AA6C
:1002A000FF0055AAFF0055AAFF0055AAFF0055AA56
:1002B000FF0055AAFF0055AAFF0055AAFF0055AA46
:1002C000FF0055AAFF0055AAFF0055AAFF0055AA36
:1002D000FF0055AAFF0055AAFF0055AAFF0055AA26
:1002E000FF0055AAFF0055AAFF0055AAFF0055AA16
:1002F000FF0055AAFF0055AAFF0055AAFF0055AA06
:10030000FF0055AAFF0055AAFF0055AAFF0055AAF5
:10031000FF0055AAFF0055AAFF0055AAFF000000E4
:10032000007D000000007D000000007D0000000056
:100330007D000000007D000000007D000000007DC9
:10034000000000007D000000007D000C1C2D9E3D83
:100350001C3D5DBE7D2D5D8EDFBE3D7DBEFFFF3D44
:100360007DBEFFFF3D7DBEFFFF3D7DBEFFFF3D7DAE
:10037000BEFFFF3D7DBEFFFF3D7DBEFFFF3D7DBE5D
:10038000FFFF3D7DBEFFFF2D5D8EDFBE1C3D5DBED0
:100390007D0C1C2D9E3D24496D92B6DBFF000000B4
:1003A000007D000C1C2D9E3D1C3D5DBE7D2D5D8E97
:1003B000DFBE3D7DBEFFFF3D7DBEFFFF3D7DBEFF3D
:1003C000FF3D7DBEFFFF3D7DBEFFFF3D7DBEFFFFCC
:1003D0003D7DBEFFFF3D7DBEFFFF3D7DBEFFFF2D8E
:1003E0005D8EDFBE1C3D5DBE7D0C1C2D9E3D000064
:1003F000007D000000007D000000007D0000000086
:100400007D000000007D000000007D000000007DF8
:10041000000000007D0024496D92B6DBFF003D7DA9
:10042000BEFFFF3D7DBEFFFF3D7DBEFFFF3D7DBEAC
:10043000FFFF3D7DBEFFFF2D5D8EDFBE1C3D5DBE1F
:100440007D0C1C2D9E3D0000007D000000007D0005
:100450000000007D000000007D000000007D000025
:1004600000007D000000007D000000007D00000015
:10047000007D000C1C2D9E3D1C3D5DBE7D2D5D8EC6
:10048000DFBE3D7DBEFFFF3D7DBEFFFF3D7DBEFF6C
:10049000FF3D7DBEFFFF24496D92B6DBFF001C7D52
:1004A000FF49000000690000004900000049000009
:1004B00000490000005D180C0086551C10B69635EA
:1004C00010FFFF5118FFFF5518FFFF5518FFFF6180
:1004D0002DFFFF551886511C100000000000357DCF
:1004E000FF4DCA7D1C002D04080086FFFFFFFF7929
:1004F0000000041400246DCAFFC2E7FF5900000089
:1005000004000C35285918083D18242D0C2D69BA03
:10051000FFFF3D71FF0000000000000000001C7D97
:10052000FF49000000BA511C18FFFF5518FFFF5586
:1005300028FFFF5518FFFF5518FFFF551CFFFF55FB
:1005400018C2A6410C86551C044900000049000051
:10055000004900000049000000143551613955512F
:100560000045007D1C00FFEBFF8AFFA62800001855
:100570002049DFFFFFFFFFFF8A517D1C007DAEFF9A
:100580005928494D141C39005169DFDFB21CFFFFA7
:1005900096653D71FF0000CE41AE315D14001C7DBB
:1005A000FFFFFF5518FFFF5524FFFF551886511C0C
:1005B0001049000000490000004900000049000007
:1005C0000049000000490000004900000086511861
:1005D0000CFFFF5518FFFF5520FF967541000000E6
:1005E0000000247D1CFFBAAE610C0000003D79AE16
:1005F0003DFF867100395535593186D2FFFFB68EE1
:100600008239100C141465A6DBD7FF9E651CDB7DB8
:100610009A8E3D71DF9E351804B63DB24900010245
:10062000030405060708090A0B0C0D0E0F10111222
:10063000131415161718191A1B1C1D1E1F20212212
:10064000232425262728292A2B2C2D2E2F30313202
:10065000333435363738393A3B3C3D3E3F1C18146D
:10066000101D1915111E1A16121F1B17133C3834B2
:10067000303D3935313E3A36323F3B37330C080492
:10068000000D0905010E0A06020F0B07032C282492
:10069000202D2925212E2A26222F2B27233F3E3DA0
:1006A0003C3B3A393837363534333231302F2E2D02
:1006B0002C2B2A292827262524232221201F1E1DF2
:1006C0001C1B1A191817161514131211100F0E0DE2
:1006D0000C0B0A0908070605040302010023272B57
:1006E0002F22262A2E2125292D2024282C03070BF2
:1006F0000F02060A0E0105090D0004080C33373BF2
:100700003F32363A3E3135393D3034383C13171BD1
:100710001F12161A1E1115191D1014181C04050697
:1007200007242526271D1915110D0905013B3A3906
:10073000381B1A191822262A2E32363A3E283C50E7
:1007400064788CA0B400000123051F000322052358
:100750004827051F000621052248235F2605274854
:100760002B0520000A20052148225F233525052678
:1007700048275F2A052B482F051F000E2048215FC0
:100780002235235E24052548265F273529052A487A
:100790002B5F2E052F4833051F0012205F213522C5
:1007A0005E23512448255F2635275E280529482ADF
:1007B0005F2B352D052E482F5F3205334837052036
:1007C00000162035215E22512331245F2535265E17
:1007D00027512848295F2A352B5E2C052D482E5F8E
:1007E0002F3531053248335F360537483B051F004A
:1007F0001A205E2151223123502435255E265127AF
:1008000031285F29352A5E2B512C482D5F2E352F3C
:100810005E30053148325F333535053648375F3A4B
:10082000053B483F051F001D205121312250233236
:10083000245E2551263127502835295E2A512B3137
:100840002C5F2D352E5E2F513048315F3235335EAF
:1008500034053548365F373539053A483B5F3E0544
:100860003F481F001F2031215022322333245125BD
:100870003126502732285E29512A312B502C352D14
:100880005E2E512F31305F3135325E335134483571
:100890005F3635375E380539483A5F3B353D053EB2
:1008A000483F5F1F00202050213222332300243193
:1008B000255026322733285129312A502B322C5EDD
:1008C0002D512E312F503035315E32513331345F5E
:1008D0003535365E37513848395F3A353B5E3C0531
:1008E0003D483E5F3F3520001F2032213322002447
:1008F00050253226332700283129502A322B332C19
:10090000512D312E502F32305E315132313350342F
:1009100035355E36513731385F39353A5E3B513CBB
:10092000483D5F3E353F5E1F001D203321002432CD
:1009300025332600285029322A332B002C312D5004
:100940002E322F333051313132503332345E355103
:10095000363137503835395E3A513B313C5F3D35A1
:100960003E5E3F511F001A20002433250028322903
:10097000332A002C502D322E332F0030313150329B
:100980003233333451353136503732385E39513A9B
:10099000313B503C353D5E3E513F31200016240036
:1009A000283329002C322D332E003050313232338F
:1009B00033003431355036323733385139313A50CB
:1009C0003B323C5E3D513E313F501F001228002C0F
:1009D000332D003032313332003450353236333734
:1009E00000383139503A323B333C513D313E503F73
:1009F000321F000E2C0030333100343235333600D4
:100A0000385039323A333B003C313D503E323F336F
:100A10001F000A300034333500383239333A003C95
:100A2000503D323E333F001F00063400383339005A
:100A30003C323D333E0020000338003C333D001F74
:100A400000021F053C001F00031B051E051F482058
:100A5000000617051A051B481D051E481F5F1F00CD
:100A60000A13051605174819051A481B5F1C051DB2
:100A7000481E5F1F351F000E0F0512051348150590
:100A80001648175F180519481A5F1B351C481D5F6B
:100A90001E351F5E1F00120B050E050F48110512B3
:100AA00048135F14051548165F17351848195F1A63
:100AB000351B5E1C5F1D351E5E1F511F001607058E
:100AC0000A050B480D050E480F5F10051148125F0F
:100AD00013351448155F1635175E185F19351A5E01
:100AE0001B511C351D5E1E511F3120001A030506C7
:100AF00005074809050A480B5F0C050D480E5F0FF6
:100B0000351048115F1235135E145F1535165E17E8
:100B1000511835195E1A511B311C5E1D511E311FB3
:100B2000501F001D0205034805050648075F08051C
:100B300009480A5F0B350C480D5F0E350F5E105FDC
:100B40001135125E13511435155E16511731185EAA
:100B500019511A311B501C511D311E501F321F00DC
:100B60001F01050248035F04050548065F073508B5
:100B700048095F0A350B5E0C5F0D350E5E0F511094
:100B800035115E12511331145E155116311750187C
:100B90005119311A501B321C311D501E321F332087
:100BA000002000050148025F03350448055F063553
:100BB000075E085F09350A5E0B510C350D5E0E515C
:100BC0000F31105E1151123113501451153116505E
:100BD0001732183119501A321B331C501D321E3374
:100BE0001F001F001F0048015F0235035E045F0500
:100BF00035065E07510835095E0A510B310C5E0D52
:100C0000510E310F50105111311250133214311551
:100C10005016321733185019321A331B001C321D6C
:100C2000331E001F001D005F0135025E03510435B5
:100C3000055E06510731085E09510A310B500C510F
:100C40000D310E500F321031115012321333145037
:100C5000153216331700183219331A001C331D00D1
:100C60001F001A0035015E02510331045E05510672
:100C7000310750085109310A500B320C310D500E1A
:100C8000320F331050113212331300143215331651
:100C900000183319001C001F0016005E01510231BC
:100CA00003500451053106500732083109500A3209
:100CB0000B330C500D320E330F0010321133120073
:100CC00014331500180020001200510131025003A6
:100CD000320431055006320733085009320A330B0B
:100CE000000C320D330E001033110014001F000EE3
:100CF000003101500232033304500532063307003D
:100D0000083209330A000C330D0010001F000A00DE
:100D10005001320233030004320533060008330960
:100D2000000C0020000600320133020004330500ED
:100D300008001F00030033010004001F0001000031
:100D40007D00040F0513052C0530051F000C0B0555
:100D50000E050F4812051348170528052C482D05C8
:100D600030483105340520001807050A050B480DE9
:100D7000050E480F5F11051248135F160517481B33
:100D8000052405284829052C5F2D482E05305F31A4
:100D90004832053448350538051F00280305060587
:100DA000074809050A480B5F0C050D480E5F0F3513
:100DB00010051148125F133515051648175F1A05FF
:100DC0001B481F05200524482505285F29482A05BA
:100DD0002C352D5F2E482F053035315F32483305D5
:100DE000345F35483605384839053C051F00340264
:100DF00005034805050648075F080509480A5F0B13
:100E0000350C480D5F0E350F5E1048115F1235131B
:100E10005E14051548165F173519051A481B5F1E25
:100E2000051F4820482105245F2548260528352927
:100E30005F2A482B052C5E2D352E5F2F48305E3102
:100E400035325F33483435355F36483705385F39DA
:100E5000483A053C483D051F003C01050248035F38
:100E600004050548065F07350848095F0A350B5E2B
:100E70000C5F0D350E5E0F51105F1135125E135170
:100E80001448155F1635175E180519481A5F1B358B
:100E90001D051E481F5F205F214822052435255F60
:100EA00026482705285E29352A5F2B482C512D5EC0
:100EB0002E352F5F3051315E3235335F345E35353C
:100EC000365F37483835395F3A483B053C5F3D4827
:100ED0003E051F004000050148025F033504480538
:100EE0005F0635075E085F09350A5E0B510C350D4C
:100EF0005E0E510F311035115E12511331145F1512
:100F000035165E17511848195F1A351B5E1C051DF2
:100F1000481E5F1F352035215F22482305245E25AA
:100F200035265F27482851295E2A352B5F2C312D25
:100F3000512E5E2F3530313151325E3335345135DB
:100F40005E3635375F385E39353A5F3B483C353D74
:100F50005F3E483F052000400048015F0235035EC8
:100F6000045F0535065E07510835095E0A510B31ED
:100F70000C5E0D510E310F50105E11511231135095
:100F80001435155E16511731185F19351A5E1B514D
:100F90001C481D5F1E351F5E205E2135225F2348E1
:100FA0002451255E2635275F283129512A5E2B35AD
:100FB0002C502D312E512F5E305031313251335E55
:100FC00034313551365E37353851395E3A353B5F0D
:100FD0003C5E3D353E5F3F481F0040005F013502EB
:100FE0005E03510435055E06510731085E09510A5A
:100FF000310B500C510D310E500F32105111311276
:10100000501332145E1551163117501835195E1AE7
:10101000511B311C5F1D351E5E1F512051215E2268
:1010200035235F24312551265E2735285029312A62
:10103000512B5E2C322D502E312F51303231503207
:10104000313351345035313651375E383139513AB8
:101050005E3B353C513D5E3E353F5F1F00400035F5
:10106000015E02510331045E0551063107500851FB
:1010700009310A500B320C310D500E320F33103142
:101080001150123213331451153116501732185EA5
:1010900019511A311B501C351D5E1E511F31203154
:1010A0002151225E2335245025312651275E2832D6
:1010B00029502A312B512C332D322E502F313033E1
:1010C0003132325033313432355036313751385075
:1010D00039313A513B5E3C313D513E5E3F35200057
:1010E00040005E01510231035004510531065007A2
:1010F00032083109500A320B330C500D320E330FC7
:1011000000105011321233130014311550163217DB
:1011100033185119311A501B321C5E1D511E311FDC
:1011200050205021312251235E2432255026312770
:1011300051283329322A502B312C002D332E322FB7
:101140005030003133323233503433353236503749
:1011500031383239503A313B513C503D313E513FAC
:101160005E1F003C00510131025003320431055032
:1011700006320733085009320A330B000C320D33A4
:101180000E001032113312001450153216331700AE
:10119000183119501A321B331C511D311E501F3289
:1011A0002032215022312351243325322650273139
:1011B000280029332A322B502D002E332F323100B4
:1011C00032333332340035333632375038333932F4
:1011D0003A503B313C323D503E313F511F003400CC
:1011E0003101500232033304500532063307000840
:1011F0003209330A000C330D00103311001432157C
:10120000331600185019321A331B001C311D501EA2
:10121000321F33203321322250233124002533263C
:1012200032275029002A332B322E002F333200333D
:1012300033350036333732380039333A323B503C9D
:10124000333D323E503F311F0028005001320233FF
:101250000300043205330600083309000C001000B7
:1012600014331500183219331A001C501D321E3366
:101270001F0020002133223223502500263327323D
:101280002A002B332F0033003600373339003A332E
:101290003B323C003D333E323F501F0018003201CC
:1012A0003302000433050008001400183319001C31
:1012B000321D331E00210022332332260027332B18
:1012C0000037003A003B333D003E333F3220000CF4
:1012D00000330100040018001C331D0022002333DA
:1012E00027003B003E003F331F000400001C00238A
:1012F000003F000011241FBECFEFDAE0DEBFCDBFFC
:1013000004B603FE17C08091D2099091D309A09131
:10131000D409B091D5098A3C9C4AA244BC4D51F4F1
:101320001092D2091092D3091092D4091092D509C3
:101330000C94003813E0A0E0B1E0ECE9F7E502C05E
:1013400005900D92A832B107D9F729E0A8E2B3E0E1
:1013500001C01D92A23DB207E1F7E4D10C94B62B77
:101360000C94000002C4089580910607909107072D
:101370000E94B22A811101C00895F7D388E19FE04D
:101380000FB6F894A895809360000FBE909360000C
:1013900008950F931F93CF93DF9380914F06909101
:1013A0005006A0915106B0915206D82FDF7706EC77
:1013B00016E0C0E003C0CF5FC034B1F0F801819106
:1013C0008F0187FFF8CFFD2FF81B8F2F880F8430F8
:1013D00090F320E040E060E08C2F0E945F1EF80157
:1013E0001292CF5FC03451F7DF91CF911F910F91CF
:1013F0000895EF92FF920F931F93CF93DF9300D046
:1014000000D0CDB7DEB7E12CF12C8701BE016F5FB4
:101410007F4F80910607909107070E94002B811152
:1014200007C00F5F1F4F08371105B1F0A895EECF29
:101430008FEFE81AF80AE9818E2F82958F70E032DB
:1014400020F4EF70E450EC3090F0E11482E0F80604
:1014500019F000E010E0DACF0F900F900F900F908E
:10146000DF91CF911F910F91FF90EF900895F0E0E1
:10147000E854F44D0C946E2B8A818A3F09F453C0D2
:101480008C3F09F44CC0883F01F781E00E94C113F2
:101490000E94A013DACF6A81862F8C70B1F61B816F
:1014A0001452103490F66F704C81633009F43FC0D1
:1014B000812F0E94861EE12FF0E0EA53F94F10823F
:1014C000C4CF8A818C7009F6EB81E452E03408F0D5
:1014D000BCCF80914F0690915006A0915106B091DB
:1014E0005206F0E0EA53F94F80688083AECFFDD713
:1014F000CE0101960E945318A8CFF7D7CE010196CE
:101500000E94EB18A2CFF1D7CE0101960E942D19AF
:101510009CCFEBD7CE0101960E94941796CF80E026
:101520000E94C11392CF81E00E94C1138ECF642F1D
:10153000812F0E943C1FBFCF6F927F928F929F920C
:10154000AF92BF92CF92DF92EF92FF920F931F93D1
:10155000CF93DF938091C809843079F0DF91CF91E8
:101560001F910F91FF90EF90DF90CF90BF90AF90C1
:101570009F908F907F906F9008953BDFE4D61CD7AB
:10158000E0915306F0915406B0915506B09056067E
:1015900090905706809058067090590660905A06B1
:1015A0009F014B2F5B2D692D782D872D962DA0E067
:1015B0000E94AA2B09F0B3C0A12CCC24C394D12C37
:1015C000E12CF12C10E0E70100E041C020915B0626
:1015D0002C2130915C063D2140915D064E215091B9
:1015E0005E065F2160915F066123709160067D2336
:1015F00080916106909162068C239023A0E00E9466
:10160000AA2B09F047C0A39480E4A81609F453C09C
:101610009601A701612F7D2F8C2F902F01E00E9452
:10162000742B69017A01162FD72FC82F092FE0914B
:101630005306F0915406B0915506B090560690901E
:101640005706809058067090590660905A062E2FC3
:101650002C213F2F3D214B2F4E215B2D5F21692DEA
:101660006123782D7D23872D8C23962D9023A0E058
:101670000E94AA2B09F4AACF8A2D0E949C13B82E8F
:1016800080912A038230B8F14FE76B2D80910401DD
:1016900073D79CCF8A2D0E949C13B82E8091040191
:1016A00090912A03923080F140E06B2D65D7A3948E
:1016B00080E4A812ADCF80910607909107070E94A1
:1016C000E62A80914F0690915006A0915106B09164
:1016D000520680934B0690934C06A0934D06B09310
:1016E0004E0657DE0E9458148BE097E08ED381E0BF
:1016F0008093280333CF61E08B2D68D780912A0334
:10170000811509F463CFC0CF40E06B2D00D78091E5
:101710002A03811509F477CF80910401C5CF109277
:101720002D034ACF84B7877F84BF0FB6F894A8955E
:1017300080916000886180936000109260000FBE0D
:1017400080E890E00FB6F894809361009093610078
:101750000FBE85BF85BF53D10E940B1F0E94981FEB
:101760003DD3CCD1FCD108D5C4D60E94101D0E9417
:10177000CA1C2FEF89EF90E0215080409040E1F7A4
:1017800000C00000E0D518D680E00E94C31F082FDB
:1017900020916B0630916C0640916D0650916E065B
:1017A00060916F067091700680917106909172063B
:1017B0000E948F2B217030E040E050E0BA01CA0156
:1017C000A0E00E94AA2B21F0BBD20E946C15FFCF93
:1017D0000E94C520082F0E943528789401111AC054
:1017E0000E94012310922F031092300310922E03B7
:1017F00010922D03A1DE0E948F2A8091280381156B
:10180000C9F3A89599DE0E948F2A8091280381153B
:1018100089F3F7CF0E94F220E3CFF999FECF9F70B2
:1018200092BD81BD60BDF894FA9AF99A78940895B2
:101830009C01F999FECF32BD21BDF89A80B508957B
:10184000CF93DF9300D00F92CDB7DEB789839A8311
:101850006B83EEDF9B81891306C00F900F900F9072
:10186000DF91CF910895692F89819A810F900F9010
:101870000F90DF91CF91D1CFAF92BF92CF92DF92F5
:10188000EF92FF920F931F93CF93DF9361E080E07D
:1018900090E0C3DF82E08093040162E090E0BDDF6E
:1018A0008FE7809303016FE783E090E0B6DF61E0AC
:1018B0008AE090E0B2DF10922A0360E089E090E0D5
:1018C000ACDF60E085E090E0A8DF62E08CE090E0D3
:1018D000A4DF61EF8DE090E0A0DF64E08EE090E0B7
:1018E0009CDF6EE18FE090E098DF6FE780E190E0B1
:1018F00094DF66E481E190E090DF6CE382E190E0C8
:101900008CDF6CE083E190E088DF6FE784E190E0BA
:1019100084DF60E085E190E080DF60E486E190E0D4
:101920007CDF60E088E190E078DF60E089E190E0D2
:1019300074DF65EA8AE190E070DF8CE3809329032D
:101940006CE387E190E069DF60E080E793E065DFCA
:1019500060E081E793E061DF64EB82E793E05DDFC5
:1019600068EB83E793E059DFA12CB12C650185E496
:10197000E82E81E0F82E8501C0E0D0E0F70180E498
:10198000C816D104A0F56081C80181599F4F45DF79
:101990002DE030E0C901880F991F820F931F8B5BE8
:1019A0009E4FFC01EC0FFD1F6081C80181519E4FCD
:1019B00034DF21960F5F1F4FFFEFEF1AFF0AC3308E
:1019C000D105E1F68FEFC81AD80AE3E0AE0EB11CDC
:1019D000F0E8CF16D10459F6DF91CF911F910F9106
:1019E000FF90EF90DF90CF90BF90AF90089561ADE2
:1019F000C80181599F4F11DF29E030E0CBCF80E053
:101A000090E016DF813009F037DF82E090E010DFF0
:101A10008093040183E090E00BDF8093030189E071
:101A200090E006DF80932A0387E190E001DF809356
:101A3000290308951F921FB61F9211242F933F93DD
:101A40008F939F93AF93BF93EF93FF931092850073
:101A50001092840080EE9FEF909385008093840025
:101A6000E3E3F3E02BE333E081919191009721F0E0
:101A7000DF0101979E938E932E173F07A9F7809160
:101A8000090781110CC080912B0390912C038B349A
:101A9000910529F1019680932B0390932C0380915B
:101AA0002F0390913003019680932F03909330037E
:101AB0008091390390913A03892B29F480E1809336
:101AC000390310923A03FF91EF91BF91AF919F912B
:101AD0008F913F912F911F901FBE1F90189581E00D
:101AE00080932B0310922C03809131039091320349
:101AF00001968093310390933203D1CF87E884B964
:101B000080EC87B9E4E6F0E08081877F80831092E3
:101B10008000E1E880818460808380818D7F808384
:101B200080818E7F8083F89480E49EEF909385007F
:101B300080938400EFE6808181608083109233037C
:101B4000109234031092350310923603109237032B
:101B5000109238031092390310923A030895EFE679
:101B6000F0E080818E7F80830895EFE6F0E0808151
:101B70008160808308950895FC0130E08081918127
:101B8000A281B3818093470390934803A0934903B4
:101B9000B0934A0330FD339628E140E050E060E81E
:101BA00070E013C000000000000000002E982150DB
:101BB000C1F0769567955795479580914703909129
:101BC0004803A0914903B0914A0384239523A62397
:101BD000B7232E9A892B8A2B8B2B21F72E982150F5
:101BE00041F73F5F303251F60895FC0130E08081CB
:101BF0009181A281B3818093430390934403A09386
:101C00004503B093460330FD339628E140E050E0B1
:101C100060E870E013C0000000000000000046987B
:101C20002150C1F07695679557954795809143036C
:101C300090914403A0914503B091460384239523DA
:101C4000A623B723469A892B8A2B8B2B21F74698FC
:101C5000215041F73F5F303251F60895FC0130E0EA
:101C600080819181A281B38180933F03909340034F
:101C7000A0934103B093420330FD339628E140E046
:101C800050E060E870E013C00000000000000000B9
:101C90002D982150C1F0769567955795479580917D
:101CA0003F0390914003A0914103B09142038423EC
:101CB0009523A623B7232D9A892B8A2B8B2B21F7CB
:101CC0002D98215041F73F5F303251F60895FC01C5
:101CD00030E080819181A281B38180933B03909316
:101CE0003C03A0933D03B0933E0330FD339628E1BF
:101CF00040E050E060E870E013C000000000000029
:101D000000002C982150C1F076956795579547951E
:101D100080913B0390913C03A0913D03B0913E0321
:101D200084239523A623B7232C9A892B8A2B8B2BCC
:101D300021F72C98215041F73F5F303251F608953A
:101D4000CF93DF93CDB7DEB7E0970FB6F894DEBF41
:101D50000FBECDBF80E3E5E1F1E0DE011196019019
:101D60000D928A95E1F73E9A84B1806784B9F89420
:101D7000CE01019601DFCE01019637DFCE0101963B
:101D80006DDFCE010196A3DF7894E0960FB6F8944C
:101D9000DEBF0FBECDBFDF91CF910895853BB8F078
:101DA00084EB80930201282F30E040E050E060E0B7
:101DB00077E083E090E00E944C2B042E052A11F07E
:101DC0002FEF3FEF2093000130930101089581111F
:101DD000E8CF81E0E6CF80910201089583E793E0A8
:101DE00027DD883B51F064EB82E793E029DD68EB67
:101DF00083E793E025DD84EBD1CF82E793E018DD24
:101E00009FEF980F943BB8F7C9CF2F923F924F9214
:101E10005F926F927F928F929F92AF92BF92CF927A
:101E2000DF92EF92FF920F931F93CF93DF93CDB783
:101E3000DEB729970FB6F894DEBF0FBECDBF8983FA
:101E40009A833E9A84B1806784B98FB78E83E5B157
:101E5000EC833E2F3F78F8B1FD837F2EE89476F82F
:101E600090910201E981FA81BF0160547F4F40E007
:101E700050E08191813408F080E4480F511DE6174D
:101E8000F707B9F7E92FF0E04F0180910001909139
:101E900001018417950798F44E5F5F4FBA0176955C
:101EA0006795769567956115710549F080EC91EC21
:101EB0000E94252B6E177F0710F44B01E62F212C73
:101EC000312CA12CBE2E1B82592C132F7F82C82CA3
:101ED0003F01E981FA81E887F9878A2D8695282FC5
:101EE00030E0F901EE0FFF1FE20FF31F20E2280F91
:101EF000B901660F771F620F731F805D90E07C0150
:101F0000EE0CFF1CE80EF91E91012D5A3C4FAB2D33
:101F1000BB81888599858E0F9F1F89839A83FC01D9
:101F20004281413408F040E4469DC001479D900D38
:101F3000112480960024880F991F001C880F991F78
:101F4000001C892F902DD82E88859985680F791FC0
:101F5000FB014281413408F040E4469DC001479DA9
:101F6000900D112480960024880F991F001C880F63
:101F7000991F001C892F902D00E042E050E0E88579
:101F8000F985EE0EFF1EF701E40FF51F90819134E5
:101F900008F090E49A9FA0019B9F500D1124405E91
:101FA0005F4F0024440F551F001C440F551F001C99
:101FB000452F502DF901389790E80FC0512F5064EC
:101FC000492E482209F05062442E492209F05061FE
:101FD000519396952E173F0729F0592F5D2171F7E0
:101FE000512FEECF0F5F0330C1F1285F3F4FE1E08B
:101FF000F0E0013009F0E0E0AF01A981BA81AE0F55
:10200000BF1FAC91A13408F0A0E4A89DC001A99D18
:10201000900D112480960024880F991F001C880FB2
:10202000991F001C892F902DD82EE60FF71FE081F5
:10203000E13408F0E0E4E89DC001E99D900D112431
:1020400080960024880F991F001C880F991F001C80
:10205000892F902DAC2DB52D96CFF8E12F0E311C88
:10206000A39480E2A81239CF7F80E885F985E983BF
:10207000FA83F894FD806894F6F8FC81F067EF2EFF
:10208000D12C612F00E010E08D2D8695805F90E0CF
:102090009C01220F331F280F391FA801455B5C4F9D
:1020A00070E082E0E981FA812E0F3F1FF901E80F0D
:1020B000F91FE081E13408F0E0E4EA9FC001EB9F02
:1020C000900D112480960024880F991F001C880F02
:1020D000991F001C892F902DFA0198E0B190E5B866
:1020E000F8B80000000000000000B5B887FF78B81D
:1020F00000000000000065B978B8880F9A9571F764
:102100007F5F733081F0485F5F4FE1E0713009F02D
:10211000E0E08E2F90E0F901E80FF91FE081E13453
:1021200008F4CBCFC9CF085E1F4FD394F0E2DF1283
:10213000ABCF65B978B88E818FBFEFEEF0E0319705
:10214000F1F700C0000029960FB6F894DEBF0FBE6D
:10215000CDBFDF91CF911F910F91FF90EF90DF9056
:10216000CF90BF90AF909F908F907F906F905F9037
:102170004F903F902F900895579A569A3F98479ABC
:102180005F9A5E9AE3E7F6E080E5DF011D928A95AB
:10219000E9F785B5846085BD85B58D7F85BD85B53D
:1021A0008E7F85BD80ED86BDEEE6F0E080818160AA
:1021B0008083789410926B0610926C0610926D06D4
:1021C00010926E0610926F061092700610927106B1
:1021D00010927206109263061092640610926506C1
:1021E00010926606109267061092680610926906B1
:1021F00010926A0610925B0610925C0610925D06C1
:1022000010925E0610925F061092600610926106B0
:1022100010926206109253061092540610925506C0
:1022200010925606109257061092580610925906B0
:1022300010925A0608950F920FB60F921F92112412
:10224000EF92FF920F931F932F933F934F935F93C0
:102250006F937F938F939F93AF93BF93CF93DF93AE
:10226000EF93FF9380ED86BD5E9A5E98E0E421E0F7
:1022700030E040E050E0BA01CA017A0110E0E70125
:10228000D701F0E05F98379908C0E22AF32A142BAF
:10229000D52BC62BB72BA82BF92B01E00E94742B52
:1022A0005F9AE15079F72091C30630E0C901880FA9
:1022B000991F880F991F880F991F8D58994FE09487
:1022C000F0941095D095C095B095A0954F2F40955E
:1022D000FC01E082F1821283D383C483B583A68399
:1022E0004783C90101966AE070E00E94392B809310
:1022F000C30680914F0690915006A0915106B0916F
:1023000052060196A11DB11D80934F069093500671
:10231000A0935106B0935206FF91EF91DF91CF91B8
:10232000BF91AF919F918F917F916F915F914F91ED
:102330003F912F911F910F91FF90EF901F900F9061
:102340000FBE0F901895EF92FF920F931F93CF93AC
:10235000DF93E3E7F6E06FEF7FEFCB01AB019A018C
:10236000E080F18002811381D481C581B681A7818B
:1023700038966E217F21802391235D234C233B23BC
:102380002A23A6E0E33CFA0759F760936B067093A3
:102390006C0680936D0690936E0650936F06409383
:1023A00070063093710620937206DF91CF911F91D2
:1023B0000F91FF90EF9008958F929F92AF92BF92EE
:1023C000CF92DF92EF92FF920F931F93CF93DF9301
:1023D0008090630690906406A0906506B0906606B3
:1023E000C0906706D0906806E0906906F0906A0693
:1023F00070916B0660916C0650916D0640916E066F
:1024000030916F062091700690917106809172064E
:10241000082D0095192D1095DA2DD095CB2DC0954E
:10242000BC2DB095AD2DA095FE2DF095EF2DE0952E
:10243000072300935306162310935406D523D093F5
:102440005506C423C0935606B323B0935706A22360
:10245000A0935806F923F0935906E823E0935A060F
:10246000072F0095162F1095D52FD095C42FC09506
:10247000B32FB095A22FA095F92FF095E82FE095F6
:10248000082100935B06192110935C06DA21D09392
:102490005D06CB21C0935E06BC21B0935F06AD21E3
:1024A000A0936006FE21F0936106EF21E09362069F
:1024B00070936306609364065093650640936606C6
:1024C00030936706209368069093690680936A06A6
:1024D000DF91CF911F910F91FF90EF90DF90CF9000
:1024E000BF90AF909F908F900895817080930A075E
:1024F000089585E091E08093060790930707E6EC46
:10250000F6E080E4DF011D928A95E9F708951F93B4
:10251000CF93DF9300D000D0CDB7DEB7411541F1A6
:1025200019E129E090E929838F70892B8A836F77DD
:102530006B83809103018F778C83BE016F5F7F4F28
:1025400080910607909107070E94C82A1983BE014F
:102550006F5F7F4F80910607909107070E94C82AFE
:102560000F900F900F900F90DF91CF911F910895D2
:1025700018E128E090E8D7CFCF93DF9300D000D0C8
:10258000CDB7DEB79BE099838F70806B8A836F77BE
:102590006B834F774C83BE016F5F7F4F809106073F
:1025A000909107070E94C82A8BE18983BE016F5F63
:1025B0007F4F80910607909107070E94C82A0F90CD
:1025C0000F900F900F90DF91CF9108951F93CF93AD
:1025D000DF9300D000D0CDB7DEB7611551F119E11E
:1025E00020E939E09091040139839F70922B9A83FE
:1025F0008F778B83809103018F778C83BE016F5F10
:102600007F4F80910607909107070E94C82A19837F
:10261000BE016F5F7F4F80910607909107070E9470
:10262000C82A0F900F900F900F90DF91CF911F91BC
:10263000089518E120E838E0D5CFBF92CF92DF921D
:10264000EF92FF920F931F93CF93DF9300D000D0B0
:102650000F92CDB7DEB77C018B01429540714D835F
:1026600084E0E816F104C0F1B42E6894B2F86E016B
:102670009FEFC91AD90AB982F80180818A838181C2
:102680008B8382810D5F1F4F8C83B601809106077B
:10269000909107070E94C82AF3E0EF1AF10884E03E
:1026A000E816F10440F780E09D8195609983F80178
:1026B00090819A831B821C82F2E0EF16F104F1F004
:1026C000F3E0EF16F10409F1B6018091060790914D
:1026D00007070E94C82A03C0E114F10421F50F90F6
:1026E0000F900F900F900F90DF91CF911F910F914E
:1026F000FF90EF90DF90CF90BF9008958D8186601E
:102700008983F80181818B83DFCF811551F083E0CC
:102710009D81892B8983F801828191819B838C83A0
:10272000D3CF87E0F5CF81E06E019FEFC91AD90AB8
:10273000BBCF40910A0781CF0E94D01F8C5D0895C6
:10274000809109078115A9F080910807833021F055
:102750008F5F80930807089581E080930807809138
:1027600031039091320301968093310390933203A9
:102770000895109231031092320381E0809309078B
:10278000E3CF809309070895209111013091120140
:10279000922F9295990F907E822F9327292F26951D
:1027A0002827392F30FB922F88279795879597F9FF
:1027B00082279327809311019093120108958091AD
:1027C000350390913603892B29F48CE180933503EE
:1027D000109236031092130108954330C0F421E0A3
:1027E000240F50E0640F752F711DAB01440F551F6E
:1027F000460F571FFC01E40FF51F80E090E3908324
:10280000118212828F5F39962813F9CF08954830CC
:1028100030F4433069F443E050E024E0E3CF4B3040
:10282000A8F72BE0241B440F440F495050E0DACFA7
:1028300024E0F9CFCF93DF9300D0CDB7DEB7898303
:102840009A83409113014F30F8F4809135039091B1
:102850003603892B51F48CE18093350310923603B3
:102860004F5F409313014F3079F060E089819A8186
:10287000B4DF40911301445060E289819A810F9046
:102880000F90DF91CF91A9CF0F900F90DF91CF9153
:102890000895EDEEF8E0DC0182818D9380818D93C7
:1028A00081818D93339689E0ED3AF807A9F7089571
:1028B0008BE097E0EEDF80912F0390913003803D15
:1028C000974058F010922F031092300380912E03FE
:1028D0008F5F80932E038C3328F580912903811517
:1028E000F1F090912D03891751F1891718F120917A
:1028F000530630915406409155065091560660910A
:102900005706709158068091590690915A06A0E09A
:102910000E94AA2B21F010922E0310922D038BE01F
:1029200097E088CF80912D038F5F80932D031092C5
:102930002E03D3CF8BE097E00E94B023D8CF0E9424
:102940008A2390912D039F5F90932D0380912903FB
:10295000891768F6EFCFFC01908181812281911166
:102960000EC0811122C0211531F0203339F02138F9
:1029700008F456C020E39083818322830895811157
:1029800008C0211121C09033C9F3913880F190E340
:10299000F2CF211120C0981778F5803279F3813871
:1029A00008F448C080E299E1E6CF211106C08033E7
:1029B00029F3813880F180E3DECF8E31F9F281385E
:1029C00060F12EE18EE1D7CF9432C1F2913800F15F
:1029D00022E194E2D0CF853240F4203279F291386E
:1029E00060F120E287E099E1C6CF28E188E198E133
:1029F0009083818322830895392F3695381790F07C
:102A0000983209F4BBCF9138F8F08CE098E2B3CF5C
:102A100029E092E1B0CF88E1AECF2FE08FE0ABCFDD
:102A200028E1A9CF903209F4A9CF913850F089E17B
:102A300090E2A1CF80E19CE09ECF21E183E09DE088
:102A40009ACF8CE090E197CF86E094E194CF83CF4A
:102A5000292F30E02230310529F12330310559F09A
:102A600021303105C1F482E190E02BE831E0FA0138
:102A7000208331830895282F30E08230D9F023302D
:102A8000310540F4232B11F1EEEEF0E0849190E05B
:102A90009F01EDCFA9F080E090E020E0FA012083D3
:102AA0003183089585E890E026E031E0FA01208343
:102AB00031830895E0ECF0E0849190E09F01D7CF5E
:102AC000ECEAF0E0849190E09F01D1CFE2E0F1E008
:102AD000849190E09F01CBCF0E94DF27F89480E89B
:102AE000EFEFF9EF3197F1F700C000008150C1F727
:102AF0008AEC9CEAA2E4BCED8093D2099093D309BE
:102B0000A093D409B093D50988E19CE00FB6F8945E
:102B1000A895809360000FBE90936000FFCFCF9385
:102B2000DF93CDB7DEB72A970FB6F894DEBF0FBE9E
:102B3000CDBF90EF99839DE79A839DE49B8396E4B4
:102B40009C8396E39D8394E39E8391E19F836887B2
:102B5000498797EF9A87482FBE016F5F7F4F8AE0C2
:102B600090E06BDD2A960FB6F894DEBF0FBECDBFA6
:102B7000DF91CF910895CF93DF93CDB7DEB72B9739
:102B80000FB6F894DEBF0FBECDBF8B8780EF898371
:102B90008DE78A838DE48B8386E48C8386E38D8343
:102BA00084E38E8384E08F830E94C01F8887809196
:102BB0000301898787EF8A874B85BE016F5F7F4F4F
:102BC0008AE090E03ADD2B960FB6F894DEBF0FBE98
:102BD000CDBFDF91CF9108950F931F93CF93DF93D4
:102BE000CDB7DEB765970FB6F894DEBF0FBECDBF89
:102BF0008A8B0091E9081091EA0877DC8091EB0854
:102C00008830B1F0873009F465C0863009F472C0AD
:102C10008430F1F0833009F43EC065960FB6F89425
:102C2000DEBF0FBECDBFDF91CF911F910F910895F1
:102C3000B8016652784F8BED97E065960FB6F89421
:102C4000DEBF0FBECDBFDF91CF911F910F91F0C6B8
:102C50000115110511F3E091DB078FEF8E0F88301E
:102C6000E0F6E150FF0BEE0FFF1FE553F84F019028
:102C7000F081E02D309789F26CED77E0C801019783
:102C800065960FB6F894DEBF0FBECDBFDF91CF9132
:102C90001F910F9109940230110508F4BECF809165
:102CA000DB07863009F0B9CF8091DC07813009F06D
:102CB000B4CF81E1E1E8F1E0DE01119601900D92DF
:102CC0008A95E1F74A89BE016F5F7F4F81E190E00D
:102CD000B4DCA3CFB8016652784F8BED97E06596D0
:102CE0000FB6F894DEBF0FBECDBFDF91CF911F911D
:102CF0000F9195C70230110508F48FCFF801E65205
:102D0000F84F9081973F09F088CF8091DB078130A1
:102D100009F461C0833009F483C0853009F490C0A0
:102D2000863009F4A4C0803109F4AFC0823109F0C3
:102D300074CF0330110509F070CF8091DC07833028
:102D400008F06BCF90EF9093DB079DE79093DC0743
:102D50009DE49093DD0796E49093DE0796E39093CD
:102D6000DF0794E39093E00793E19093E10780936A
:102D7000E20790E0FC01E159FF4FEB8BFC8B03EE87
:102D800017E08B899C890E94180C87FB992790F982
:102D9000F80190838F7781832B893C892D5F3F4F8A
:102DA0002B8B3C8B0E5F1F4F38E0033E130749F718
:102DB00087EF8093E3084A896BED77E089E091E043
:102DC00065960FB6F894DEBF0FBECDBFDF91CF91F1
:102DD0001F910F9132CC0330110509F01ECF2091C5
:102DE000DC072F7730EF39833DE73A833DE43B83BF
:102DF00036E43C8336E33D8334E33E8332E03F8375
:102E0000288789878A871B861C8683E18D879E8712
:102E10004A89BE016F5F7F4F8EE090E00EDCFDCEF1
:102E20000230110509F0F9CE8A8965960FB6F8943B
:102E3000DEBF0FBECDBFDF91CF911F910F919BCE13
:102E40000330110509F0E9CE1091DC07143008F0C9
:102E5000E4CE812F0E94BC1F612F89E190E00E9487
:102E6000200C65EA8AE190E00E94200CDDCF03305F
:102E7000110509F0D2CE6091DC0716160CF0CDCE0C
:102E80006093030183E090E0EFCF2091DC072D8B6E
:102E900003301140C9F52330B8F5822F90E0FC01D2
:102EA000E159FF4FEB8BFC8B0DED17E0F8018081B2
:102EB000618180FB67F98B899C890E94200C0E5FE1
:102EC0001F4F2B893C892D5F3F4F2B8B3C8B8DED0A
:102ED00098E08017910751F764E480E793E00E943F
:102EE000200C64E381E793E00E94200C40E06D89B0
:102EF0008A8965960FB6F894DEBF0FBECDBFDF910D
:102F0000CF911F910F910BCE41E0F1CF9FEF980F22
:102F1000983048F48150990BFC01EE0FFF1FE553E8
:102F2000F84F608371830895FC01908192959170B0
:102F30008091EC08811509F441C080911401981327
:102F40003CC08091EB08853009F454C0813009F40D
:102F50005EC0823091F18091E9089091EA088E304C
:102F6000B1E09B07B8F52181AC014F5F5F4F409303
:102F7000E9085093EA08DC01A552B84F2C9362810E
:102F80004E3021E0520731F19C012E5F3F4F2093DC
:102F9000E9083093EA084552584FDA016C934381AF
:102FA0002E30B1E03B07B1F003968093E90890938F
:102FB000EA082552384FF9014083089581E0809353
:102FC000EC081092E9081092EA08909314018181AC
:102FD000803F21F082E08093EB08089582818E3754
:102FE00009F446C081113CC08381813099F78093F8
:102FF000EB0808958181863469F78281863351F721
:103000008381843339F786E08093EB0808958181CA
:10301000893701F784E08093EB088091E90890916B
:10302000EA088E3021E09207A8F642819C012F5FCA
:103030003F4F2093E9083093EA08DC01A552B84FCE
:103040004C9343812E3051E0350721F20296809354
:10305000E9089093EA082552384FD9014C93089516
:103060008D3771F483818D3409F0B4CF85E0BFCF03
:1030700083818F3709F0AECF83E08093EB0808950A
:103080008F3661F487E08093EB08838121E0209301
:10309000E9081092EA088093DB0708958F3509F05C
:1030A00099CF88E0F0CF2091EC08211111C0FC01EC
:1030B0002181203F09F456C01092E9081092EA08D5
:1030C0001092EB081092EC088FEF80931401089592
:1030D00030911401DC012C91229521703213F7CF2D
:1030E0001092EC082091EB08213009F441C0223005
:1030F00019F34091E9085091EA084E30F1E05F077A
:10310000D8F611962C91FA013196E093E908F093E4
:10311000EA08DA01A552B84F2C93DC0112962C91E3
:10312000EE30B1E0FB0741F2BA016E5F7F4F609372
:10313000E9087093EA08E552F84F2083FC01838187
:103140006E30F1E07F0709F4B7CF4D5F5F4F4093DA
:10315000E9085093EA086552784FDB018C93832F7E
:103160003BDDAACF82818E3609F0A6CF59D4A4CFF9
:1031700011962C91293709F09FCF24E02093EB087A
:103180004091E9085091EA084E30B1E05B0708F041
:1031900093CFFC012281BA016F5F7F4F6093E908F2
:1031A0007093EA08FA01E552F84F2083DC01139688
:1031B0008C916E30B1E07B0709F47ECF4E5F5F4F9C
:1031C0004093E9085093EA086552784FFB018083E9
:1031D000832F02DD71CFFC019091EC08911589F1EC
:1031E00080911401908192959170891335C010924D
:1031F000EC089091EB08923021F12091E908309190
:10320000EA082E3061E03607E0F49181A9014F5FB2
:103210005F4F4093E9085093EA08D901A552B84F8F
:103220009C9392814E30E1E05E0759F02E5F3F4F54
:103230002093E9083093EA084552584FFA019083E9
:10324000CBDC1092E9081092EA081092EB08109279
:10325000EC088FEF809314010895FC019091EC0825
:10326000911511F1809114019081929591708913BB
:1032700026C01092EC089091EB089230A9F02091B2
:10328000E9083091EA082E3091E0390768F491811D
:10329000A9014F5F5F4F4093E9085093EA08255218
:1032A000384FF901908398DC1092E9081092EA08EF
:1032B0001092EB081092EC088FEF809314010895A0
:1032C0002F923F924F925F926F927F928F929F9236
:1032D000AF92BF92CF92DF92EF92FF920F931F9324
:1032E000CF93DF93CDB7DEB7A8970FB6F894DEBFC4
:1032F0000FBECDBF8330910508F492C0FB01F08072
:10330000E180F110A6C08630910508F489C0E1146F
:1033100009F486C02281211509F482C0D480059762
:103320008D15910508F47CC0213108F079C00FB6E5
:10333000F894A89580916000886180936000109255
:1033400060000FBEF3E0DF1608F460C04FEF420FDD
:10335000477088E1489F402D112432E08FEE91E0C4
:10336000E31611F08FE690E0480F592F511D2150C0
:10337000330BC90195958795959587959595879573
:10338000919581959109807C90E03C01640E751EB9
:103390004B01F5E08F0E911C540100E010E0685FD6
:1033A0007F4F1B01FEA2FD2C6801C80CD91CC10176
:1033B000800F911FF6012191DF01220F2E93E81754
:1033C000F907C9F732E0C501E31609F4E3C0C3DA2F
:1033D000060D171D280183E0480E511CF60161916E
:1033E0006F01C8010E940D0C0F5F1F4F4016510660
:1033F000A9F7FEA1FD5FFEA30F2F10E023E0A20EB0
:10340000B11CC80102968F15910574F288E19FE006
:103410000FB6F894A895809360000FBE909360005B
:10342000A8960FB6F894DEBF0FBECDBFDF91CF9147
:103430001F910F91FF90EF90DF90CF90BF90AF90D2
:103440009F908F907F906F905F904F903F902F90C4
:10345000089531E0F312E4CFE31609F49DC082E051
:10346000E812DECF8FEE91E000E010E0932E20E82E
:10347000822EFE013196ECA3FDA337EF332E8E1B77
:103480009F0B9C012A5031092FA338A740E3442EFB
:10349000512CEEA22F2C7801540139E183169104AE
:1034A00018F088E1A82EB12C88E1881A910890EFD5
:1034B00099831A82E1E0EB83F9E7FC8324E02D8312
:1034C0001E823EA13F83288680E18987AA863B86AB
:1034D0003C863D863E863F86388A398A3A8A3B8AD0
:1034E0003C8A3D8A3E8A3F8A388E398E3A8E3B8EA0
:1034F0003C8E3D8E3E8E3F8E38A239A23AA23BA230
:103500000FB6F894A8958091600088618093600060
:10351000109260000FBE98EE89169FEF9906F9F0A1
:103520003E01EBE06E0E711C6501C60CD71C0FA1AD
:1035300018A50E0D1F1DC801860D971D0E94180CA1
:10354000FFE78F9FC0011124B2010E94392BF301C4
:1035500061933F01EC15FD0571F7EA0CFB1CF8E1E6
:103560002FE00FB6F894A895F09360000FBE20935B
:103570006000BE016F5F7F4FC5010B96DAD8809166
:103580000607909107070E94E62A239431E123124F
:1035900083CF46CF5CDA1CCF8FE690E065CFCF9328
:1035A000DF93EC014130510599F041505109FB0185
:1035B00020E030E09081983128F46181DE01A90F8C
:1035C000B11D6C932E5F3F4F32962417350790F351
:1035D000DF91CF9108951F93CF93DF93CDB7DEB7DF
:1035E000AD970FB6F894DEBF0FBECDBF80EF8983D5
:1035F0001A8211E01B8389E78C8382E08D831E830E
:103600001F8290E00E94180C8F5F8887198783E0E3
:1036100090E00E94180C8A8783E08B8785E090E019
:103620000E94180C8C8787E08D8789E090E00E94CB
:10363000180C8E8788E08F878AE090E00E94180C33
:10364000888B8AE0898B8EE090E00E94180C8A8B30
:103650008BE08B8B8DE090E00E94180C83708C8B3C
:103660008CE08D8B8DE090E00E94180C82958F701D
:103670008E8B8DE08F8B8CE090E00E94180C815037
:10368000888F8EE0898F8FE090E00E94180C8A8FDF
:103690008FE08B8F80E190E00E94180C8C8F80E18E
:1036A0008D8F81E190E00E94180C8E8F81E18F8FC9
:1036B00082E190E00E94180C88A382E189A383E153
:1036C00090E00E94180C8AA383E18BA384E190E030
:1036D0000E94180C8CA384E18DA385E190E00E94E8
:1036E000180C8EA385E18FA386E190E00E94180C50
:1036F00088A786E189A787E190E00E94180C8AA735
:1037000087E18BA788E190E00E94180C8CA787EFD7
:103710008DA7BE016F5F7F4F8DE290E00AD8AD9616
:103720000FB6F894DEBF0FBECDBFDF91CF911F91D2
:103730000895EF92FF920F931F93CF93DF93CDB72E
:10374000DEB7A5970FB6F894DEBF0FBECDBF0FB69C
:10375000F894A89520916000286120936000109251
:1037600060000FBE08E1FE013196DF01202F1D929F
:103770002A95E9F7AC01CF0112DF8A81898FAC81EC
:10378000AA8FB885BB8F29852C8F8B858D8FFC8464
:103790001D85EE84AF85AE8FB989BF8F2A8928A396
:1037A0008B8989A3AD89AAA3BE89BBA32F892CA32A
:1037B000888D8DA36981615082E090E00E940D0C9C
:1037C000698D83E090E00E940D0C6A8D85E090E0A9
:1037D0000E940D0C6B8D89E090E00E940D0C6C8DA9
:1037E0008AE090E00E940D0C6D8D8EE090E00E94CA
:1037F0000D0C612F6295607F6F298DE090E00E9433
:103800000D0C61E06E0D8CE090E00E940D0C6E8D51
:103810008FE090E00E940D0C6F8D81E190E00E949E
:103820000D0C68A182E190E00E940D0C69A183E17A
:1038300090E00E940D0C6AA185E190E00E940D0CC1
:103840006BA186E190E00E940D0C6CA187E190E0F5
:103850000E940D0C6DA188E190E00E940D0C0E9469
:10386000DF13B9DE0E94FF0C8FE00FB6F894A89525
:10387000009360000FBE80936000A5960FB6F89489
:10388000DEBF0FBECDBFDF91CF911F910F91FF9093
:10389000EF900895892B19F0FB0180818111089523
:1038A0000FB6F894A89580916000886180936000BD
:1038B000109260000FBE8FDE88E19FE00FB6F89493
:1038C000A895809360000FBE909360000895892BA7
:1038D00009F451C0FB018081813009F44DC0823070
:1038E00009F008950FB6F894A8958091600088615A
:1038F00080936000109260000FBE0E943C0C4FEF5E
:103900005FEF6FEF70E0CA010E94BB0DFFEF21EE89
:1039100084E0F15020408040E1F700C000004FEF0C
:103920005FEF6FEF70E080E090E00E94BB0D9FEFD3
:10393000E1EEF4E09150E040F040E1F700C000001B
:103940004FEF5FEF6FEF70E0CA010E94BB0D2FEFEA
:1039500081EE94E0215080409040E1F700C00000EB
:103960003ADE88E19FE00FB6F894A8958093600056
:103970000FBE9093600008950FB6F894A8958091BB
:103980006000886180936000109260000FBE0E940A
:10399000A00EA2C869E97BE181E0B8DA6AE47CE1C3
:1039A00082E0B4DA67E67CE183E0B0DA60E679E1F0
:1039B00084E0ACCACF93DF9300D00F92CDB7DEB7CF
:1039C00069834A832B83DFD290E0FC01EE0FFF1F57
:1039D000E80FF91FE351F74F8981682F70E06E5FA0
:1039E0007F4F769567957695679560838A81482F96
:1039F00050E04E5F5F4F56954795569547954183EA
:103A00008B81282F30E02E5F3F4F369527953695D6
:103A1000279522830F900F900F90DF91CF910895FB
:103A2000EDEEF8E080ECDF011D928A95E9F708954C
:103A30003F924F925F926F927F928F929F92AF923E
:103A4000BF92CF92DF92EF92FF920F931F93CF938B
:103A5000DF93FC015B018617970708F071C0D3E084
:103A60004D2EDCE15D2ED08121819281D6FB88270D
:103A700082F926FB332731F9832B96FD81606F0194
:103A8000811509F4C4C033E0C30ED11C682EDF7366
:103A90002F739F73D111DE5FC2E09C2E920E211115
:103AA00001C0912CB2E08B2E890E911101C0812CA6
:103AB0007601E60CF11C860114C0C32DCF738C2F48
:103AC00062D290E0FC01EE0FFF1FE80FF91FE351F7
:103AD000F74FD0839182828236FC6AC00E151F0593
:103AE00031F1F80130800F5F1F4F832D80778036D2
:103AF00021F733FA772473F833FE34C083E232FEC1
:103B000083E0C0E03822832D8C2B3DD290E0FC0175
:103B1000EE0FFF1FE80FF91FE351F74FD08391829B
:103B20008282CC5FC03279F70E151F05D1F66A94F8
:103B3000F6013196E60DF11DEA15FB0508F493CF69
:103B4000DF91CF911F910F91FF90EF90DF90CF9079
:103B5000BF90AF909F908F907F906F905F904F90AD
:103B60003F900895C32DCC0FCC0FCC713C2E37283D
:103B7000832D09D290E0FC01EE0FFF1FE80FF91F23
:103B8000E351F74FD08391828282832D8062FBD1F3
:103B900090E0FC01EE0FFF1FE80FF91FE351F74F14
:103BA000D08391828282739434E07312DFCF96CFF8
:103BB000832D80958F73E7D190E0FC01EE0FFF1FFE
:103BC000E80FF91FE351F74FD0839182828235FECF
:103BD00085CF832D8F718425D6D190E0FC01EE0F27
:103BE000FF1FE80FF91FE351F74FD08391828282C4
:103BF0008C2F8525C8D190E0FC01EE0FFF1FE80F48
:103C0000F91FE351F74FD0839182828267CF84E01E
:103C1000C80ED11C6380F601611039CF8DCFDF92C1
:103C2000EF92FF920F931F93CF93DF93EC010396D4
:103C300086179707E0F58B01045011090C1B1D0B2B
:103C40000C7F0C5F1F4F0C0F1D1F8B818F73F82E85
:103C50008A818F73E82E89818F73D82E88818F7324
:103C600092D1D11411F0D394D39490E09C01220FFF
:103C7000331FF901E80FF91FE351F74FD082E11428
:103C800011F0E394E394F901E80FF91FE351F74FC2
:103C9000E182F11411F0F394F394280F391FF90124
:103CA000E351F74FF28224960C171D0771F6DF914E
:103CB000CF911F910F91FF90EF90DF9008951F9388
:103CC000CF93DF93162FD42FC22F5DD111111E5F1A
:103CD00090E0FC01EE0FFF1FDF01A80FB91FA351F9
:103CE000B74F1C93D111DE5FDF01A80FB91FA3519D
:103CF000B74F1196DC93C111CE5FE80FF91FE35166
:103D0000F74FC283DF91CF911F910895633008F080
:103D10000895942F9F7770E0660F771FFB01EE5692
:103D2000FE4F0190F081E02DE90FF11D2491FB0180
:103D3000E856FE4F0190F081E02DE90FF11D44910E
:103D400062567E4FDB01ED91FD91E90FF11D64910B
:103D500031CECF93DF9300D000D0CDB7DEB749830B
:103D60002A838F7790E09C01220F331F280F391F81
:103D70002B833C83C90181599F4F0E94200C69818C
:103D80008B819C8180599F4F0E94200C6A818B817E
:103D90009C818F589F4F0F900F900F900F90DF9145
:103DA000CF910C94200CCF92DF92EF92FF920F9361
:103DB0001F93CF93DF936B017A0189018F7790E096
:103DC000EC01CC0FDD1FC80FD91F672B39F0CE01D6
:103DD00081599F4F0E94180CF6018083E114F10471
:103DE00039F0CE0180599F4F0E94180CF701808353
:103DF0000115110539F0CE018F589F4F0E94180C04
:103E0000F8018083DF91CF911F910F91FF90EF9088
:103E1000DF90CF900895CF93DF9380E793E00E94E7
:103E2000180C843401F1C0E0D0E0FE01E356FB4FF2
:103E30002491FE01E35EFA4F4491FE01E356FA4FEE
:103E400064918C2F86DF2196C038D10571F764E428
:103E500080E793E00E94200C64E381E793E0DF9128
:103E6000CF910C94200C81E793E00E94180C8433CE
:103E7000D1F6DF91CF910895CF93DF9300D000D09A
:103E8000CDB7DEB78C83862F9E012F5F3F4FAE01EB
:103E90004E5F5F4FBE016D5F7F4F85DF29814A8195
:103EA0006B818C810F900F900F900F90DF91CF91CD
:103EB00081CDCF93DF93CDB7DEB728970FB6F894B7
:103EC000DEBF0FBECDBF892BC9F0FB0160816F370C
:103ED000F1F480EF89831A8281E08B8389E78C83F8
:103EE00088E08D838091AD098E8387EF8F83BE013B
:103EF0006F5F7F4F87E090E00E94991328960FB67E
:103F0000F894DEBF0FBECDBFDF91CF9108956370EF
:103F100068876093AD0989E190E00E94180CF885EC
:103F20008F17B9F26F2F89E190E00E940D0CD1CF6D
:103F30008AE190E00E94180C853A91F060E089E1F6
:103F400090E00E940D0C65EA8AE190E00E940D0C61
:103F500080E08093AD0969E57FE188E00C948617E5
:103F600089E190E00E94180C843098F360E089E1C8
:103F700090E00E940D0CECCF83708093AD09089502
:103F80008091AD090895E091AD0990E4E99FF001B9
:103F900011248F73E80FF11DE35EF94F84910895AA
:103FA000E091AD09E195E37090E4E99FF0011124FF
:103FB0008F73E80FF11DE35EF94F84910895EDEEE4
:103FC000F8E0ABE0B7E09081818122812D939D9351
:103FD0008D93339689E0ED3AF807A9F708951F937A
:103FE000CF93DF9300D000D0CDB7DEB78091C80962
:103FF000843079F410E402C0115059F0BE016F5FB3
:104000007F4F80910607909107070E94002B811136
:10401000F3CF0E948F2AA8950F900F900F900F90CA
:10402000DF91CF911F910895CF93C82FF9DC1092A3
:104030003209C11182C080E480933309109234099F
:104040001092890980938A0910928B091092740941
:1040500082E180937509109276091092800980930D
:1040600081091092820982E192E110920E099093E7
:104070000F09109210091092650990936609109229
:104080006709109217098093180910921909109264
:10409000230980932409109225090E94EB0EEDE379
:1040A000F7E050E020E03FEF0BC0482F491B942F72
:1040B000931710F4392F522F2F5F3196283029F0A3
:1040C0009491981790F3981BF3CFC3706C2F70E006
:1040D000FB01EE0FFF1FEE0FFF1FEE0FFF1FE35E52
:1040E000F84F90E040E4951342E1249130E0D9018B
:1040F000AA0FBB1FA20FB31FA351B74F4D934D93F0
:104100004C939F5F3196983069F7C330D9F16C5D5D
:104110007C4FFB01808190E0FC01EE0FFF1FE80F58
:10412000F91FE351F74F80E480831182128247DF49
:104130008BE097E0CF910C94050F82E180933309D7
:10414000109234091092890980938A0910928B0980
:1041500010927409C13011F480E47BCF809375090B
:104160001092760910928009809381091092820939
:1041700090E4C23009F479CF80E492E1C33009F4CD
:1041800074CF71CF8FE390E0C7CF0F9383E2FBDE54
:10419000082F21E030E040E050E0BA01CA010E945F
:1041A000742BE0916B062E23E0916C063E23E09188
:1041B0006D064E23E0916E065E23E0916F066E233E
:1041C000E09170067E23A0917106F0917206E1E005
:1041D0008A239F23A0E00E94AA2B09F4E0E08E2FFF
:1041E0000F910895CDDE382E0E94B50D832D1CDF72
:1041F00010925306109254061092550610925606CD
:1042000010925706109258061092590610925A06AC
:1042100010925B0610925C0610925D0610925E068C
:1042200010925F061092600610926106109262066C
:1042300080916B068093630680916C068093640680
:1042400080916D068093650680916E068093660668
:1042500080916F0680936706809170068093680650
:1042600080917106809369068091720680936A0638
:10427000832D8370482E0E94A3110E94DC1193E0CD
:10428000491609F4DEC0E42DF0E0DF01AC5DBC4F5F
:104290000C9121E030E040E050E0BA01CA010E94F8
:1042A000742BE901042FF52EE62E772E682E592E59
:1042B000B0905306C090540610915506A090560633
:1042C00090905706D0905806B091590680905A06A3
:1042D0002B2D2C233C2D3D23412F40235A2D5F2194
:1042E000692D6E217D2D77218B2F8621982D95218B
:1042F000A0E00E94AA2B09F0B5C0EE0FFF1FEE0F41
:10430000FF1FEE0FFF1FCF01835E984F7C01C0E0BF
:10431000D0E0F701EC0FFD1F049121E030E040E018
:1043200050E0BA01CA010E94742B2B213C21412389
:104330005A2169217D218B239821A0E00E94AA2B7C
:1043400009F0CAC02196C830D10519F7412F40782D
:1043500020E030E050E0B9018B2F807190E00E94A6
:10436000AA2B09F40DC110E0311661F0812F04DE93
:10437000612F89E190E00E94200C65EA8AE190E0DB
:104380000E94200C812F50DEC8E7D0E028DE8FE9A4
:104390009FE00197F1F700C000002197B9F7109254
:1043A000530610925406109255061092560610921B
:1043B0005706109258061092590610925A061092FB
:1043C0005B0610925C0610925D0610925E061092DB
:1043D0005F0610926006109261061092620680914C
:1043E0006B068093630680916C06809364068091CF
:1043F0006D068093650680916E06809366068091B7
:104400006F0680936706809170068093680680919E
:104410007106809369068091720680936A06312E38
:10442000912F9370492EDBDDEFE9FFE03197F1F733
:1044300000C000000E94A3110E94DC1193E0491209
:1044400022CFC0E0D0E000E07E01370190E8592E95
:10445000E3E0F0E02DCFC3DDEFE9FFE03197F1F7C6
:1044600000C000000E94A31120916B062C23309104
:104470006C063D2340916D06402350916E065F21EE
:1044800060916F066E2170917006772180917106A0
:104490009091720686219521A0E00E94AA2BD9F660
:1044A000BFDA8DDD8BE097E00E94050FCEE1D0E012
:1044B00096DD8FE99FE00197F1F700C0000021979A
:1044C000B9F788E198E00FB6F894A895809360005A
:1044D0000FBE90936000FFCFC35CD84FFE01C49124
:1044E0008C2F0E94CE0E6C2F82E793E00E94200C4E
:1044F00068EB83E793E00E94200C832D95DD1092FA
:1045000053061092540610925506109256061092B9
:104510005706109258061092590610925A06109299
:104520005B0610925C0610925D0610925E06109279
:104530005F061092600610926106109262068091EA
:104540006B068093630680916C068093640680916D
:104550006D068093650680916E0680936606809155
:104560006F0680936706809170068093680680913D
:104570007106809369068091720680936A0653CF14
:104580007D2D707240E08B2F82700E94AA2B11F05B
:1045900011E0EACE3C2D38707D2D717080E00E94D4
:1045A000AA2B11F012E0E0CE3C2D3074412F447064
:1045B00070E013E00E94AA2B09F0D6CE34CF1F93EF
:1045C000CF93DF9300D000D0CDB7DEB78091C8097C
:1045D000843079F410E402C0115059F0BE016F5FCD
:1045E0007F4F80910607909107070E94002B811151
:1045F000F3CF0F900F900F900F90DF91CF911F91FD
:104600000895EF92FF920F931F93CF93DF9308DAF1
:104610000E9458148BE097E00E94050FE12CF12CCA
:10462000C3E0D0E0F701EB5BF84F0491F701EA5BE0
:10463000F84FE4911E2FF701E95BF84FE490011564
:10464000110571F001501109BADF69D7A8958FE9FA
:104650009FE00197F1F700C0000001501109A0F799
:10466000E11409F455C08E010E0D111D0E0D111D22
:1046700028C0FE01ED5BF84F9491FE01EC5BF84F12
:1046800044919034D8F4892F86958695382F3095AB
:1046900021E0903208F420E0220F220F9370290FBE
:1046A000220F220F3370230F002482FF0394802DEA
:1046B0008295880F807E60E0820F28DBC017D107CB
:1046C00039F17E012296CF3A8BE0D80790F20E9412
:1046D00058148BE097E00E94050F71DF20D7A89552
:1046E000E7012396CF3A9BE0D90708F49BCF98D9EE
:1046F0000E9458148BE097E00E94050F60DF0FD7EF
:10470000A895DF91CF911F910F91FF90EF900895A1
:104710007E01DDCF8091B309877F8093B3098091BB
:10472000B909877F8093B9098091BF09877F8093FA
:10473000BF0982E08093C00980914F069091500696
:10474000A0915106B09152060197A109B109809339
:10475000C1099093C209A093C309B093C4090895F5
:104760002F923F924F925F926F927F928F929F9281
:10477000AF92BF92CF92DF92EF92FF920F931F936F
:10478000CF93DF931C01C0904F06D0905006E0906D
:104790005106F09052068091C1099091C209A091F2
:1047A000C309B091C40967E0B695A7959795879519
:1047B0006A95D1F7A601B701E7E076956795579519
:1047C0004795EA95D1F784179507A607B70709F427
:1047D00086C08091C0098F5F282F30E0833008F0B9
:1047E00099C18093C009F901EE0FFF1FE20FF31F7B
:1047F000EE0FFF1FDF01A255B64FA601B7014078AB
:104800004D935D93ED927D93EE54F64F81818860D8
:1048100081830E94C4132091C00930E0F901EE0F9A
:10482000FF1FE20FF31FEE0FFF1FEE54F64F8770CE
:104830009081907F892B80830E94C4132091C009AE
:1048400030E0F901EE0FFF1FE20FF31FEE0FFF1F25
:10485000EE54F64F87708295807F90819F70892BF0
:10486000808304C091FD3BC0811139C00E94C413F4
:104870002091C00930E0F901EE0FFF1FE20FF31F96
:10488000EE0FFF1FEE54F64F918180FB90F991835C
:104890000E94C4132091C00930E0F901EE0FFF1F00
:1048A000E20FF31FEE0FFF1FEE54F64F918180FBD6
:1048B00091F991830E94C4132091C00930E0817066
:1048C000F901EE0FFF1FE20FF31FEE0FFF1FEE5473
:1048D000F64F918180FB92F9918390FFC3CFC092F4
:1048E000C109D092C209E092C309F092C40980ECD8
:1048F000E10119928A95E9F74EEA59E020E030E0AB
:10490000D901AA0FBB1FA20FB31FAA0FBB1FBD0166
:104910006D54764FFB01808183FD1AC02F5F3F4F9E
:104920004A5F5F4F2330310559F7DF91CF911F91D7
:104930000F91FF90EF90DF90CF90BF90AF909F903E
:104940008F907F906F905F904F903F902F90089541
:10495000560180E090E010E0AE54B64FEA01E881E5
:10496000F981E501CE1BDF0BFE01E81BF90B0AF410
:1049700058C0EB01888080FE5DC0E034F1050CF486
:10498000BEC0EF37F1050CF04CC00EE7402E4E1ABA
:1049900081FEA3C0942C82FE4BC0892CFC91EF2F8A
:1049A000E295EF70FF70512E5F0ED8E05D16C8F4EF
:1049B000E83008F085C0E2FBFF27F5F9E370EF2B44
:1049C000550C550CE529E10103E0E002C00DD11DB5
:1049D0001124488299828A82FC91EF2FE295EF7030
:1049E000FF705F2E511AC8E05C16C8F4E83090F4EE
:1049F000550C550CFE2FF3705F2AE2FBEE27E5F90C
:104A0000E529E10103E0E002C00DD11D1124488237
:104A100099828A82FC91EF2FE295EF70FF70F83057
:104A2000B8F01F5F4896183009F098CF77CF912CD7
:104A3000812CB4CFE034F1050CF456C0EF37F1050A
:104A400084F781FE49C00EE7902E9E1A412CA3CF19
:104A50005E2E510EC8E05C16B8F5EF2FEE0FEE0F8C
:104A6000F52DF370EF2B52FA552455F8E529D3E0D4
:104A7000ED02F0011124E20DF31D40829182828249
:104A8000FC915F2E5294DFE05D22511AFF70F830E6
:104A900040F6E8E05E1628F6EF2FEE0FEE0FF52D4C
:104AA000F370EF2B52FA552455F8E52903E0E002A4
:104AB000F0011124E20DF31D408291828282B1CF78
:104AC000F11BF83008F4A6CFFC915F2E5294CFE092
:104AD0005C22511AFF70DDCF412C82FEA8CFFEE789
:104AE0008F2E8E1A912C5ACFDFE34D2E4E1A942C16
:104AF00081FC09C082FE51CF0FE3802E4FCF81FE93
:104B00000DC0DFE34D2E82FE11C0EFE39E2E0FE3BA
:104B1000802E44CF80E020E030E063CEFFE39F2E84
:104B20009E1ACFE34C2E82FCE7CF37CFFFE38F2EC8
:104B30008E1ACFE39C2E32CFBF92CF92DF92EF92AC
:104B4000FF920F931F93CF93DF938C01EB016A01C8
:104B500005D2B82E81112EC0C114D10439F0F6014E
:104B600080819181C81BD90B080F191F209711F163
:104B7000E12CF12C9091E80095FF0FC0F801908195
:104B80009093F1002197B1F00F5F1F4FFFEFEF1AE5
:104B9000FF0A9091E80095FDF1CF9091E8009E7793
:104BA0009093E800BCD4C114D10479F4D7D1811515
:104BB00009F3B82E8B2DDF91CF911F910F91FF90AC
:104BC000EF90DF90CF90BF900895F60180819181A2
:104BD0008E0D9F1D8083918385E0B82EEBCFBF9211
:104BE000CF92DF92EF92FF920F931F93CF93DF93B9
:104BF0008C01EB016A01B2D1B82E81112EC0C11413
:104C0000D10439F0F60180819181C81BD90B080FBE
:104C1000191F209711F1E12CF12C9091E80095FFDC
:104C20000FC09091F100F80190832197B1F00F5FD0
:104C30001F4FFFEFEF1AFF0A9091E80095FDF1CFAB
:104C40009091E8009B779093E80069D4C114D10457
:104C500079F484D1811509F3B82E8B2DDF91CF9192
:104C60001F910F91FF90EF90DF90CF90BF9008952C
:104C7000F601808191818E0D9F1D8083918385E057
:104C8000B82EEBCFFC012091CF093091D009261727
:104C9000370748F06115710529F48091E8008E7797
:104CA0008093E8009B0190E00EC0853039F180913F
:104CB000E80083FD25C08091E80082FD19C0809145
:104CC000E80080FD1FC02115310511F4911581F018
:104CD0008091C8098111E9CF82E008958091C809C7
:104CE0008115D1F3853051F08091E80083FD08C033
:104CF0008091E80082FFF2CF80E0089583E008957C
:104D000081E008958091F3004091F200582F211521
:104D10003105A9F491E04034510509F090E080910B
:104D2000E8008E778093E800CECF81918093F100E8
:104D3000215031094F5F5F4F2115310559F3403440
:104D4000510598F391E04034510541F7E8CFFC015B
:104D50002091CF093091D0092617370748F0611507
:104D6000710529F48091E8008E778093E8009B011B
:104D700090E00EC0853039F18091E80083FD25C0B8
:104D80008091E80082FD19C08091E80080FD1FC07D
:104D90002115310511F4911581F08091C809811117
:104DA000E9CF82E008958091C8098115D1F385305B
:104DB00051F08091E80083FD08C08091E80082FFF7
:104DC000F2CF80E0089583E0089581E00895809116
:104DD000F3004091F200582F21153105B1F491E014
:104DE0004034510509F090E08091E8008E7780937F
:104DF000E800CECF84918093F100319621503109A3
:104E00004F5F5F4F2115310551F34034510590F349
:104E100091E04034510539F7E7CF873070F5982F8E
:104E200024C07091EC003091ED005091F00031FF02
:104E300019C02091EB002E7F2093EB002091ED0014
:104E40002D7F2093ED002091EB0021602093EB005B
:104E50007093EC003093ED005093F0002091EE0041
:104E600027FF10C09F5F973041F09093E9008913AE
:104E7000D8CF342F762F50E0DACF8F708093E900AF
:104E800081E0089580E008950F931F93CF93DF93FF
:104E90006115E9F1EC0170E08B01000F111F000FAB
:104EA000111F060F171F080F191F04C025960C1796
:104EB0001D0769F158815115C9F3852F8F7087300F
:104EC00000F5E981FA816B819C8146E0923008F41B
:104ED00042E0E930F10560F028E030E090E09F5FCB
:104EE000220F331F2E173F07D0F39295907F492B47
:104EF0006295660F660F607C57FD61608EDF8111E1
:104F0000D5CF80E0DF91CF911F910F91089581E07F
:104F1000DF91CF911F910F9108958091C90987FF6B
:104F200005C012C08091C809811549F08091E80040
:104F300080FFF8CF8091E8008E778093E800089595
:104F40008091C8098115D9F38091E80082FFF8CFDC
:104F50008091E8008B778093E80008958091E400C9
:104F60009091E50025E6AC019091EC00892F8170CD
:104F700090FD19C09091E80092FD1CC08091C80975
:104F80008115C9F08530C9F08091EB0085FD11C015
:104F90008091E4009091E5004817590729F32150CA
:104FA00011F784E008958091E80080FFE7CF80E06A
:104FB000089581E0089582E0089583E0089564D023
:104FC0006BD0E0EEF0E0808181608083E8ED80814D
:104FD0008F77808319BCA7EDB0E08C918E7F8C9386
:104FE00080818F7E80831092D10908950F931F9343
:104FF000CF93DF9349D050D0C8EDD0E088818F7730
:10500000888388818068888388818F7D888319BCA4
:105010001092C8091092C7091092C5091092C609CA
:1050200000EE10E0F80180818B7F808388818160B1
:10503000888342E360E080E0F0DEE1EEF0E0808132
:105040008E7F8083E2EE80818160808380818860B2
:105050008083E0EE80818E7F808388818061888379
:10506000DF91CF911F910F910895E8EDF0E08081DD
:105070008F7E8083E7ED80818160808384E082BFC2
:1050800081E08093D109B2CFE8EDF0E080818E7F9E
:1050900080831092E20008951092DA001092E100ED
:1050A00008951F920F920FB60F9211242F933F93E2
:1050B0004F935F936F937F938F939F93AF93BF9320
:1050C000EF93FF938091E10082FF04C08091E200A2
:1050D00082FD8CC08091DA0080FF04C08091D800EE
:1050E00080FD6EC08091E10080FF04C08091E200ED
:1050F00080FD83C08091E10084FF2BC08091E2009D
:1051000084FF27C080E189BD82E189BD09B400FE2A
:10511000FDCF8091D8008F7D8093D8008091E100F1
:105120008F7E8093E1008091E2008F7E8093E20089
:105130008091E20081608093E2008091C709811133
:1051400071C08091E30087FD77C081E08093C8093A
:10515000E5D18091E10083FF22C08091E20083FFCE
:105160001EC08091E100877F8093E10082E0809300
:10517000C8091092C7098091E1008E7F8093E100F9
:105180008091E2008E7F8093E2008091E200806156
:105190008093E20042E360E080E03FDEBFD1FF9118
:1051A000EF91BF91AF919F918F917F916F915F919F
:1051B0004F913F912F910F900FBE0F901F90189518
:1051C0008091DA008E7F8093DA008091D90080FF91
:1051D0002DC080E189BD82E189BD09B400FEFDCF0B
:1051E00081E08093C8090E94B2097CCF8091E100E0
:1051F0008B7F8093E10092D16DCF8091E2008E7F12
:105200008093E2008091E20080618093E2008091CF
:10521000D80080628093D80019BC85E08093C809CB
:105220007DD168CF84E08093C80992CF19BC1092D9
:10523000C8090E94B30956CF83E088CFCF93DF938C
:10524000CDB7DEB7AB970FB6F894DEBF0FBECDBFBC
:1052500089EC99E0FC0101962091F100208329E07E
:10526000813D9207B9F75AD18091E80083FF06C0CB
:105270009091C9098091CA098A30B8F08091E800FC
:1052800083FF0AC08091E800877F8093E8008091C7
:10529000EB0080628093EB00AB960FB6F894DEBF14
:1052A0000FBECDBFDF91CF910895E82FF0E0EC5312
:1052B000F44D14C2911509F4C8C09230F9F69091DA
:1052C000CB09911120C09091CD099F70B9F29093B4
:1052D000E9002091EB0020FF16C0833009F418C1CB
:1052E0008091EB0080618093EB0021E001C0220FF0
:1052F0009A95EAF72093EA001092EA008091EB0079
:1053000088608093EB001092E9008091E800877F2D
:105310008093E80002DEB2CF903809F4A1C0923841
:1053200009F0ACCF8091CD098F708093E900809116
:10533000EB0085FB882780F91092E9009091E80046
:10534000977F9093E8008093F1001092F100809194
:10535000E8008E778093E800E0DD90CF91118ECF4A
:105360008091CB09823008F089CF9091E800977F37
:105370009093E8008093C709D0DD8091C70981151B
:1053800009F475C084E08093C8090E94B40976CFFF
:10539000903809F073CF8091E800877F8093E80010
:1053A0008091C7098093F1008091E8008E77809307
:1053B000E800B3DD63CF9058923008F05FCF809162
:1053C000CB099091CC098C3D23E0920709F457C09A
:1053D000AE014F5F5F4F6091CD090E942815BC015F
:1053E000892B09F44BCF9091E800977F9093E800C8
:1053F00089819A81ACDC8091E8008B778093E8000A
:105400003DCF91113BCF8091CB098F778BA78091B6
:10541000E30080789BA5892B8093E3008091E800CE
:10542000877F8093E80079DD8091E80080FFFCCFE2
:105430008091E30080688093E3002BA583E0211135
:1054400001C082E08093C80919CF9091CB099130B7
:1054500009F014CF833009F090E09093C50953CF41
:105460008091C509880F9091C609892B67CF8091DB
:10547000E30087FD4BC081E08093C80986CF83E0BD
:105480008A838AE289835FB7F894DE01139620E06D
:105490003EE0EEE0F0E041E240935700849120FDD1
:1054A0000CC08F708A30D0F0895C8D931D922F5F75
:1054B00040935700849120FFF4CF982F92959F70CE
:1054C000803A88F0995C9D931D9212972F5F24314A
:1054D00061F03F5F1296E32FF0E0DECF805D8D93A9
:1054E0001D922F5FD9CF905DEECF5FBF8091E80016
:1054F000877F8093E8006AE270E0CE010196C2DB0C
:105500008091E8008B778093E800B8CE84E0B4CF38
:105510008091EB0080628093EB00F5CE0895CF93ED
:10552000DF930F92CDB7DEB78091C8098115A1F046
:105530009091E9008091EC009F7080FB882787F9AB
:10554000982B99831092E9008091E80083FD08C0B0
:1055500089818F708093E9000F90DF91CF9108953A
:105560006DDEF6CFCF93DF93EC011B8682E08C8358
:10557000898761E0CE01019687DC811103C0DF914C
:10558000CF91089561E0CE010696DF91CF917CCC5A
:10559000FC019B019091C80982E0943009F00895C4
:1055A00091819F709093E90040E050E064E070E0EA
:1055B000C901C2DA8111F3CF9091E80095FDEFCFD8
:1055C0009091E8009E779093E8000895FC019091F7
:1055D000C809943099F481818F708093E9002091FB
:1055E000F3008091F200922F892B11F480E008954E
:1055F0008091E8008E778093E800B0CC82E0089537
:10560000FC019B019091C809943061F496819F70D0
:105610009093E9008091E80082FF04C08091E80047
:1056200085FD02C080E0089540E050E064E070E055
:10563000C901D5DA8091E80085FD05C08091E800B8
:105640008B778093E80081E00895AA1BBB1B51E192
:1056500007C0AA1FBB1FA617B70710F0A61BB70BE2
:10566000881F991F5A95A9F780959095BC01CD0187
:10567000089597FB072E16F4009406D077FD08D006
:10568000E4DF07FC05D03EF4909581959F4F089587
:10569000709561957F4F0895A1E21A2EAA1BBB1B3E
:1056A000FD010DC0AA1FBB1FEE1FFF1FA217B307EE
:1056B000E407F50720F0A21BB30BE40BF50B661F04
:1056C000771F881F991F1A9469F7609570958095C8
:1056D00090959B01AC01BD01CF010895EE0FFF1F16
:1056E0000590F491E02D0994002E083090F0982F49
:1056F000872F762F652F542F432F322F22270850C4
:10570000F4CF220F331F441F551F661F771F881FBA
:10571000991F0A95B2F7002D089597FD1094002E59
:10572000083098F00850232F342F452F562F672F1D
:10573000782F892F912DF4CF15949795879577958C
:10574000679557954795379527950A95AAF7112498
:10575000002D08950024A7FD00942A173005400568
:10576000500560057005800590050895F894FFCFF9
:10577000890A830A7D0A770A610A4B0A250A250AE3
:10578000250A250A250A3C0A8C295A293E295A2924
:0C5790003E29012ADB293E29C829AE2948
:10579C004E04B44A0E018240000001014000000199
:1057AC0000938D0FFF30000000000030000000005F
:1057BC00000000003000000000003000003000004D
:1057CC00000000300000000000000000300000006D
:1057DC000000300000000000300000180000280C11
:1057EC0000140600201900100C001920000C1000E9
:1057FC00003000001800001E1E000F0F00003000CB
:10580C0000181907200D0311240012120009181892
:10581C0018F07E7F06020001790600010030240397
:10582C0020F79D041D039D011D059D031D029D0573
:10583C001D049D020000001010102020203F3F3F4F
:10584C003F0F0F3F00002000001000003F2E1A3FBA
:10585C000F002008001004003F2B0B3F3F002020BE
:10586C0000101000213F0C143F000A20000510000E
:10587C00123F12003F00002000001000123F1700E2
:10588C003F06002003001001123F16003F150020B8
:10589C000B001006123F2D003F25002012001009AE
:1058AC0012303F00293F001520000B1012213F0041
:1058BC00153F000B200006100B093F00003F0000B5
:1058CC00200000101A0D3E0B003F060020030010B4
:1058DC003F0F3F3F003F2000201000103F101B3FA8
:1058EC00001420000A1000053F0300250D001D14B4
:1058FC0000080D01000E0000120600051B00003F01
:10590C000011130400321F1F1F0707073F00002E52
:10591C003F0B2B3A01183F02032200003F170029CE
:10592C003F000A3F06003F16003F2B061E0A0400EC
:10593C003F0C002137011C3F05003F000E3F0915AD
:10594C003F1B0D3F3216223F0C14301A143934070A
:10595C003F3F00163F11002D2900233F0020160168
:10596C000E0A0000120303130805050A0507161991
:10597C000E0620000036100A3512043F2F09273777
:10598C000B192C0305050B36341A1F3A2226253F1A
:10599C0023193F0F0F0F1C1C1C373F3F2700000D16
:1059AC0000000633000110002D2B000F0C002C14EE
:0859BC000012050023001C008D
:00000001FF
