:100000000C946E090C94A4090C94A4090C94A409F2
:100010000C94A4090C94A4090C94A4090C94A409AC
:100020000C94A4090C94A4090C944C150C9476150A
:100030000C94A4090C94A4090C94A4090C94A4098C
:100040000C94A4090C94A4090C94A4090C94A4097C
:100050000C94AD0C0C94A4090C94A4090C949E105F
:100060000C94A4090C94A4090C94A4090C94A4095C
:100070000C94A4090C94A4090C94A4090C94A4094C
:100080000C94A4090C94A4090C94A4090C94A4093C
:100090000C94A4090C94A4090C94A4090C94A4092C
:1000A0000C94A4090C94A4090C94A4092C034D00ED
:1000B000690064006900200046006900670068006C
:1000C0007400650072002000360034002000280013
:1000D000430046005700290012034D004600360039
:1000E00034002000430046005700040309040902BD
:1000F000850002010080F0090400000001010000F9
:1001000009240100010900010109040100020103A1
:10011000000007240100016100062402010100061D
:100120002402010200062402020300062402020443
:10013000000924030105010301000924030106014C
:10014000040100092403020701010100092403023C
:100150000801020100090501024000000000062517
:10016000010201020905820240000000000625018B
:100170000205061201100100000040FECA464D03B0
:10018000000102000100000000000000000000006B
:10019000000000000000000000000000000000005F
:1001A000000000000000000000000000000000004F
:1001B000000000000000000000000000000000003F
:1001C000000000000000000000000000000000002F
:1001D000000000000000000000000000000000001F
:1001E000000000000000000000000000000000000F
:1001F00000000000000000000000000000000000FF
:1002000000000000000000000000000000000000EE
:100210000000000000555555555555555555555537
:100220005555555555AAAAAAAAAAAAAAAAAAAAAAD7
:10023000AAAAAAAAAAFFFFFFFFFFFFFFFFFFFFFF77
:10024000FFFFFFFFFF0000000000000000000000B3
:1002500000000000005555555555555555555555F7
:100260005555555555AAAAAAAAAAAAAAAAAAAAAA97
:10027000AAAAAAAAAAFFFFFFFFFFFFFFFFFFFFFF37
:10028000FFFFFFFFFF0055AAFF0055AAFF0055AA78
:10029000FF0055AAFF0055AAFF0055AAFF0055AA66
:1002A000FF0055AAFF0055AAFF0055AAFF0055AA56
:1002B000FF0055AAFF0055AAFF0055AAFF0055AA46
:1002C000FF0055AAFF0055AAFF0055AAFF0055AA36
:1002D000FF0055AAFF0055AAFF0055AAFF0055AA26
:1002E000FF0055AAFF0055AAFF0055AAFF0055AA16
:1002F000FF0055AAFF0055AAFF0055AAFF0055AA06
:10030000FF0055AAFF000000007D000000007D00F6
:100310000000007D000000007D000000007D000066
:1003200000007D000000007D000000007D00000056
:10033000007D000C1C2D9E3D1C3D5DBE7D2D5D8E07
:10034000DFBE3D7DBEFFFF3D7DBEFFFF3D7DBEFFAD
:10035000FF3D7DBEFFFF3D7DBEFFFF3D7DBEFFFF3C
:100360003D7DBEFFFF3D7DBEFFFF3D7DBEFFFF2DFE
:100370005D8EDFBE1C3D5DBE7D0C1C2D9E3D244967
:100380006D92B6DBFF000000007D000C1C2D9E3D31
:100390001C3D5DBE7D2D5D8EDFBE3D7DBEFFFF3D04
:1003A0007DBEFFFF3D7DBEFFFF3D7DBEFFFF3D7D6E
:1003B000BEFFFF3D7DBEFFFF3D7DBEFFFF3D7DBE1D
:1003C000FFFF3D7DBEFFFF2D5D8EDFBE1C3D5DBE90
:1003D0007D0C1C2D9E3D0000007D000000007D0076
:1003E0000000007D000000007D000000007D000096
:1003F00000007D000000007D000000007D00244919
:100400006D92B6DBFF003D7DBEFFFF3D7DBEFFFF71
:100410003D7DBEFFFF3D7DBEFFFF3D7DBEFFFF2D4D
:100420005D8EDFBE1C3D5DBE7D0C1C2D9E3D000023
:10043000007D000000007D000000007D0000000045
:100440007D000000007D000000007D000000007DB8
:10045000000000007D000000007D000C1C2D9E3D72
:100460001C3D5DBE7D2D5D8EDFBE3D7DBEFFFF3D33
:100470007DBEFFFF3D7DBEFFFF3D7DBEFFFF2449EA
:100480006D92B6DBFF001C7DFF4900000069000093
:10049000004900000049000000490000005D180C00
:1004A0000086551C10B6963510FFFF5118FFFF55FA
:1004B00018FFFF5518FFFF612DFFFF551886511CCF
:1004C000100000000000357DFF4DCA7D1C002D048A
:1004D000080086FFFFFFFF790000041400246DCAA6
:1004E000FFC2E7FF5900000004000C352859180826
:1004F0003D18242D0C2D69BAFFFF3D71FF0000004F
:100500000000000000001C7DFF49000000BA511CE3
:1005100018FFFF5518FFFF5528FFFF5518FFFF551F
:1005200018FFFF551CFFFF5518C2A6410C86551C2D
:100530000449000000490000004900000049000093
:1005400000143551613955510045007D1C00FFEB09
:10055000FF8AFFA6280000182049DFFFFFFFFFFFEA
:100560008A517D1C007DAEFF5928494D141C39006D
:100570005169DFDFB21CFFFF96653D71FF0000CEC1
:1005800041AE315D14001C7DFFFFFF5518FFFF5584
:1005900024FFFF551886511C104900000049000037
:1005A0000049000000490000004900000049000027
:1005B00000490000008651180CFFFF5518FFFF5539
:1005C00020FF9675410000000000247D1CFFBAAE9C
:1005D000610C0000003D79AE3DFF86710039553554
:1005E000593186D2FFFFB68E8239100C141465A6DD
:1005F000DBD7FF9E651CDB7D9A8E3D71DF9E351833
:1006000004B63DB249000102030405060708090AC1
:100610000B0C0D0E0F101112131415161718191AB2
:100620001B1C1D1E1F202122232425262728292AA2
:100630002B2C2D2E2F303132333435363738393A92
:100640003B3C3D3E3F1C1814101D1915111E1A1677
:10065000121F1B17133C3834303D3935313E3A36C2
:10066000323F3B37330C0804000D0905010E0A0622
:10067000020F0B07032C2824202D2925212E2A26A2
:10068000222F2B27233F3E3D3C3B3A393837363526
:1006900034333231302F2E2D2C2B2A292827262592
:1006A00024232221201F1E1D1C1B1A191817161582
:1006B00014131211100F0E0D0C0B0A090807060572
:1006C000040302010023272B2F22262A2E2125296D
:1006D0002D2024282C03070B0F02060A0E01050902
:1006E0000D0004080C33373B3F32363A3E31353982
:1006F0003D3034383C13171B1F12161A1E111519E2
:100700001D1014181C04050607242526271D19157D
:10071000110D0905013B3A39381B1A191822262AEE
:100720002E32363A3E283C5064788CA0B40000014A
:1007300023051F00032205234827051F0006210566
:100740002248235F260527482B0520000A20052183
:1007500048225F233525052648275F2A052B482F89
:10076000051F000E2048215F2235235E2405254801
:10077000265F273529052A482B5F2E052F4833058C
:100780001F0012205F2135225E23512448255F2659
:1007900035275E280529482A5F2B352D052E482F41
:1007A0005F3205334837052000162035215E22517F
:1007B0002331245F2535265E27512848295F2A35B5
:1007C0002B5E2C052D482E5F2F3531053248335FC7
:1007D000360537483B051F001A205E215122312380
:1007E000502435255E26512731285F29352A5E2B76
:1007F000512C482D5F2E352F5E30053148325F3346
:100800003535053648375F3A053B483F051F001D23
:100810002051213122502332245E25512631275088
:100820002835295E2A512B312C5F2D352E5E2F5114
:100830003048315F3235335E34053548365F373501
:1008400039053A483B5F3E053F481F001F203121D4
:1008500050223223332451253126502732285E2955
:10086000512A312B502C352D5E2E512F31305F31D6
:1008700035325E33513448355F3635375E380539A9
:10088000483A5F3B353D053E483F5F1F0020205002
:100890002132223323002431255026322733285198
:1008A00029312A502B322C5E2D512E312F503035CC
:1008B000315E32513331345F3535365E3751384829
:1008C000395F3A353B5E3C053D483E5F3F35200091
:1008D0001F203221332200245025322633270028BE
:1008E0003129502A322B332C512D312E502F3230BA
:1008F0005E3151323133503435355E36513731380F
:100900005F39353A5E3B513C483D5F3E353F5E1FA7
:10091000001D20332100243225332600285029329F
:100920002A332B002C312D502E322F3330513131C0
:1009300032503332345E3551363137503835395EC6
:100940003A513B313C5F3D353E5E3F511F001A201E
:100950000024332500283229332A002C502D322E32
:10096000332F003031315032323333345135313658
:10097000503732385E39513A313B503C353D5E3E5E
:10098000513F312000162400283329002C322D330A
:100990002E0030503132323333003431355036325C
:1009A0003733385139313A503B323C5E3D513E315C
:1009B0003F501F001228002C332D003032313332CB
:1009C000003450353236333700383139503A323B03
:1009D000333C513D313E503F321F000E2C0030332E
:1009E0003100343235333600385039323A333B0037
:1009F0003C313D503E323F331F000A300034333526
:100A000000383239333A003C503D323E333F001F0C
:100A100000063400383339003C323D333E002000BC
:100A20000338003C333D001F00021F053C001F003F
:100A3000031B051E051F4820000617051A051B4845
:100A40001D051E481F5F1F000A13051605174819CC
:100A5000051A481B5F1C051D481E5F1F351F000E31
:100A60000F051205134815051648175F1805194894
:100A70001A5F1B351C481D5F1E351F5E1F00120BC1
:100A8000050E050F4811051248135F140515481689
:100A90005F17351848195F1A351B5E1C5F1D351E20
:100AA0005E1F511F001607050A050B480D050E486D
:100AB0000F5F10051148125F13351448155F163586
:100AC000175E185F19351A5E1B511C351D5E1E51CD
:100AD0001F3120001A03050605074809050A480BBF
:100AE0005F0C050D480E5F0F351048115F1235136E
:100AF0005E145F1535165E17511835195E1A511BB5
:100B0000311C5E1D511E311F501F001D0205034880
:100B100005050648075F080509480A5F0B350C48BC
:100B20000D5F0E350F5E105F1135125E13511435D7
:100B3000155E16511731185E19511A311B501C5190
:100B40001D311E501F321F001F01050248035F04A4
:100B5000050548065F07350848095F0A350B5E0C36
:100B60005F0D350E5E0F511035115E1251133114A9
:100B70005E155116311750185119311A501B321C7D
:100B8000311D501E321F3320002000050148025F36
:100B900003350448055F0635075E085F09350A5EC0
:100BA0000B510C350D5E0E510F31105E115112318B
:100BB00013501451153116501732183119501A327A
:100BC0001B331C501D321E331F001F001F00480125
:100BD0005F0235035E045F0535065E07510835097F
:100BE0005E0A510B310C5E0D510E310F5010511138
:100BF0003112501332143115501632173318501960
:100C0000321A331B001C321D331E001F001D005FF3
:100C10000135025E03510435055E06510731085E59
:100C200009510A310B500C510D310E500F32103159
:100C30001150123213331450153216331700183274
:100C400019331A001C331D001F001A0035015E0203
:100C5000510331045E055106310750085109310A2C
:100C6000500B320C310D500E320F33105011321226
:100C7000331300143215331600183319001C001FEB
:100C80000016005E01510231035004510531065037
:100C90000732083109500A320B330C500D320E3333
:100CA0000F00103211331200143315001800200009
:100CB000120051013102500332043105500632074F
:100CC00033085009320A330B000C320D330E00107A
:100CD00033110014001F000E0031015002320333A3
:100CE0000450053206330700083209330A000C337A
:100CF0000D0010001F000A005001320233030004EF
:100D00003205330600083309000C002000060032CB
:100D1000013302000433050008001F000300330103
:100D20000004001F000100007D00040F0513052CC6
:100D30000530051F000C0B050E050F481205134862
:100D4000170528052C482D053048310534052000AD
:100D50001807050A050B480D050E480F5F1105120F
:100D600048135F160517481B052405284829052C3C
:100D70005F2D482E05305F3148320534483505383F
:100D8000051F002803050605074809050A480B5FEB
:100D90000C050D480E5F0F3510051148125F133515
:100DA00015051648175F1A051B481F05200524481E
:100DB0002505285F29482A052C352D5F2E482F054B
:100DC0003035315F32483305345F354836053848B1
:100DD00039053C051F003402050348050506480790
:100DE0005F080509480A5F0B350C480D5F0E350F8B
:100DF0005E1048115F1235135E14051548165F1713
:100E00003519051A481B5F1E051F48204821052477
:100E10005F254826052835295F2A482B052C5E2D9D
:100E2000352E5F2F48305E3135325F3348343535EB
:100E30005F36483705385F39483A053C483D051F5D
:100E4000003C01050248035F04050548065F0735BD
:100E50000848095F0A350B5E0C5F0D350E5E0F51B9
:100E6000105F1135125E13511448155F1635175E69
:100E7000180519481A5F1B351D051E481F5F205FA6
:100E8000214822052435255F26482705285E293577
:100E90002A5F2B482C512D5E2E352F5F3051315E4D
:100EA0003235335F345E3535365F37483835395F34
:100EB0003A483B053C5F3D483E051F0040000501A8
:100EC00048025F03350448055F0635075E085F0981
:100ED000350A5E0B510C350D5E0E510F3110351178
:100EE0005E12511331145F1535165E1751184819EB
:100EF0005F1A351B5E1C051D481E5F1F35203521FE
:100F00005F22482305245E2535265F27482851297E
:100F10005E2A352B5F2C312D512E5E2F353031312D
:100F200051325E33353451355E3635375F385E3990
:100F3000353A5F3B483C353D5F3E483F0520004029
:100F40000048015F0235035E045F0535065E075108
:100F50000835095E0A510B310C5E0D510E310F50F0
:100F6000105E1151123113501435155E16511731A0
:100F7000185F19351A5E1B511C481D5F1E351F5E18
:100F8000205E2135225F23482451255E2635275FC8
:100F9000283129512A5E2B352C502D312E512F5EB0
:100FA000305031313251335E34313551365E373560
:100FB0003851395E3A353B5F3C5E3D353E5F3F48D8
:100FC0001F0040005F0135025E03510435055E06D7
:100FD000510731085E09510A310B500C510D310E89
:100FE000500F321051113112501332145E15511638
:100FF0003117501835195E1A511B311C5F1D351EF3
:101000005E1F512051215E2235235F243125512658
:101010005E2735285029312A512B5E2C322D502E37
:10102000312F513032315032313351345035313625
:1010300051375E383139513A5E3B353C513D5E3E69
:10104000353F5F1F00400035015E02510331045EF1
:10105000055106310750085109310A500B320C3145
:101060000D500E320F331031115012321333145110
:10107000153116501732185E19511A311B501C3594
:101080001D5E1E511F3120312151225E2335245017
:1010900025312651275E283229502A312B512C33F5
:1010A0002D322E502F3130333132325033313432F1
:1010B000355036313751385039313A513B5E3C3139
:1010C0003D513E5E3F35200040005E01510231033C
:1010D000500451053106500732083109500A320BCD
:1010E000330C500D320E330F0010501132123313E7
:1010F000001431155016321733185119311A501B7C
:10110000321C5E1D511E311F5020502131225123AF
:101110005E2432255026312751283329322A502B7C
:10112000312C002D332E322F5030003133323233F8
:10113000503433353236503731383239503A313B0A
:10114000513C503D313E513F5E1F003C005101314A
:101150000250033204310550063207330850093279
:101160000A330B000C320D330E0010321133120013
:101170001450153216331700183119501A321B3318
:101180001C511D311E501F3220322150223123515B
:101190002433253226502731280029332A322B5078
:1011A0002D002E332F3231003233333234003533B9
:1011B00036323750383339323A503B313C323D5079
:1011C0003E313F511F0034003101500232033304DD
:1011D00050053206330700083209330A000C330D7C
:1011E0000010331100143215331600185019321A3A
:1011F000331B001C311D501E321F3320332132227D
:10120000502331240025332632275029002A332B3E
:10121000322E002F33320033333500363337323835
:101220000039333A323B503C333D323E503F311F60
:101230000028005001320233030004320533060057
:10124000083309000C00100014331500183219334C
:101250001A001C501D321E331F0020002133223281
:1012600023502500263327322A002B332F0033004A
:101270003600373339003A333B323C003D333E329F
:101280003F501F00180032013302000433050008EC
:10129000001400183319001C321D331E00210022D7
:1012A000332332260027332B0037003A003B333DEF
:1012B000003E333F3220000C0033010004001800D0
:1012C0001C331D002200233327003B003E003F3328
:1012D0001F000400001C0023003F000011241FBE5B
:1012E000CFEFDAE0DEBFCDBF04B603FE17C08091BA
:1012F000490890914A08A0914B08B0914C088A3C4B
:101300009C4AA244BC4D51F41092490810924A08DC
:1013100010924B0810924C080C94003811E0A0E099
:10132000B1E0EEE8F0E502C005900D92AE3AB107EB
:10133000D9F728E0AEEAB1E001C01D92A934B207A6
:10134000E1F711D00C942D280C940000A1C3A0D378
:1013500088E19FE00FB6F894A895809360000FBED7
:1013600090936000089500D000D0CDB7DEB784B769
:10137000877F84BF0FB6F894A8958091600088613C
:1013800080936000109260000FBE80E890E00FB67E
:10139000F89480936100909361000FBE85BF85BF74
:1013A000C1D20E94ED200E94C3219BD43AD36AD3BC
:1013B00066D60E94751E0E94F51D2FEF89EF90E002
:1013C000215080409040E1F700C000003FD777D720
:1013D00080E00E94EE21082F2091ED043091EE0470
:1013E0004091EF045091F0046091F1047091F20487
:1013F0008091F3049091F4040E940628217030E05B
:1014000040E050E0BA01CA01A0E00E94212821F08A
:1014100045D30E94DC16FFCF0E94E822182F0E94BD
:101420005B147894111189C10E9418251092B301A0
:101430001092B4011092B2011092B10199249394C8
:101440009091AE0180914906843031F0911152C1E2
:10145000809149068430E1F700E010E07801CE0188
:1014600001960E94BD14811192C0EFEFEE1AFE0AA0
:10147000F9E6EF16F10409F0ADC0E8D620D7E09107
:10148000D504F091D604B091D7048090D804609030
:10149000D9045090DA044090DB043090DC049F01C2
:1014A0004B2F582D662D752D842D932DA0E00E9475
:1014B000212811F01092B101712CAA24A394B12C0F
:1014C000C12CD12C760186013FC02091DD042A2158
:1014D0003091DE043B214091DF044C215091E00427
:1014E0005D216091E1046E217091E2047F21809181
:1014F000E3049091E40481239023A0E00E9421283A
:1015000009F0B7C0739480E4781609F4C3C095015C
:10151000A601B701812F902F01E00E94EB2759010E
:101520006A017B01182F092FE091D504F091D604B0
:10153000B091D7048090D8046090D9045090DA0418
:101540004090DB043090DC042E2F2A213F2F3B21DA
:101550004B2F4C21582D5D21662D6E21752D7F213D
:10156000842D8123932D9023A0E00E94212809F44B
:10157000ACCF872DFDD7882E8091B001823008F442
:10158000BBC04FE7682D809104015FD79ECF0F5FEE
:101590001F4FE9818E2F82958F70E03270F4EF70CB
:1015A000E450EC3050F4F0E0E15DF74D0C94E527A9
:1015B0001FD7CE0101960E94E318023D110509F4E0
:1015C0005CCFCE0101960E94BD148111E0CF91E065
:1015D000E92EF12CA89543CF8A818A3F09F4A5C052
:1015E0008C3F09F49FC0883F41F790928705C4D78C
:1015F000E4CF6A81962F9C7001F7EB812CEDF22EDF
:10160000FE0E20E4F216C8F66F704C81633009F4C8
:101610008FC08F2D0E94EB1FEF2DF0E0EA5BFA4F99
:101620001082CBCF8A818C7041F6EB81E452E0349A
:1016300020F68091D1049091D204A091D304B0916E
:10164000D404F0E0EA5BFA4F80688083B6CFD0D64E
:10165000CE0101960E94A219B0CFCAD6CE01019642
:101660000E943A1AAACFC4D6CE0101960E947C1AD3
:10167000A4CF872D7DD7882E8091B001823008F4C9
:1016800046C040E0682D80910401DFD6739480E469
:1016900078123DCF0E9436150091D1041091D204EA
:1016A0002091D3043091D4040F7786E4E82E85E0AE
:1016B000F82E10E003C01F5F1034B1F0F7018191E4
:1016C0007F0187FFF8CFF02FF81B8F2F880F843012
:1016D00090F320E040E060E0812F0E94C41FF701FA
:1016E00012921F5F103451F7BBD789E895E010D3F1
:1016F0009092AE01A895A4CE41E0682D809104019E
:101700007BD68091B001811509F4DFCE3ACF40E05D
:10171000682D8091040170D68091B001811509F483
:10172000F1CEAFCF1092870548CF9092870545CF75
:10173000642F8F2D0E9467216FCF0E94132374CED8
:10174000F999FECF9F7092BD81BD60BDF894FA9A61
:10175000F99A789408959C01F999FECF32BD21BD84
:10176000F89A80B50895CF93DF9300D00F92CDB74C
:10177000DEB789839A836B83EEDF9B81891306C072
:101780000F900F900F90DF91CF910895692F89816D
:101790009A810F900F900F90DF91CF91D1CFAF92A0
:1017A000BF92CF92DF92EF92FF920F931F93CF934E
:1017B000DF9361E080E090E0C3DF82E0809304018A
:1017C00062E090E0BDDF8FE7809303016FE783E085
:1017D00090E0B6DF61E08AE090E0B2DF1092B00105
:1017E00060E089E090E0ACDF60E085E090E0A8DFB9
:1017F00062E08CE090E0A4DF61EF8DE090E0A0DF9C
:1018000064E08EE090E09CDF6EE18FE090E098DF96
:101810006FE780E190E094DF66E481E190E090DFA3
:101820006CE382E190E08CDF6CE083E190E088DFA4
:101830006FE784E190E084DF60E085E190E080DFA5
:1018400060E486E190E07CDF60E088E190E078DFB2
:1018500060E089E190E074DF65EA8AE190E070DFA2
:101860008CE38093AF016CE387E190E069DF60E097
:1018700080E793E065DF60E081E793E061DF64EBA0
:1018800082E793E05DDF68EB83E793E059DFA12C0B
:10189000B12C650189E3E82E81E0F82E8501C0E0D6
:1018A000D0E0F70180E4C816D104A0F56081C8013A
:1018B00081599F4F45DF2DE030E0C901880F991F06
:1018C000820F931F875C9E4FFC01EC0FFD1F608110
:1018D000C80181519E4F34DF21960F5F1F4FFFEFEC
:1018E000EF1AFF0AC330D105E1F68FEFC81AD80A04
:1018F000E3E0AE0EB11CF0E8CF16D10459F6DF914B
:10190000CF911F910F91FF90EF90DF90CF90BF90FC
:10191000AF90089561ADC80181599F4F11DF29E053
:1019200030E0CBCF80E090E016DF813009F037DF88
:1019300082E090E010DF8093040183E090E00BDF11
:101940008093030189E090E006DF8093B00187E196
:1019500090E001DF8093AF0108951F921FB61F92A0
:1019600011242F933F938F939F93AF93BF93EF9344
:10197000FF93109285001092840080EE9FEF909369
:10198000850080938400E7EBF1E02FEB31E081915B
:101990009191009721F0DF0101979E938E932E176E
:1019A0003F07A9F78091870581110CC08091CF0472
:1019B0009091D0048B34910529F101968093CF0446
:1019C0009093D0048091B3019091B40101968093DB
:1019D000B3019093B4018091BD019091BE01892B18
:1019E00029F480E18093BD011092BE01FF91EF9137
:1019F000BF91AF919F918F913F912F911F901FBEEB
:101A00001F90189581E08093CF041092D0048091AC
:101A1000B5019091B60101968093B5019093B601FE
:101A2000D1CF87E884B980EC87B9E4E6F0E0808123
:101A3000877F808310928000E1E8808184608083CA
:101A400080818D7F808380818E7F8083F89480E485
:101A50009EEF9093850080938400EFE68081816003
:101A600080831092B7011092B8011092B9011092C0
:101A7000BA011092BB011092BC011092BD011092EC
:101A8000BE010895EFE6F0E080818E7F80830895A7
:101A9000EFE6F0E08081816080830895CF93DF934B
:101AA000CDB7DEB7E0970FB6F894DEBF0FBECDBF5F
:101AB00080E3E9E0F1E0DE01119601900D928A9554
:101AC000E1F73E9A84B1806784B9F89430E0FE0172
:101AD000319640815181628173814093CB01509353
:101AE000CC016093CD017093CE0130FD339628E197
:101AF00080E090E0A0E8B0E013C00000000000002B
:101B000000002E982150C1F0B695A795979587951E
:101B10004091CB015091CC016091CD017091CE01EB
:101B2000482359236A237B232E9A452B462B472B88
:101B300021F72E98215041F73F5F303251F6FE01D8
:101B4000319640815181628173814093C7015093E6
:101B5000C8016093C9017093CA0120FD339638E132
:101B600080E090E0A0E8B0E013C0000000000000BA
:101B7000000046983150C1F0B695A7959795879586
:101B80004091C7015091C8016091C9017091CA018B
:101B9000482359236A237B23469A452B462B472B00
:101BA00021F74698315041F72F5F203251F6FE0160
:101BB000319640815181628173814093C30150937A
:101BC000C4016093C5017093C60130FD339628E1CE
:101BD00080E090E0A0E8B0E013C00000000000004A
:101BE00000002D982150C1F0B695A795979587953F
:101BF0004091C3015091C4016091C5017091C6012B
:101C0000482359236A237B232D9A452B462B472BA8
:101C100021F72D98215041F73F5F303251F6FE01F8
:101C2000319640815181628173814093BF0150930D
:101C3000C0016093C1017093C20120FD339638E169
:101C400080E090E0A0E8B0E013C0000000000000D9
:101C500000002C983150C1F0B695A79597958795BF
:101C60004091BF015091C0016091C1017091C201CA
:101C7000482359236A237B232C9A452B462B472B39
:101C800021F72C98315041F72F5F203251F678948C
:101C9000E0960FB6F894DEBF0FBECDBFDF91CF91B7
:101CA0000895853BB8F084EB80930201282F30E043
:101CB00040E050E060E077E083E090E00E94C327DE
:101CC000042E052A11F02FEF3FEF209300013093EF
:101CD000010108958111E8CF81E0E6CF80910201F2
:101CE000089583E793E037DD883B51F064EB82E7AA
:101CF00093E039DD68EB83E793E035DD84EBD1CF0A
:101D000082E793E028DD9FEF980F943BB8F7C9CFA7
:101D10002F923F924F925F926F927F928F929F92FB
:101D2000AF92BF92CF92DF92EF92FF920F931F93E9
:101D3000CF93DF93CDB7DEB729970FB6F894DEBF08
:101D40000FBECDBF89839A833E9A84B1806784B9E0
:101D50008FB78E83E5B1EC833E2F3F78F8B1FD83DA
:101D60007F2EE89476F890910201E981FA81BF0113
:101D700060547F4F40E050E08191813408F080E46E
:101D8000480F511DE617F707B9F7E92FF0E04F01AB
:101D900080910001909101018417950798F44E5F9E
:101DA0005F4FBA01769567957695679561157105D0
:101DB00049F080EC91EC0E949C276E177F0710F48D
:101DC0004B01E62F212C312CA12CBE2E1B82592C2D
:101DD000132F7F82C82C3F01E981FA81E887F987B8
:101DE0008A2D8695282F30E0F901EE0FFF1FE20FB4
:101DF000F31F20E2280FB901660F771F620F731FD0
:101E0000805D90E07C01EE0CFF1CE80EF91E910154
:101E100029523E4FAB2DBB81888599858E0F9F1F20
:101E200089839A83FC014281413408F040E4469D55
:101E3000C001479D900D112480960024880F991FA2
:101E4000001C880F991F001C892F902DD82E888583
:101E50009985680F791FFB014281413408F040E405
:101E6000469DC001479D900D112480960024880F47
:101E7000991F001C880F991F001C892F902D00E0CE
:101E800042E050E0E885F985EE0EFF1EF701E40F11
:101E9000F51F9081913408F090E49A9FA0019B9FD8
:101EA000500D1124405E5F4F0024440F551F001C4D
:101EB000440F551F001C452F502DF901389790E80D
:101EC0000FC0512F5064492E482209F05062442E11
:101ED000492209F05061519396952E173F0729F03A
:101EE000592F5D2171F7512FEECF0F5F0330C1F1F4
:101EF000285F3F4FE1E0F0E0013009F0E0E0AF01A2
:101F0000A981BA81AE0FBF1FAC91A13408F0A0E443
:101F1000A89DC001A99D900D112480960024880FD2
:101F2000991F001C880F991F001C892F902DD82EF7
:101F3000E60FF71FE081E13408F0E0E4E89DC0011E
:101F4000E99D900D112480960024880F991F001C94
:101F5000880F991F001C892F902DAC2DB52D96CF81
:101F6000F8E12F0E311CA39480E2A81239CF7F80B4
:101F7000E885F985E983FA83F894FD806894F6F89A
:101F8000FC81F067EF2ED12C612F00E010E08D2D49
:101F90008695805F90E09C01220F331F280F391F28
:101FA000A80141535E4F70E082E0E981FA812E0F73
:101FB0003F1FF901E80FF91FE081E13408F0E0E488
:101FC000EA9FC001EB9F900D112480960024880F9A
:101FD000991F001C880F991F001C892F902DFA0152
:101FE00098E0B190E5B8F8B80000000000000000EB
:101FF000B5B887FF78B800000000000065B978B870
:10200000880F9A9571F77F5F733081F0485F5F4F5B
:10201000E1E0713009F0E0E08E2F90E0F901E80F87
:10202000F91FE081E13408F4CBCFC9CF085E1F4F20
:10203000D394F0E2DF12ABCF65B978B88E818FBF51
:10204000EFEEF0E03197F1F700C0000029960FB6EF
:10205000F894DEBF0FBECDBFDF91CF911F910F91DE
:10206000FF90EF90DF90CF90BF90AF909F908F90B8
:102070007F906F905F904F903F902F900895579A68
:10208000569A3F98479A5F9A5E9AE6EFF4E080E5A9
:10209000DF011D928A95E9F785B5846085BD85B518
:1020A0008D7F85BD85B58E7F85BD80ED86BDEEE6D5
:1020B000F0E080818160808378941092ED0410922A
:1020C000EE041092EF041092F0041092F1041092BA
:1020D000F2041092F3041092F4041092E5041092AA
:1020E000E6041092E7041092E8041092E9041092BA
:1020F000EA041092EB041092EC041092DD041092AA
:10210000DE041092DF041092E0041092E1041092B9
:10211000E2041092E3041092E4041092D5041092A9
:10212000D6041092D7041092D8041092D9041092B9
:10213000DA041092DB041092DC0408950F920FB6BB
:102140000F921F921124EF92FF920F931F932F93E0
:102150003F934F935F936F937F938F939F93AF932F
:10216000BF93CF93DF93EF93FF9380ED86BD5E9A8D
:102170005E98E0E421E030E040E050E0BA01CA01BE
:102180007A0110E0E701D701F0E05F98379908C0C5
:10219000E22AF32A142BD52BC62BB72BA82BF92B0D
:1021A00001E00E94EB275F9AE15079F72091F50456
:1021B00030E0C901880F991F880F991F880F991F58
:1021C0008A509B4FE094F0941095D095C095B095AF
:1021D000A0954F2F4095FC01E082F1821283D383BA
:1021E000C483B583A6834783C90101966AE070E082
:1021F0000E94B0278093F5048091D1049091D2047D
:10220000A091D304B091D4040196A11DB11D809377
:10221000D1049093D204A093D304B093D404FF913B
:10222000EF91DF91CF91BF91AF919F918F917F916E
:102230006F915F914F913F912F911F910F91FF905F
:10224000EF901F900F900FBE0F901895EF92FF9296
:102250000F931F93CF93DF93E6EFF4E06FEF7FEFE1
:10226000AB019A01CA01E080F18002811381D4811F
:10227000C581B681A78138967E216F2150234123E5
:102280003D232C239B238A23A5E0E634FA0759F744
:102290007093ED046093EE045093EF044093F004C8
:1022A0003093F1042093F2049093F3048093F404A8
:1022B000DF91CF911F910F91FF90EF9008958F9232
:1022C0009F92AF92BF92CF92DF92EF92FF920F93C5
:1022D0001F93CF93DF938090E5049090E604A09045
:1022E000E704B090E804C090E904D090EA04E090DC
:1022F000EB04F090EC047091ED046091EE045091C9
:10230000EF044091F0043091F1042091F204909197
:10231000F3048091F404082D0095192D1095DA2D01
:10232000D095CB2DC095BC2DB095AD2DA095FE2D93
:10233000F095EF2DE09507230093D5041623109315
:10234000D604D523D093D704C423C093D804B32391
:10235000B093D904A223A093DA04F923F093DB0409
:10236000E823E093DC04072F0095162F1095D52F56
:10237000D095C42FC095B32FB095A22FA095F92F5B
:10238000F095E82FE09508210093DD0419211093C2
:10239000DE04DA21D093DF04CB21C093E004BC211A
:1023A000B093E104AD21A093E204FE21F093E30495
:1023B000EF21E093E4047093E5046093E604509306
:1023C000E7044093E8043093E9042093EA049093EF
:1023D000EB048093EC04DF91CF911F910F91FF905C
:1023E000EF90DF90CF90BF90AF909F908F90089527
:1023F00081708093880508951F93CF93DF9300D059
:1024000000D0CDB7DEB74115E1F019E199E020E940
:102410008F70822B8A836F776B83809103018F7714
:102420008C839983CE010196E5D21983CE01019662
:10243000E1D20F900F900F900F90DF91CF911F91ED
:10244000089518E198E020E8E3CFCF93DF9300D020
:1024500000D0CDB7DEB78F70806B8A836F776B83C8
:102460004F774C838BE08983CE010196C3D28BE1F9
:102470008983CE010196BED20F900F900F900F90DE
:10248000DF91CF910895BF92CF92DF92EF92FF92AA
:102490000F931F93CF93DF9300D000D00F92CDB74F
:1024A000DEB77C018B01429540714D8384E0E816D4
:1024B000F10470F1B42E6894B2F86E019FEFC91A5E
:1024C000D90AB982F80180818A8381818B838281D4
:1024D0000D5F1F4F8C83C6018DD2F3E0EF1AF10818
:1024E00084E0E816F10468F780E09D8195609983A7
:1024F000F80190819A831B821C82F2E0EF16F104AE
:10250000C9F0F3E0EF16F104E1F0C60173D203C0A5
:10251000E114F10421F50F900F900F900F900F90A0
:10252000DF91CF911F910F91FF90EF90DF90CF90AF
:10253000BF9008958D8186608983F80181818B83A6
:10254000E4CF811551F083E09D81892B8983F801C7
:10255000828191819B838C83D8CF87E0F5CF81E006
:102560006E019FEFC91AD90AC0CF409188058BCF61
:102570000E94FB218C5D089580918705811107C021
:102580001092B5011092B60181E080938705809189
:102590008605833021F08F5F80938605089581E062
:1025A000809386058091B5019091B6010196809344
:1025B000B5019093B601089520910501309106016F
:1025C000922F9295990F907E822F9327292F2695EF
:1025D0002827392F30FB922F88279795879597F9D1
:1025E0008227932780930501909306010895633015
:1025F000B0F491E0960F70E0680F711DFB01EE0FD3
:10260000FF1FE60FF71FE757FA4F80E020E3208314
:10261000118212828F5F39968913F9CF089568303D
:1026200030F4633069F463E070E094E0E5CF6B3040
:10263000A8F79BE0961B660F660F695070E0DCCF31
:1026400094E0F9CF8091B9019091BA01892B29F4D6
:102650008CE18093B9011092BA011092070108959C
:10266000E1E7F7E0A9E8B5E09081818122812D932F
:102670009D938D93339628E0E133F207A9F780917B
:10268000B3019091B401803D974060F01092B30186
:102690001092B4018091B2018F5F8093B2018C33AC
:1026A00008F044C08091AF018115E1F09091B10133
:1026B000891709F448C0891708F440C02091D5044F
:1026C0003091D6044091D7045091D8046091D90438
:1026D0007091DA048091DB049091DC04A0E00E9408
:1026E0002128D9F4609107016F30F8F48091B90185
:1026F0009091BA01892B51F48CE18093B901109229
:10270000BA016F5F609307016F3079F080E06FDF8F
:1027100060910701645080E26ACF1092B20110927A
:10272000B101609107016F3008F308958091B10104
:102730008F5F8093B1011092B201B4CF89E895E028
:102740000E94C425BBCF0E949E259091B1019F5F3E
:102750009093B1018091AF01891708F0AFCFEECF10
:10276000FC0190818181228191110EC0811122C0D2
:10277000211531F0203339F0213808F456C020E318
:102780009083818322830895811108C0211121C083
:102790009033C9F3913880F190E3F2CF211120C03A
:1027A000981778F5803279F3813808F448C080E2D0
:1027B00099E1E6CF211106C0803329F3813880F1F9
:1027C00080E3DECF8E31F9F2813860F12EE18EE1C7
:1027D000D7CF9432C1F2913800F122E194E2D0CF08
:1027E000853240F4203279F2913860F120E287E0BE
:1027F00099E1C6CF28E188E198E190838183228323
:102800000895392F3695381790F0983209F4BBCFD8
:102810009138F8F08CE098E2B3CF29E092E1B0CFA4
:1028200088E1AECF2FE08FE0ABCF28E1A9CF903287
:1028300009F4A9CF913850F089E190E2A1CF80E16D
:102840009CE09ECF21E183E09DE09ACF8CE090E177
:1028500097CF86E094E194CF83CF813009F1823025
:10286000C1F08330F9F46330E8F470E0660F771F4D
:10287000FB01E558FE4F808191816B587E4FFB0133
:10288000208131814115510519F0FA0120833183EE
:102890000895611107C025E830E08EEE90E0F2CF98
:1028A000611521F020E030E0C901ECCF22E130E0F9
:1028B00083E791E0E7CF9FB7F89410924E0681E04E
:1028C000809349068091E00081608093E0008091D0
:1028D000D70081608093D70080EA8093D80089B5C3
:1028E000806189BD89B5826089BD09B400FEFDCFD4
:1028F000EFE9FFE03197F1F700C000008091D800C8
:102900008F7C80618093D8008091E0008B7F8093E2
:10291000E0008091E0008C7F8093E0001092E10065
:1029200088E08093E2009FBF86EA99E0892B11F04E
:102930000C94A60908959FB7F8941092E200809134
:10294000E00081608093E0008091D80080628093F5
:10295000D80089B58D7F89BD8091D7008E7F809307
:10296000D7001092490610924E069FBF80E090E07B
:10297000892B11F00C9400000895009749F12091E3
:102980004906243029F52FB7F8943091E90041E049
:102990004093E9004091E80042FF1CC04091F200E2
:1029A0004430C0F04091F100FC0140834091F100BF
:1029B00041834091F10042834091F1004383809133
:1029C000F200811103C08BE68093E80081E00EC025
:1029D00080E008958091E80082FF07C08091F200B6
:1029E000811103C08BE68093E80080E03093E9001A
:1029F0002FBF0895FC01892BB9F1809149068430DD
:102A000099F57091E40020EC3DE562E00BC0509335
:102A1000E9004FBF9091E400971B923028F52150B8
:102A2000304011F14FB7F8945091E9006093E900FC
:102A30009091E80095FFEBCF80818093F100818138
:102A40008093F10082818093F10083818093F10073
:102A50008091E80085FD03C08AE38093E8005093ED
:102A6000E9004FBF81E0089580E008958091490614
:102A7000843089F48FB7F8949091E90022E0209394
:102A8000E9002091F200211519F02AE32093E800D3
:102A90009093E9008FBF08951F921FB61F921124D3
:102AA0008F938091E10083FD05C08F911F901FBE21
:102AB0001F9018958091E100877F8093E10010922C
:102AC000E90081E08093EB001092EC0082E38093B8
:102AD000ED0088E08093F00010924E0682E0809333
:102AE00049068F911F901FBE1F9018951F920F923D
:102AF0000FB60F9211242F933F934F935F936F93D1
:102B00007F938F939F93AF93BF93EF93FF93CF9355
:102B1000DF93CDB7DEB72A97DEBFCDBF1092E900B5
:102B20008091E80083FF1CC0FE013196AE01475F33
:102B30005F4F8091F10081934E175F07D1F782EFCD
:102B40008093E800998197FD24C08EEF8093E80080
:102B5000892F807639F11092E90081E28093EB00B1
:102B60002A960FB6F894DEBF0FBECDBFDF91CF918E
:102B7000FF91EF91BF91AF919F918F917F916F9155
:102B80005F914F913F912F910F900FBE0F901F902B
:102B900018958091E80080FDDBCF8091E80080FFF0
:102BA000F8CFD6CF2B813C816B81EA81EC3098F64F
:102BB000F0E0E55CF74D0C94E5278091E80080FF9C
:102BC000FCCF60686093E3008B81811509F499C0A4
:102BD00083E0809349061092E9008EEF8093E8002D
:102BE000BFCF1092E9006115C1F3B7CF19861A86DD
:102BF0008C8133DEFC01892B09F4ADCF89859A8560
:102C0000892B09F4A8CF2F8138851092E900109202
:102C10004C0610924D0620934A0630934B06498588
:102C20005A854115510509F444C0415051094E0FD0
:102C30005F1F80E090E07EEF64918217930770F051
:102C4000019680934C0690934D064E175F0789F1CD
:102C5000319620914A0630914B06EECF8091E800E4
:102C60008570E1F38091E80082FD75CF6093F100FB
:102C700080914C0690914D060196282F2F7330E0DD
:102C8000232BF9F67093E80080914C0690914D0645
:102C9000D7CF9F711092E90091115FCF213031059C
:102CA00009F05BCF9ACF9F7171F52130310509F0A2
:102CB00052CF1092E90091CF1092F1001092F100E2
:102CC0001092E9008ACF9F7109F045CF623008F079
:102CD00042CF60934E0680914E0681112FC083E053
:102CE000809349061092E900E4CF80914E068093CC
:102CF000F1001092E90071CF1092F1001092E900FA
:102D00006CCF82E066CF923009F025CF232B09F0FB
:102D100022CF9091E9008D818F708093E90080919E
:102D2000EB0088608093EB008091EB008F7D8093B7
:102D3000EB009093E9001092E9004FCF3FB7F89471
:102D40004091E90086E08093EA001092EA0081E079
:102D50008093E9008093EB0090E89093EC0096E379
:102D60009093ED002091EE0052E05093E9008093A3
:102D7000EB0081E88093EC009093ED008091EE00F1
:102D80004093E9003FBF27FD0AC010924E0683E042
:102D9000809349061092E9001092E900DECE87FF89
:102DA000F4CF84E08093490687EA99E0892B09F4FF
:102DB00099CF0E94A70996CFBEDDF89480E8EFEF87
:102DC000F9EF3197F1F700C000008150C1F78AECAC
:102DD0009CEAA2E4BCED8093490890934A08A09332
:102DE0004B08B0934C0888E19CE00FB6F894A89586
:102DF000809360000FBE90936000FFCFCF93DF936E
:102E0000CDB7DEB72A970FB6F894DEBF0FBECDBFA1
:102E100090EF99839DE79A839DE49B8396E49C833E
:102E200096E39D8394E39E8391E19F83688749871E
:102E300097EF9A87482FBE016F5F7F4F8AE090E03F
:102E400022DB2A960FB6F894DEBF0FBECDBFDF910E
:102E5000CF910895CF93DF93CDB7DEB72B970FB601
:102E6000F894DEBF0FBECDBF8B8780EF89838DE7DF
:102E70008A838DE48B8386E48C8386E38D8384E36D
:102E80008E8384E08F830E94EB21888780910301E9
:102E9000898787EF8A874B85BE016F5F7F4F8AE006
:102EA00090E0F1DA2B960FB6F894DEBF0FBECDBFDF
:102EB000DF91CF9108950F931F93CF93DF93CDB7F9
:102EC000DEB764970FB6F894DEBF0FBECDBF8A8B16
:102ED00000916D0710916E078BDA80916F07883033
:102EE000B1F0873009F465C0863009F472C08430CF
:102EF000F1F0833009F43EC064960FB6F894DEBF5B
:102F00000FBECDBFDF91CF911F910F910895B801F2
:102F1000625A794F8FE596E064960FB6F894DEBF5B
:102F20000FBECDBFDF91CF911F910F91E6C6011566
:102F3000110511F3E0915F068FEF8E0F8830E0F6F8
:102F4000E150FF0BEE0FFF1FE15BF94F0190F081A5
:102F5000E02D309789F260E676E0C801019764962B
:102F60000FB6F894DEBF0FBECDBFDF91CF911F919A
:102F70000F9109940230110508F4BECF80915F06CD
:102F8000863009F0B9CF80916006813009F0B4CF66
:102F900081E1E1E8F1E0DE01119601900D928A9560
:102FA000E1F74A89BE016F5F7F4F81E190E06BDA04
:102FB000A3CFB801625A794F8FE596E064960FB6B9
:102FC000F894DEBF0FBECDBFDF91CF911F910F915F
:102FD0008BC70230110508F48FCFF801E25AF94F80
:102FE0009081973F09F088CF80915F06813009F486
:102FF00051C0833009F473C0853009F4A1C0863014
:1030000009F4B5C0803109F47AC0823109F074CF77
:103010000330110509F070CFE0916006EB8BE330CF
:1030200008F06ACF80EF80935F068DE7809360069B
:103030008DE48093610686E48093620686E3809344
:10304000630684E38093640683E180936506E093DE
:10305000660607E616E01C8A6C898B89DFD7F801C3
:1030600081938F01FC89FF5FFC8BF038A9F787EF14
:103070008093E7064A896FE576E089E890E06496F8
:103080000FB6F894DEBF0FBECDBFDF91CF911F9179
:103090000F91F9C90330110509F02ECF2091600678
:1030A0002F7730EF39833DE73A833DE43B8336E4C5
:1030B0003C8336E33D8334E33E8332E03F8328871D
:1030C00039878A871B861C8687E18D879E874A8978
:1030D000BE016F5F7F4F8EE090E0D5D90DCF0230FB
:1030E000110509F009CF8A8964960FB6F894DEBFFE
:1030F0000FBECDBFDF91CF911F910F91ABCE8091CD
:1031000060068B8B0338110569F4833058F4E1E6CF
:10311000F6E005C0319686E0E13EF807B1F1808126
:103120008034C0F341E06B898A8964960FB6F894C5
:10313000DEBF0FBECDBFDF91CF911F910F915ECE4D
:103140000330110509F0D8CE10916006143008F054
:10315000D3CE812F0E94E721612F89E190E00E9468
:10316000B30B65EA8AE190E00E94B30BBCCF033059
:10317000110509F0C1CE6091600616160CF0BCCEA8
:103180006093030183E090E0EFCF61E676E08B8906
:10319000B3D766E380E793E00E94B30B62E481E774
:1031A00093E00E94B30B40E0BECF9FEF980F9830A2
:1031B00048F48150990BFC01EE0FFF1FE15BF94FC2
:1031C000608371830895FC01908192959170809144
:1031D0007007811509F441C08091080198133CC023
:1031E00080916F07853009F454C0813009F45EC0C6
:1031F000823091F180916D0790916E078E30B1E031
:103200009B07B8F52181AC014F5F5F4F40936D077D
:1032100050936E07DC01A15AB94F2C9362814E3056
:1032200021E0520731F19C012E5F3F4F20936D0743
:1032300030936E07415A594FDA016C9343812E3017
:10324000B1E03B07B1F0039680936D0790936E0752
:10325000215A394FF9014083089581E08093700726
:1032600010926D0710926E07909308018181803F44
:1032700021F082E080936F07089582818E3709F4F0
:1032800046C081113CC08381813099F780936F07DC
:1032900008958181863469F78281863351F783816D
:1032A000843339F786E080936F07089581818937E9
:1032B00001F784E080936F0780916D0790916E070E
:1032C0008E3021E09207A8F642819C012F5F3F4F8C
:1032D00020936D0730936E07DC01A15AB94F4C93D0
:1032E00043812E3051E0350721F2029680936D071D
:1032F00090936E07215A394FD9014C9308958D3719
:1033000071F483818D3409F0B4CF85E0BFCF838120
:103310008F3709F0AECF83E080936F0708958F3623
:1033200061F487E080936F07838121E020936D072C
:1033300010926E0780935F0608958F3509F099CF3C
:1033400088E0F0CF20917007211111C0FC0121818C
:10335000203F09F456C010926D0710926E0710922C
:103360006F07109270078FEF8093080108953091D6
:103370000801DC012C91229521703213F7CF1092B5
:10338000700720916F07213009F441C0223019F3F2
:1033900040916D0750916E074E30F1E05F07D8F60F
:1033A00011962C91FA013196E0936D07F0936E0718
:1033B000DA01A15AB94F2C93DC0112962C91EE3010
:1033C000B1E0FB0741F2BA016E5F7F4F60936D077A
:1033D00070936E07E15AF94F2083FC0183816E30B0
:1033E000F1E07F0709F4B7CF4D5F5F4F40936D0762
:1033F00050936E07615A794FDB018C93832F5BDD0D
:10340000AACF82818E3609F0A6CF6FD4A4CF1196B1
:103410002C91293709F09FCF24E020936F0740912A
:103420006D0750916E074E30B1E05B0708F093CF07
:10343000FC012281BA016F5F7F4F60936D0770932B
:103440006E07FA01E15AF94F2083DC0113968C9143
:103450006E30B1E07B0709F47ECF4E5F5F4F409343
:103460006D0750936E07615A794FFB018083832F5C
:1034700022DD71CFFC0190917007911589F1809147
:103480000801908192959170891335C01092700750
:1034900090916F07923021F120916D0730916E0766
:1034A0002E3061E03607E0F49181A9014F5F5F4F54
:1034B00040936D0750936E07D901A15AB94F9C9361
:1034C00092814E30E1E05E0759F02E5F3F4F20932E
:1034D0006D0730936E07415A594FFA019083EBDC28
:1034E00010926D0710926E0710926F07109270077E
:1034F0008FEF809308010895FC019091700791155A
:1035000011F180910801908192959170891326C0E4
:103510001092700790916F079230A9F020916D077B
:1035200030916E072E3091E0390768F49181A9013E
:103530004F5F5F4F40936D0750936E07215A394F8D
:10354000F9019083B8DC10926D0710926E0710920B
:103550006F07109270078FEF8093080108951F93F3
:10356000CF93DF93CDB7DEB7AD970FB6F894DEBF3C
:103570000FBECDBF80EF89831A8211E01B8389E7DC
:103580008C8382E08D831E831F8290E00E94AB0BB0
:103590008F5F8887198783E090E00E94AB0B8A8752
:1035A00083E08B8785E090E00E94AB0B8C8787E0FF
:1035B0008D8789E090E00E94AB0B8E8788E08F8733
:1035C0008AE090E00E94AB0B888B8AE0898B8EE0CA
:1035D00090E00E94AB0B8A8B8BE08B8B8DE090E0B0
:1035E0000E94AB0B83708C8B8CE08D8B8DE090E018
:1035F0000E94AB0B82958F708E8B8DE08F8B8CE051
:1036000090E00E94AB0B8150888F8EE0898F8FE015
:1036100090E00E94AB0B8A8F8FE08B8F80E190E06F
:103620000E94AB0B8C8F80E18D8F81E190E00E9436
:10363000AB0B8E8F81E18F8F82E190E00E94AB0B0C
:1036400088A382E189A383E190E00E94AB0B8AA367
:1036500083E18BA384E190E00E94AB0B8CA384E117
:103660008DA385E190E00E94AB0B8EA385E18FA333
:1036700086E190E00E94AB0B88A786E189A787E1ED
:1036800090E00E94AB0B8AA787E18BA788E190E0CE
:103690000E94AB0B8CA787EF8DA7BE016F5F7F4F9A
:1036A0008DE290E00E94B512AD960FB6F894DEBFA1
:1036B0000FBECDBFDF91CF911F910895892B19F0D7
:1036C000FB018081811108950FB6F894A89580912F
:1036D0006000886180936000109260000FBE3FDF41
:1036E00088E19FE00FB6F894A895809360000FBE24
:1036F0009093600008952F923F924F925F926F9245
:103700007F928F929F92AF92BF92CF92DF92EF9271
:10371000FF920F931F93CF93DF93CDB7DEB7A89798
:103720000FB6F894DEBF0FBECDBF8330910508F40D
:1037300093C0FB01F080E180F110A7C086309105B5
:1037400008F48AC0E11409F487C02281211509F424
:1037500083C0D48005978D15910508F47DC0213173
:1037600008F07AC00FB6F894A8958091600088613F
:1037700080936000109260000FBEF3E0DF1608F443
:1037800061C04FEF420F477088E1489F402D1124E0
:1037900032E08FEE91E0E31611F08FE690E0480FF3
:1037A000592F511D2150330BC9019595879595953A
:1037B000879595958795919581959109807C90E065
:1037C0003C01640E751E4B01F5E08F0E911C5401F7
:1037D00000E010E0685F7F4F1B01FEA2FD2C680136
:1037E000C80CD91CC101800F911FF6012191DF0186
:1037F000220F2E93E817F907C9F732E0C501E31647
:1038000009F4E0C00E94B013060D171D280183E0E3
:10381000480E511CF60161916F01C8010E94A00B76
:103820000F5F1F4F40165106A9F7FEA1FD5FFEA3D3
:103830000F2F10E023E0A20EB11CC80102968F15D5
:1038400091056CF288E19FE00FB6F894A8958093FB
:1038500060000FBE90936000A8960FB6F894DEBF8C
:103860000FBECDBFDF91CF911F910F91FF90EF90D1
:10387000DF90CF90BF90AF909F908F907F906F9090
:103880005F904F903F902F90089531E0F312E4CF76
:10389000E31609F49AC082E0E812DECF8FEE91E0E1
:1038A00000E010E0932E20E8822EFE013196ECA37A
:1038B000FDA337EF332E8E1B9F0B9C012A5031093D
:1038C0002FA338A740E3442E512CEEA22F2C7801D1
:1038D000540139E18316910418F088E1A82EB12C27
:1038E00088E1881A910890EF99831A82E1E0EB83CE
:1038F000F9E7FC8324E02D831E823EA13F832886C6
:1039000080E18987AA863B863C863D863E863F8647
:10391000388A398A3A8A3B8A3C8A3D8A3E8A3F8A7B
:10392000388E398E3A8E3B8E3C8E3D8E3E8E3F8E4B
:1039300038A239A23AA23BA20FB6F894A89580917A
:103940006000886180936000109260000FBE98EE66
:1039500089169FEF9906F9F03E01EBE06E0E711C9F
:103960006501C60CD71C0FA118A50E0D1F1DC8019F
:10397000860D971D0E94AB0BFFE78F9FC00111249E
:10398000B2010E94B027F30161933F01EC15FD05E0
:1039900071F7EA0CFB1CF8E12FE00FB6F894A8953C
:1039A000F09360000FBE20936000BE016F5F7F4FF9
:1039B000C5010B960E94B51259D8239431E1231208
:1039C00087CF4ACF0E942C141FCF8FE690E068CF9C
:1039D000892B41F1FB018081813029F1823009F08E
:1039E00008950FB6F894A89580916000886180933F
:1039F0006000109260000FBE0E94CF0BFFEF25EA1F
:103A00008EE0F15020408040E1F700C00000A7DDCB
:103A100088E19FE00FB6F894A895809360000FBEF0
:103A20009093600008950FB6F894A8958091600077
:103A3000886180936000109260000FBE0E944E0D5E
:103A4000BBC9CF93DF93CDB7DEB7A7970FB6F89476
:103A5000DEBF0FBECDBF462F372F0FB6F894A89507
:103A600020916000286120936000109260000FBEDA
:103A7000BE016F5F7F4F28E1FB0111922A95E9F7A4
:103A80008130910509F49FC00197E42FF32F20E0C6
:103A900030E0A081A83128F4A60FB72FB11D4181D5
:103AA0004C932E5F3F4F32962817390790F3698168
:103AB0006150FA81F98F8C818A8FE885EB8FF985C7
:103AC000FC8F8B858D8F8D858295807F9C85892B42
:103AD0008E8F8E858F5F8F8FEF85E8A3F989F9A38D
:103AE0008A898AA3EB89EBA3FD89FCA38E898DA328
:103AF000EF89EEA3F88DFFA382E090E00E94A00B77
:103B0000698D83E090E00E94A00B6A8D85E090E0D3
:103B10000E94A00B6B8D89E090E00E94A00B6C8D41
:103B20008AE090E00E94A00B6D8D8EE090E00E94F4
:103B3000A00B6E8D8DE090E00E94A00B6F8D8CE04D
:103B400090E00E94A00B68A18FE090E00E94A00B83
:103B500069A181E190E00E94A00B6AA182E190E05E
:103B60000E94A00B6BA183E190E00E94A00B6CA1CE
:103B700085E190E00E94A00B6DA186E190E00E949B
:103B8000A00B6EA187E190E00E94A00B6FA188E1DD
:103B900090E00E94A00B0E942213E1DC0E94920C94
:103BA00088E19FE00FB6F894A895809360000FBE5F
:103BB00090936000A7960FB6F894DEBF0FBECDBFFE
:103BC000DF91CF9108951FA21EA21DA21CA21BA2CD
:103BD0001AA219A218A281E08F8F1E8E1D8E1C8E34
:103BE0001B8E1A8E198E6FEF87CF61E27DE181E027
:103BF000DCDA6EE57BE182E0D8DA68EE7CE183E036
:103C0000D4DA6BE77BE184E0D0CACF93DF9300D0B6
:103C10000F92CDB7DEB769834A832B83DFD390E061
:103C2000FC01EE0FFF1FE80FF91FEF58F84F8981D5
:103C3000682F70E06E5F7F4F7695679576956795F4
:103C400060838A81482F50E04E5F5F4F56954795BD
:103C50005695479541838B81282F30E02E5F3F4F4B
:103C6000369527953695279522830F900F900F90C4
:103C7000DF91CF910895EF920F931F93CF93DF932E
:103C800070E0EB01CC0FDD1FC60FD71F90E6899FB8
:103C9000C00DD11D1124122F1F730F7360E4629F9A
:103CA000602D11244F73642BCE0181599F4F0E94C8
:103CB000B30B612F66956695802F8295807F682B68
:103CC000CE0180599F4F0E94B30B602F62956F7099
:103CD000EE0CEE0C6E29CE018F589F4FDF91CF91E5
:103CE0001F910F91EF900C94B30BE1E7F7E080EC9C
:103CF000DF011D928A95E9F708953F924F925F92F6
:103D00006F927F928F929F92AF92BF92CF92DF92EB
:103D1000EF92FF920F931F93CF93DF93FC015B0110
:103D20008617970708F071C0D3E04D2EDCE15D2EB9
:103D3000D08121819281D6FB882782F926FB332707
:103D400031F9832B96FD81606F01811509F4C4C0A0
:103D500033E0C30ED11C682EDF732F739F73D11114
:103D6000DE5FC2E09C2E920E211101C0912CB2E0C8
:103D70008B2E890E911101C0812C7601E60CF11C6D
:103D8000860114C0C32DCF738C2F28D390E0FC0183
:103D9000EE0FFF1FE80FF91FEF58F84FD083918205
:103DA000828236FC6AC00E151F0531F1F8013080A1
:103DB0000F5F1F4F832D8077803621F733FA7724EA
:103DC00073F833FE34C083E232FE83E0C0E0382271
:103DD000832D8C2B03D390E0FC01EE0FFF1FE80F27
:103DE000F91FEF58F84FD08391828282CC5FC032A6
:103DF00079F70E151F05D1F66A94F6013196E60D96
:103E0000F11DEA15FB0508F493CFDF91CF911F91C7
:103E10000F91FF90EF90DF90CF90BF90AF909F9069
:103E20008F907F906F905F904F903F900895C32D3B
:103E3000CC0FCC0FCC713C2E3728832DCFD290E005
:103E4000FC01EE0FFF1FE80FF91FEF58F84FD0836A
:103E500091828282832D8062C1D290E0FC01EE0FBC
:103E6000FF1FE80FF91FEF58F84FD083918282822D
:103E7000739434E07312DFCF96CF832D80958F73C8
:103E8000ADD290E0FC01EE0FFF1FE80FF91FEF58D5
:103E9000F84FD0839182828235FE85CF832D8F713A
:103EA00084259CD290E0FC01EE0FFF1FE80FF91F64
:103EB000EF58F84FD083918282828C2F85258ED245
:103EC00090E0FC01EE0FFF1FE80FF91FEF58F84FCD
:103ED000D0839182828267CF84E0C80ED11C638038
:103EE000F601611039CF8DCFDF92EF92FF920F93E1
:103EF0001F93CF93DF93EC01039686179707E0F5A6
:103F00008B01045011090C1B1D0B0C7F0C5F1F4F04
:103F10000C0F1D1F8B818F73F82E8A818F73E82EF3
:103F200089818F73D82E88818F7358D2D11411F064
:103F3000D394D39490E09C01220F331FF901E80F32
:103F4000F91FEF58F84FD082E11411F0E394E39495
:103F5000F901E80FF91FEF58F84FE182F11411F061
:103F6000F394F394280F391FF901EF58F84FF282B8
:103F700024960C171D0771F6DF91CF911F910F91B9
:103F8000FF90EF90DF9008951F93CF93DF93162F4C
:103F9000D42FC22F23D211111E5F90E0FC01EE0F2F
:103FA000FF1FDF01A80FB91FAF58B84F1C93D111E5
:103FB000DE5FDF01A80FB91FAF58B84F1196DC9331
:103FC000C111CE5FE80FF91FEF58F84FC283DF91A0
:103FD000CF911F910895633008F00895942F9F7733
:103FE00070E0660F771FFB01E856FE4F0190F081ED
:103FF000E02DE90FF11D2491FB01E256FE4F0190E7
:10400000F081E02DE90FF11D44916C557E4FDB01ED
:10401000ED91FD91E90FF11D6491F7CDCF93DF9301
:1040200000D000D0CDB7DEB7833058F5962F93700F
:104030006695669570E09B01220F331F260F371F90
:1040400040E6849F200D311D11242B833C83215990
:104050003F4F913098F1E9F02B813C812F583F4F31
:1040600029833A839230A9F189819A810E94AB0B0E
:10407000869586950F900F900F900F90DF91CF91BE
:10408000089580E00F900F900F900F90DF91CF91E7
:104090000895C9010E94AB0B89838B819C81805953
:1040A0009F4F0E94AB0B982F990F990F9C732981FA
:1040B00084E0829F812D1124892BDCCFC9010E94CD
:1040C000AB0B8F730F900F900F900F90DF91CF91EC
:1040D00008958B819C8180599F4F0E94AB0B8B83ED
:1040E00089819A810E94AB0B982F929590738B8156
:1040F00082958F70892BBECFEF920F931F93CF9332
:10410000DF9300D00F92CDB7DEB789838330B8F448
:1041100061157105A1F06A837B8310E0EA81FB8160
:10412000E380028121814081612F8981A4DD1F5FAD
:104130008A819B8104968A839B83103279F70F9042
:104140000F900F90DF91CF911F910F91EF900895F5
:10415000EF92FF920F931F93CF93DF9300D00F92B4
:10416000CDB7DEB77B018A012A833B838F778983B2
:10417000672B59F0682F80E051DF982F92959F7040
:10418000880F880F982BF70190830115110559F0BE
:10419000698181E043DF982F92959F70880F880F87
:1041A000982BF80190838A819B81892B61F069812A
:1041B00082E034DF982F92959F70880F880F982B9C
:1041C000EA81FB8190830F900F900F90DF91CF9148
:1041D0001F910F91FF90EF900895AF92BF92CF92F1
:1041E000DF92EF92FF920F931F93CF93DF9300D054
:1041F00000D000D0CDB7DEB780E793E00E94AB0BD4
:10420000863309F44CC086E0E2E9F1E0DE01119664
:1042100001900D928A95E1F7CE0101965C0110E0C4
:10422000F501C190D1905F01F3E0CF0ED11CF12CCC
:10423000F601E4903197049131972491319744919C
:10424000E694E69406950695269526954695469518
:104250006F2D812F10DDF394F4E0CF0ED11C80E29E
:10426000F812E6CF1F5F1330D9F666E380E793E0DC
:104270000E94B30B62E481E793E00F900F900F90E0
:104280000F900F900F90DF91CF911F910F91FF90A2
:10429000EF90DF90CF90BF90AF900C94B30B81E77D
:1042A00093E00E94AB0B823409F0ADCF0F900F90DA
:1042B0000F900F900F900F90DF91CF911F910F9162
:1042C000FF90EF90DF90CF90BF90AF900895CF9385
:1042D000DF9300D000D0CDB7DEB78C83862F9E0150
:1042E0002F5F3F4FAE014E5F5F4FBE016D5F7F4F4F
:1042F0002FDF29814A816B818C810F900F900F9065
:104300000F90DF91CF9181CCCF93DF93CDB7DEB704
:1043100028970FB6F894DEBF0FBECDBF892BC9F02A
:10432000FB0160816F37F1F480EF89831A8281E0AD
:104330008B8389E78C8388E08D83809131088E831D
:1043400087EF8F83BE016F5F7F4F87E090E00E9411
:10435000B51228960FB6F894DEBF0FBECDBFDF9121
:10436000CF910895637068876093310889E190E088
:104370000E94AB0BF8858F17B9F26F2F89E190E09F
:104380000E94A00BD1CF8AE190E00E94AB0B853A4E
:1043900091F060E089E190E00E94A00B65EA8AE17B
:1043A00090E00E94A00B80E08093310864E871E205
:1043B00088E00C94D51889E190E00E94AB0B843022
:1043C00098F360E089E190E00E94A00BECCF83704D
:1043D000809331080895809131080895E091310863
:1043E00090E4E99FF00111248F73E80FF11DEB5F5A
:1043F000F94F84910895E0913108E195E37090E4DC
:10440000E99FF00111248F73E80FF11DEB5FF94F65
:1044100084910895E1E7F7E0A9E8B5E09081818112
:1044200022812D939D938D93339688E0E133F80795
:10443000A9F708951F93CF93DF9300D000D0CDB795
:10444000DEB780914906843051F410E402C0115067
:1044500031F0CE0101960E94BD148111F8CF0F906A
:104460000F900F900F90DF91CF911F910895CF93F0
:10447000C82F3BDC1092B607C11182C080E4809344
:10448000B7071092B80710920D0880930E0810928B
:104490000F081092F80782E18093F9071092FA074B
:1044A00010920408809305081092060882E192E1B8
:1044B0001092920790939307109294071092E90735
:1044C0009093EA071092EB0710929B0780939C074A
:1044D00010929D071092A7078093A8071092A90732
:1044E0000E946E0EE5E2F7E050E020E03FEF0BC0E7
:1044F000482F491B942F931710F4392F522F2F5FF9
:104500003196283029F09491981790F3981BF3CFA7
:10451000C3706C2F70E0FB01EE0FFF1FEE0FFF1F4B
:10452000EE0FFF1FEB5FF84F90E040E4951342E180
:10453000249130E0D901AA0FBB1FA20FB31FAF58BF
:10454000B84F4D934D934C939F5F3196983069F7D8
:10455000C330D9F166557E4FFB01808190E0FC01AC
:10456000EE0FFF1FE80FF91FEF58F84F80E480832C
:10457000118212824FDF89E895E0CF910C94880E6A
:1045800082E18093B7071092B80710920D088093CC
:104590000E0810920F081092F807C13011F480E451
:1045A0007BCF8093F9071092FA071092040880934A
:1045B00005081092060890E4C23009F479CF80E42F
:1045C00092E1C33009F474CF71CF8FE390E0C7CF8D
:1045D0000F9383E203DF082F21E030E040E050E05A
:1045E000BA01CA01F8D4E091ED042E23E091EE0463
:1045F0003E23E091EF044E23E091F0045E23E0912E
:10460000F1046E23E091F2047E23A091F304F09173
:10461000F404E1E08A239F23A0E013D509F4E0E04D
:104620008E2F0F910895D7DE382E0E94480D832DCE
:104630001EDF1092D5041092D6041092D704109267
:10464000D8041092D9041092DA041092DB0410926C
:10465000DC041092DD041092DE041092DF0410924C
:10466000E0041092E1041092E2041092E30410922C
:10467000E4048091ED048093E5048091EE0480933E
:10468000E6048091EF048093E7048091F004809326
:10469000E8048091F1048093E9048091F20480930E
:1046A000EA048091F3048093EB048091F4048093F6
:1046B000EC04832D8370482E0E9426110E945F1106
:1046C00093E0491609F4DBC0E42DF0E0DF01A655C4
:1046D000BE4F0C9121E030E040E050E0BA01CA0149
:1046E0007AD4E901042FF52EE62E772E682E592E66
:1046F000B090D504C090D6041091D704A090D804EF
:104700009090D904D090DA04B091DB048090DC045E
:104710002B2D2C233C2D3D23412F40235A2D5F214F
:10472000692D6E217D2D77218B2F8621982D952146
:10473000A0E087D409F0B5C0EE0FFF1FEE0FFF1FFA
:10474000EE0FFF1FCF018B5F984F7C01C0E0D0E0E0
:10475000F701EC0FFD1F049121E030E040E050E054
:10476000BA01CA0138D42B213C2141235A216921A5
:104770007D218B239821A0E064D409F0CCC0219640
:10478000C830D10529F7412F407820E030E050E0D3
:10479000B9018B2F807190E054D409F410C110E05E
:1047A000311661F0812F13DE612F89E190E00E94C4
:1047B000B30B65EA8AE190E00E94B30B812F57DECC
:1047C000C8E7D0E037DEA8958FE99FE00197F1F7C1
:1047D00000C000002197B1F71092D5041092D604C2
:1047E0001092D7041092D8041092D9041092DA04CF
:1047F0001092DB041092DC041092DD041092DE04AF
:104800001092DF041092E0041092E1041092E2048E
:104810001092E3041092E4048091ED048093E50487
:104820008091EE048093E6048091EF048093E70486
:104830008091F0048093E8048091F1048093E9046E
:104840008091F2048093EA048091F3048093EB0456
:104850008091F4048093EC04312E912F9370492EB3
:10486000E9DDA895EFE9FFE03197F1F700C000001E
:104870000E9426110E945F1193E0491225CFC0E0EB
:10488000D0E000E07E01370190E8592EE3E0F0E04F
:104890002FCFD0DDA895EFE9FFE03197F1F700C009
:1048A00000000E9426112091ED042C233091EE048B
:1048B0003D234091EF0440235091F0045F2160912B
:1048C000F1046E217091F20477218091F3049091AC
:1048D000F40486219521A0E0B4D3D9F606DA9ADD56
:1048E00089E895E00E94880ECEE1D0E0A3DDA8958E
:1048F0008FE99FE00197F1F700C000002197B1F721
:1049000088E198E00FB6F894A895809360000FBEF8
:1049100090936000FFCFCB5DD84FFE01C4918C2FE8
:104920000E94510E6C2F82E793E00E94B30B68EB5C
:1049300083E793E00E94B30B832D99DD1092D50499
:104940001092D6041092D7041092D8041092D90471
:104950001092DA041092DB041092DC041092DD0451
:104960001092DE041092DF041092E0041092E10431
:104970001092E2041092E3041092E4048091ED049A
:104980008093E5048091EE048093E6048091EF0427
:104990008093E7048091F0048093E8048091F1040F
:1049A0008093E9048091F2048093EA048091F304F7
:1049B0008093EB048091F4048093EC0451CF7D2D1F
:1049C000707240E08B2F82703CD311F011E0E8CE82
:1049D0003C2D38707D2D717080E033D311F012E0E2
:1049E000DFCE3C2D3074412F447070E013E029D3AA
:1049F00009F0D6CE35CF1F93CF93DF9300D000D0F0
:104A0000CDB7DEB780914906843051F410E402C07E
:104A1000115031F0CE0101960E94BD148111F8CFE2
:104A20000F900F900F900F90DF91CF911F910895ED
:104A3000EF92FF920F931F93CF93DF9356D90E946B
:104A4000301389E895E00E94880EE12CF12CC3E038
:104A5000D0E0F701E35DF84F0491F701E25DF84F14
:104A6000E4911E2FF701E15DF84FE4900115110567
:104A700069F001501109BFDFA8958FE99FE0019708
:104A8000F1F700C0000001501109A8F7E11409F482
:104A900053C08E010E0D111D0E0D111D28C0FE01FB
:104AA000E55DF84F9491FE01E45DF84F4491903438
:104AB000D8F4892F86958695382F309521E090324D
:104AC00008F420E0220F220F9370290F220F220FEB
:104AD0003370230F002482FF0394802D8295880F6A
:104AE000807E60E0820F77DAC017D10729F17E015E
:104AF0002296CF3A8BE0D80790F20E94301389E8D3
:104B000095E00E94880E77DFA895E7012396CF3ABB
:104B10009BE0D90708F49DCFE8D80E94301389E8BC
:104B200095E00E94880E67DFA895DF91CF911F91D5
:104B30000F91FF90EF9008957E01DFCF80913708AD
:104B4000877F8093370880913D08877F80933D0859
:104B500080914308877F8093430882E080934408D4
:104B60008091D1049091D204A091D304B091D40447
:104B70000197A109B1098093450890934608A09335
:104B80004708B093480808952F923F924F925F9242
:104B90006F927F928F929F92AF92BF92CF92DF924D
:104BA000EF92FF920F931F93CF93DF9300D00F925A
:104BB000CDB7DEB78A839B83C090D104D090D20456
:104BC000E090D304F090D404809145089091460879
:104BD000A0914708B091480827E0B695A79597950A
:104BE00087952A95D1F7A601B70137E076956795A5
:104BF000579547953A95D1F784179507A607B707B4
:104C000009F486C0809144088F5F282F30E08330FC
:104C100008F08EC180934408F901EE0FFF1FE20FE8
:104C2000F31FEE0FFF1FDF01AE5CB74FA601B70108
:104C300040784D935D93ED927D93EA5CF74F8181CF
:104C4000886081830E94DC122091440830E0F901E1
:104C5000EE0FFF1FE20FF31FEE0FFF1FEA5CF74F8F
:104C600087709081907F892B80830E94DC12209135
:104C7000440830E0F901EE0FFF1FE20FF31FEE0FC3
:104C8000FF1FEA5CF74F87708295807F90819F704D
:104C9000892B808304C091FD3BC0811139C00E94E3
:104CA000DC122091440830E0F901EE0FFF1FE20F03
:104CB000F31FEE0FFF1FEA5CF74F918180FB90F925
:104CC00091830E94DC122091440830E0F901EE0F3C
:104CD000FF1FE20FF31FEE0FFF1FEA5CF74F9181FA
:104CE00080FB91F991830E94DC122091440830E00E
:104CF0008170F901EE0FFF1FE20FF31FEE0FFF1F90
:104D0000EA5CF74F918180FB92F9918390FFC3CFCA
:104D1000C0924508D0924608E0924708F0924808B1
:104D200080ECEA81FB8111928A95E9F762E378E0F1
:104D300040E050E0CA01880F991F840F951F5C0165
:104D4000AA0CBB1CD501A95CB74FFC91F983F3FDFC
:104D50001DC04F5F5F4F6A5F7F4F4330510551F772
:104D60000F900F900F90DF91CF911F910F91FF90B7
:104D7000EF90DF90CF90BF90AF909F908F907F90FB
:104D80006F905F904F903F902F900895FB0180812E
:104D900091819601281B390B1FE3121B9EE7921B82
:104DA00080E0F501EA5CF74F5F0137FD4EC0EC9102
:104DB000F981F0FF53C0203431050CF4B0C02F3717
:104DC00031050CF042C0692EE1FD52C0712CE2FFAA
:104DD00052C0992EF5010081502E5294EFE05E22D0
:104DE0000F70802EF02FF80FF83008F046C008E062
:104DF000202E521408F087C052FA442445F8E52DBD
:104E0000E3704E2AFF0FFF0FF4292A803B8003E056
:104E1000F002200C311C1124F10160827182928217
:104E2000E82DE81BE830B8F5EE0FEE0FE4292A80F4
:104E30003B8003E0E002200C311C1124F101608270
:104E400071829282E8E08E1630F18F5F285131092D
:104E5000185E985E883009F0A8CF7BCF20343105EA
:104E60000CF453C02F37310584F7612CE1FFAECF2E
:104E7000792EE2FDAECF912CADCFE02FE81BE830CC
:104E800008F7F8E05F16E0F552FA442445F8F52DEE
:104E9000F3704F2AC9CFF52DF80FF830A0F5581A46
:104EA0000F2F0370E82DEE0FEE0FE02BF2FBFF2724
:104EB000F5F9EF2B03E0E002F00111242A803B809A
:104EC000E20DF31D608271829282E8E03E2E53145F
:104ED00008F0BBCFE82DEE0FEE0FF52DF370EF2BA2
:104EE00052FA552455F8E52903E0E002F0011124B7
:104EF0002A803B80E20DF31D608271829282A5CFF1
:104F00000F1708F0A2CF581AE0CF612EE1FF0BC0B7
:104F10000FE3702EE2FF0AC0FFE39F2E5BCFFFE39B
:104F20006F2EE1FDF5CF712EE2FDF6CF912E52CF1F
:104F300080E020E030E06ECEAA1BBB1B51E107C031
:104F4000AA1FBB1FA617B70710F0A61BB70B881F19
:104F5000991F5A95A9F780959095BC01CD010895A8
:104F600097FB072E16F4009406D077FD08D0E4DFF7
:104F700007FC05D03EF4909581959F4F089570955C
:104F800061957F4F0895A1E21A2EAA1BBB1BFD015C
:104F90000DC0AA1FBB1FEE1FFF1FA217B307E40718
:104FA000F50720F0A21BB30BE40BF50B661F771F70
:104FB000881F991F1A9469F7609570958095909550
:104FC0009B01AC01BD01CF010895EE0FFF1F0590BD
:104FD000F491E02D0994002E083090F0982F872F3F
:104FE000762F652F542F432F322F22270850F4CFCE
:104FF000220F331F441F551F661F771F881F991FDD
:105000000A95B2F7002D089597FD1094002E0830F0
:1050100098F00850232F342F452F562F672F782FC5
:10502000892F912DF4CF159497958795779567954E
:1050300057954795379527950A95AAF71124002D7E
:1050400008950024A7FD00942A1730054005500557
:1050500060057005800590050895F894FFCFD80A83
:10506000330B2D0B270B120BF90ADD0ADD0ADD0AC3
:10507000DD0ADD0AEC0A5C165316AB154916AB15B2
:0E508000DD15F615AB15751663167C16F115C9
:10508E004E04B44A0E938D0FFF3000000000003026
:10509E0000000000000000003000000000003000A2
:1050AE000030000000000030000000000000000092
:1050BE00300000000000300000000000300000183A
:1050CE000000280C00140600201900100C001920F6
:1050DE00000C1000003000001800001E1E000F0F04
:1050EE000000300000181907200D031124001212C1
:1050FE000009181818040012002C00EA00D800ACA1
:10510E0000F07E7F060200017906000100302403C4
:10511E0020F785050505850485040503850105052C
:0E512E008503050285050504850223001C008B
:00000001FF
